:10000000C2C00000E0C00000DEC000008CC10000E3
:10001000DAC00000D8C00000D6C00000D4C0000084
:10002000D2C00000D0C00000CEC00000CCC0000094
:10003000CAC00000C8C00000C6C0000057C300000E
:10004000C2C00000C0C00000BEC00000BCC00000B4
:10005000BAC00000B8C00000B6C00000B4C00000C4
:10006000B2C00000B0C00000AEC00000ACC00000D4
:10007000AAC00000A8C00000A6C00000A4C00000E4
:10008000A2C00000A0C000009EC000009CC00000F4
:100090009AC0000098C0000096C00000C3C50000D0
:1000A00092C0000090C000008EC000008CC0000014
:1000B0008AC0000088C0000086C0000084C0000024
:1000C00082C0000080C000007EC000007CC0000034
:1000D0007AC0000078C0000076C0000074C0000044
:1000E00072C0000030068206820682068206820600
:1000F0008206820630068206820682068206820612
:1001000082068206320682068206820682068206FF
:10011000820682068206820682068206820682069F
:1001200082068206320682068206820682068206DF
:10013000820682068206820682068206820682067F
:10014000820682067E068206820682068206820673
:10015000820682065B068206820682068206820686
:10016000820682068206820682068206820682064F
:10017000820682064F068206820682068206820672
:10018000820682066D0611241FBECFEFD1E2DEBFCC
:10019000CDBF00E00CBF12E0A0E0B2E0E8EFF4E178
:1001A00000E00BBF02C007900D92A830B107D9F74D
:1001B00022E0A8E0B2E001C01D92A034B207E1F74E
:1001C00095D10C947A0A1CCF80988198EAE7F0E0E8
:1001D000808180688083808181608083808182606B
:1001E0008083808184608083ECE7F0E08081806898
:1001F00080838081806480830895EAE7F0E08081D5
:1002000080648083808184FFFDCF8091780020917D
:10021000790090E0922B0895882319F0813041F005
:100220000EC0ECE7F0E080818E7F8083E6CF0895FA
:10023000ECE7F0E0808181608083DFCF089580E08B
:1002400090E00895B9D1F894EA9AE29A78940895E2
:100250000F931F93CF938C01FC0160817181769580
:100260006795769567957695679581E36DD1F801E9
:1002700060816295660F607E82E366D1F8016281DB
:1002800085E362D1F8018281882369F0C0E0F8013A
:10029000EC0FF11D638186E38C0F56D1CF5FF8011F
:1002A0008281C817A0F381E862D1CF911F910F918D
:1002B00008950F931F93CF938C0180910802882398
:1002C00071F181E636D1C82F82E633D12C2F30E090
:1002D000220F331F220F331F220F331F8295869563
:1002E0008770282BF8013183208385E622D1F8011D
:1002F0008283882369F0C0E086E68C0F1AD1F8016A
:10030000EC0FF11D8383CF5FF8018281C817A0F342
:1003100040E061E08CE22FD11092080281E0CF91A1
:100320001F910F9108951F920F920FB60F921124F3
:100330008F9381E0809308028F910F900FBE0F90F2
:100340001F901895789442C40895CF93DF9300D0FE
:10035000CDB7DEB790E599831A828B8363E0CE0137
:1003600001963ED40F900F900F90DF91CF9108959A
:100370002BCF08950F931F93CF93DF938091130298
:1003800090E0CFE0D2E08C01000F111F0C5E1D4FFA
:1003900028813981F80140815181241B350B398333
:1003A0002883880F991FFC01E45EFD4F8A819B81A1
:1003B00020813181821B930B9B838A8380E02CDF19
:1003C000F801918380830091130210E081E024DF23
:1003D000000F111FF801E45EFD4F9183808320918F
:1003E0001302822F90E0FC01EE0FFF1FEC5EFD4F29
:1003F0006881798140815181460F571F5983488315
:10040000880F991FFC01E45EFD4F4A815B8180816A
:100410009181840F951F9B838A832F5F243018F46A
:100420002093130202C010921302DF91CF911F910B
:100430000F9108950F931F93CF93DF93CEE19ADF2F
:10044000C150E9F7EFE0F2E000811181C281D38170
:1004500091DF1695079510930E0200930D029E01F1
:10046000220F331F220F331FADECBCECA8D696959C
:1004700087959695879590930C0280930B02DF9158
:10048000CF911F910F910895209111023091120286
:1004900080910B0290910C022817390768F4809123
:1004A000090281110BC081E08093090280910A0248
:1004B0008F5F80930A0202C01092090280910A02A3
:1004C000823020F010920A0281E0089580E00895C1
:1004D00081E040910F025091100220910D02309165
:1004E0000E024217530708F080E00895CF93DF9380
:1004F000CDB7DEB72B970FB6F894DEBF0FBECDBFDA
:100500002AD420DFA6D001D180E09CDE60E074E236
:1005100084EF90E0EAD22CDF3DD3CE010196C9DE14
:100520008823D9F389819A81892BB9F78C816BD281
:10053000F4CFCF93C82F2F9883E043D38C2F41D390
:1005400039D32F9ACF910895CF93DF93D82FC62F09
:100550002F9882E036D38D2F34D38C2F32D32F9A1D
:10056000DF91CF910895682F8FE0EECF08952F98F7
:1005700028D32F9A08951F93CF93DF93182FD62F48
:10058000C42F2F9885E01DD3812F1BD38D2F19D316
:100590008C2F17D32F9ADF91CF911F9108952F9809
:1005A00080EC0FD340E860E88FE0E5DF2F9A85E329
:1005B0008A95F1F700000895CF93C82FF4D2EFDFAA
:1005C0008EE0B7DF807E803861F48C2FCCDF8EE048
:1005D000B0DF807E8C1307C063E08BE2B5DF80E084
:1005E00003C081E001C081E0CF910895882319F014
:1005F000813039F00895E2E0F1E080818D7F8083E1
:100600000895E2E0F1E08081826080830895CF93D5
:10061000C82F8F3730F081E0E9DF81E88C0F95DE5D
:1006200005C080E0E3DF8EE78C1B8FDECF9108955D
:100630008CCE0895E2E0F1E080818F7B80838FE1B2
:1006400093E00197F1F700C000008081806480830F
:100650000895E1E0F1E0808180618083A2E0B1E073
:100660008C9180618C93808182608083259A8081C7
:1006700088608083808180648083DCDFE7E0F1E054
:1006800080818E7F808380818D7F808380818B7F3E
:1006900080838081877F808380818F7E808380813B
:1006A0008F7D808380818F7B808380818F77808323
:1006B00008952D98E2E0F1E08081886080838FEEDC
:1006C00090E00197F1F700C00000A6E0B1E08C9146
:1006D0009081977F9083EFEEF0E03197F1F700C0C3
:1006E00000002C912D9A90E0922B08951F920F926A
:1006F0000FB60F9211248F9381E0809324028F9183
:100700000F900FBE0F901F901895F89481E0809382
:10071000700087E08093B10078940895CF93DF93C1
:1007200080E064DF82E384DFC4DFEC0101C0EC0120
:100730002FEF83EF91E0215080409040E1F700C01F
:100740000000B7DF8C179D0791F780E060DF8FEC2A
:1007500097E00197F1F700C000006CDF81E046DF11
:1007600082E366DFC0E0D0E001C0EC019FEF23EF41
:1007700081E0915020408040E1F700C0000099DF07
:100780008C179D0791F780E042DFD0932C02C09335
:100790002B02DF91CF9108958F929F92AF92BF92DB
:1007A000CF92DF92EF92FF921F93CF93DF93C82FE8
:1007B00080912402882309F49DC0E0E7F0E0808165
:1007C0008E7F808376DFBC01990F880B990BD8D37D
:1007D0006B017C0160912B0270912C02072E000CA2
:1007E000880B990BCDD39B01AC01C701B6012DD36A
:1007F00020E030E04FE753E477D4C13F20F4CA3023
:1008000018F4CAE001C0C0EFD0E087D3C61BD70BF5
:10081000BE010D2E000C880B990BB2D36B017C012D
:100820002097C9F02FE632E143E85CE35DD49B01F9
:10083000AC01609127027091280280912902909169
:100840002A029BD260932702709328028093290288
:1008500090932A0208C01092270210922802109248
:10086000290210922A028091250290912602BE014F
:10087000681B790B072E000C880B990B81D32FE690
:1008800032E143E85CE3E1D22AE037ED43E25CE3A6
:100890002BD44B015C0120E030E040E251E4609158
:1008A0002702709128028091290290912A021CD47B
:1008B000A701960162D29B01AC01C501B4015DD2D2
:1008C0002CD3162F262F372FD0932602C093250224
:1008D00033232CF480E08ADE812F819503C081E0F0
:1008E00085DE812FA5DE10922402E0E7F0E0808112
:1008F00081608083DF91CF911F91FF90EF90DF9017
:10090000CF90BF90AF909F908F900895CF93DF933B
:10091000CDB7DEB766970FB6F894DEBF0FBECDBF7A
:1009200082E090E09D878C878E871F86188A82DD03
:10093000CE010C968DDC1EDDA7DD888BCE010196E5
:10094000B8DC882379F08C8162DE8FE7DBD08E8182
:1009500024D18FE39CE90197F1F700C00000CE019C
:100960000C9676DCB5DD882331F38F878FE74FDE79
:10097000CE010C966DDC66960FB6F894DEBF0FBE06
:10098000CDBFDF91CF910895CF93DF93CDB7DEB781
:1009900066970FB6F894DEBF0FBECDBF82E090E041
:1009A0009D878C878E871F86188AB8DE43DDCE012F
:1009B0000C964EDCDFDC68DD888BCE01019679DC9D
:1009C000882379F08D81E8DE8C819CD08E81E5D002
:1009D0008FE39CE90197F1F700C00000CE010C966F
:1009E00037DC76DD882331F38F878FE710DECE0189
:1009F0000C962EDC66960FB6F894DEBF0FBECDBF08
:100A0000DF91CF910895882319F0813019F008956E
:100A10007DCF0895B9CF0895CF92DF92EF92FF92E4
:100A20006B017C01E1E8F0E080818460808380815B
:100A30008D7F808380818E7F808360912D02709175
:100A40002E0280E090E09AD2A70196014DD36AD29F
:100A50007093870060938600FF90EF90DF90CF90B7
:100A600008950F931F93E1E8F0E0A081A061A083B7
:100A7000A081A860A083E0E8F0E0A081A260A0834C
:100A8000A081AE7FA083A081A062A083A081AF7E61
:100A9000A083032F142F252F332710932E020093AA
:100AA0002D02BADF269A1F910F910895CF92DF92FF
:100AB000EF92FF926B017C0160912D0270912E02EA
:100AC00080E090E05BD2A70196010ED320E030E0F9
:100AD00040E05FE351D126D270938B0060938A008F
:100AE000FF90EF90DF90CF9008959B01AC016AE0FA
:100AF00077ED83EA9CE3B5DF66EA7BE984EC9AE371
:100B0000D5CF0895CF92DF92EF92FF92282F30E059
:100B1000255231090AF08552682F70E080E090E09C
:100B20002DD22DEA34EB4EE458E48FD12AEF3DEE7E
:100B30004BE65AE322D16B017C012CE639E049E710
:100B40005AE37FD18823A4F02BE439E546E05BE348
:100B5000C701B601C5D21816ACF40F2EFBE4CF2E98
:100B6000F9E5DF2EF6E0EF2EFBE3FF2EF02D0AC0B5
:100B70000F2EFCE6CF2EF9E0DF2EF9E7EF2EFAE399
:100B8000FF2EF02DC701B60191DFFF90EF90DF90AF
:100B9000CF900895249A2C9A0895882311F02C98C8
:100BA00008952C9A089584B1876884B98CB58165BD
:100BB0008CBD08958FEF8EBD0DB407FEFDCF8EB5B1
:100BC00008958EBD0DB407FEFDCF08958CE080938F
:100BD000B8008FEF8093BB0084E08093BC00089541
:100BE000DC01ECEBF0E0908190FDFDCF60933102F1
:100BF0008C918093320280FD0CC0623050F0FD0178
:100C00003196A3E3B2E081E091919D938F5F6813E9
:100C1000FBCF1092300288EF8093060285EA809322
:100C2000BC0008951F920F920FB60F9211240BB6BD
:100C30000F922F933F938F939F93AF93BF93EF9315
:100C4000FF93E091B9008E2F90E0FC013897E135D9
:100C5000F10508F057C08827EE58FF4F8F4FA7C205
:100C600010922F02E0912F0280913102E81770F468
:100C700081E08E0F80932F02F0E0EE5CFD4F8081CB
:100C80008093BB0085E88093BC0043C08091300214
:100C900081608093300284E98093BC003AC0E09187
:100CA0002F0281E08E0F80932F028091BB00F0E035
:100CB000EE5CFD4F808320912F0230E08091310265
:100CC00090E001972817390724F485EC8093BC0045
:100CD00020C085E88093BC001CC08091BB00E091DF
:100CE0002F02F0E0EE5CFD4F808380913002816046
:100CF0008093300284E98093BC000BC085EA809326
:100D0000BC0007C08091B9008093060284E0809304
:100D1000BC00FF91EF91BF91AF919F918F913F9157
:100D20002F910F900BBE0F900FBE0F901F90189534
:100D3000E0ECF0E0908195FFFDCF8093C60080E06D
:100D400090E00895E0ECF0E080818823ECF780915A
:100D5000C60090E008951092C50087E68093C40015
:100D600088E18093C1008EE08093C20062EA76E061
:100D700088E996E033C208955058BB27AA270ED0C1
:100D800075C166D130F06BD120F031F49F3F11F482
:100D90001EF45BC10EF4E095E7FB51C1E92F77D15A
:100DA00080F3BA17620773078407950718F071F488
:100DB0009EF58FC10EF4E0950B2EBA2FA02D0B01DE
:100DC000B90190010C01CA01A0011124FF27591B90
:100DD00099F0593F50F4503E68F11A16F040A22F96
:100DE000232F342F4427585FF3CF46953795279507
:100DF000A795F0405395C9F77EF41F16BA0B620B06
:100E0000730B840BBAF09150A1F0FF0FBB1F661F4C
:100E1000771F881FC2F70EC0BA0F621F731F841F8F
:100E200048F4879577956795B795F7959E3F08F0B5
:100E3000B3CF9395880F08F09927EE0F9795879574
:100E40000895D9D008F481E008950CD00FC107D1DE
:100E500040F0FED030F021F45F3F19F0F0C05111A6
:100E600039C1F3C014D198F39923C9F35523B1F3D1
:100E7000951B550BBB27AA2762177307840738F009
:100E80009F5F5F4F220F331F441FAA1FA9F333D068
:100E90000E2E3AF0E0E830D091505040E695001C1C
:100EA000CAF729D0FE2F27D0660F771F881FBB1FD8
:100EB000261737074807AB07B0E809F0BB0B802DB2
:100EC000BF01FF2793585F4F2AF09E3F510568F0FE
:100ED000B6C000C15F3FECF3983EDCF38695779592
:100EE0006795B795F7959F5FC9F7880F911D969500
:100EF000879597F90895E1E0660F771F881FBB1F5C
:100F0000621773078407BA0720F0621B730B840B08
:100F1000BA0BEE1F88F7E095089504D06894B111DC
:100F2000D9C00895BCD088F09F5790F0B92F992769
:100F3000B751A0F0D1F0660F771F881F991F1AF0E4
:100F4000BA95C9F712C0B13081F0C3D0B1E00895AD
:100F5000C0C0672F782F8827B85F39F0B93FCCF32E
:100F6000869577956795B395D9F73EF490958095DA
:100F7000709561957F4F8F4F9F4F0895E89409C0FA
:100F800097FB3EF490958095709561957F4F8F4FBC
:100F90009F4F9923A9F0F92F96E9BB279395F695D2
:100FA000879577956795B795F111F8CFFAF4BB0F50
:100FB00011F460FF1BC06F5F7F4F8F4F9F4F16C0B4
:100FC000882311F096E911C0772321F09EE8872F3E
:100FD000762F05C0662371F096E8862F70E060E0FA
:100FE0002AF09A95660F771F881FDAF7880F969573
:100FF000879597F90895990F0008550FAA0BE0E817
:10100000FEEF16161706E807F907C0F012161306CA
:10101000E407F50798F0621B730B840B950B39F40A
:101020000A2661F0232B242B252B21F408950A2670
:1010300009F4A140A6958FEF811D811D089597F9B0
:101040009F6780E870E060E008959FEF80EC08956E
:1010500000240A9416161706180609060895002497
:101060000A9412161306140605060895092E039411
:10107000000C11F4882352F0BB0F40F4BF2B11F485
:1010800060FF04C06F5F7F4F8F4F9F4F089557FDE4
:101090009058440F551F59F05F3F71F04795880FE6
:1010A00097FB991F61F09F3F79F08795089512167D
:1010B00013061406551FF2CF4695F1DF08C0161629
:1010C00017061806991FF1CF8695710561050894DA
:1010D0000895E894BB2766277727CB0197F90895F1
:1010E0008ADF08F48FEF08950BD0C0CFB1DF28F06E
:1010F000B6DF18F0952309F0A2CFA7CF1124EACFCD
:10110000C6DFA0F3959FD1F3950F50E0551F629F66
:10111000F001729FBB27F00DB11D639FAA27F00D50
:10112000B11DAA1F649F6627B00DA11D661F829F77
:101130002227B00DA11D621F739FB00DA11D621F5C
:10114000839FA00D611D221F749F3327A00D611D79
:10115000231F849F600D211D822F762F6A2F11245B
:101160009F5750408AF0E1F088234AF0EE0FFF1FAE
:10117000BB1F661F771F881F91505040A9F79E3FE5
:10118000510570F05CCFA6CF5F3FECF3983EDCF3E7
:10119000869577956795B795F795E7959F5FC1F722
:1011A000FE2B880F911D9695879597F90895EE0F60
:1011B000FF1F881F8BBF0790F691E02D1994A29F07
:1011C000B001B39FC001A39F700D811D1124911D1B
:1011D000B29F700D811D1124911D08950F931F93CF
:1011E000CF93DF93009731F46115710519F480E016
:1011F00090E039C08B01EC016EE070E081E090E09E
:1012000037D0FC01892B99F380E883830115110500
:1012100071F01387028781E8838380913602909171
:101220003702892B21F4F0933702E093360220979E
:10123000C9F0D187C087838182608383809138021F
:1012400090913902892B71F4F0933902E0933802BE
:1012500080913A0290913B02892B21F4F0933B025A
:10126000E0933A02CF01DF91CF911F910F91089542
:101270000F931F93CF93DF93869F8001879F100D5D
:10128000969F100D1124C8010DD0EC01009721F09C
:10129000A80160E070E027D1CE01DF91CF911F91CE
:1012A0000F9108950F931F93CF93DF938230910591
:1012B00010F482E090E0E0913E02F0913F0220E0E5
:1012C00030E0A0E0B0E0309719F140815181028117
:1012D000138148175907C8F08417950769F41097C8
:1012E00031F012960C93129713961C9327C000931B
:1012F0003E0210933F0222C02115310519F042171A
:10130000530718F49A01BD01EF01DF01F801DBCFAB
:1013100021153105F9F0281B390B2430310580F4F3
:101320008A819B816115710521F0FB019383828382
:1013300004C090933F0280933E02FE01329644C067
:10134000FE01E20FF31F81939193225031093983FB
:1013500028833AC020913C0230913D02232B41F476
:10136000209102023091030230933D0220933C020F
:1013700020910002309101022115310541F42DB771
:101380003EB74091040250910502241B350BE091B9
:101390003C02F0913D02E217F307A0F42E1B3F0B35
:1013A0002817390778F0AC014E5F5F4F24173507D7
:1013B00048F04E0F5F1F50933D0240933C028193D3
:1013C000919302C0E0E0F0E0CF01DF91CF911F9157
:1013D0000F910895CF93DF93009709F481C0FC012A
:1013E000329713821282A0913E02B0913F02109771
:1013F00081F420813181820F931F20913C02309132
:101400003D022817390751F5F0933D02E0933C0265
:1014100067C0ED0120E030E0CE17DF0740F44A81DD
:101420005B819E0141155105F1F0EA01F5CFD383AF
:10143000C28340815181840F951FC817D90759F481
:1014400088819981840F951F0296918380838A8178
:101450009B81938382832115310529F4F0933F0208
:10146000E0933E023DC0E901FB83EA834991599133
:10147000C40FD51FEC17FD0761F480819181840FA3
:10148000951F0296E90199838883828193819B83CA
:101490008A83E0E0F0E012968D919C91139700977B
:1014A00019F0FD01DC01F7CF8D919C9111979D0101
:1014B0002E5F3F4F820F931F20913C0230913D02DF
:1014C0002817390769F4309729F410923F021092D7
:1014D0003E0202C013821282B0933D02A0933C02EE
:1014E000DF91CF910895DC0101C06D9341505040D0
:0814F000E0F70895F894FFCF26
:0814F800000040022000F80092
:00000001FF
