:10000000C2C00000E0C00000DEC00000A7C10000C8
:10001000DAC00000D8C00000D6C00000D4C0000084
:10002000D2C00000D0C00000CEC00000CCC0000094
:10003000CAC00000C8C00000C6C000006AC40000FA
:10004000C2C00000C0C00000BEC00000BCC00000B4
:10005000BAC00000B8C00000B6C00000B4C00000C4
:10006000B2C00000B0C00000AEC00000ACC00000D4
:10007000AAC00000A8C00000A6C00000A4C00000E4
:10008000A2C00000A0C000009EC000009CC00000F4
:100090009AC0000098C0000096C00000EDC60000A5
:1000A00092C0000090C000008EC000008CC0000014
:1000B0008AC0000088C0000086C0000084C0000024
:1000C00082C0000080C000007EC000007CC0000034
:1000D0007AC0000078C0000076C0000074C0000044
:1000E00072C000005707A907A907A907A907A90710
:1000F000A907A9075707A907A907A907A907A907D2
:10010000A907A9075907A907A907A907A907A907BF
:10011000A907A907A907A907A907A907A907A9075F
:10012000A907A9075907A907A907A907A907A9079F
:10013000A907A907A907A907A907A907A907A9073F
:10014000A907A907A507A907A907A907A907A90733
:10015000A907A9078207A907A907A907A907A90746
:10016000A907A907A907A907A907A907A907A9070F
:10017000A907A9077607A907A907A907A907A90732
:10018000A907A907940711241FBECFEFD1E2DEBF54
:10019000CDBF00E00CBF13E0A0E0B2E0ECEFFCE16B
:1001A00000E00BBF02C007900D92A233B107D9F750
:1001B00023E0A2E3B3E001C01D92AC36B207E1F741
:1001C0004AD20C947C0E1CCFAED263E08BE273D289
:1001D000F894EA9AE29A789408951F93CF93DF9364
:1001E000EC01688179817695679576956795769526
:1001F000679581E360D268816295660F607E82E3D5
:100200005AD26A8185E357D28A81882361F010E04F
:10021000FE01E10FF11D638186E3810F4CD21F5F68
:100220008A811817A8F381E859D2DF91CF911F91E5
:1002300008951F93CF93DF93EC01809132038823BD
:1002400071F181E62DD2182F82E62AD2482F4295ED
:1002500046954770212F30E0C901880F991F880FFC
:10026000991F880F991F842B9983888385E618D25C
:100270008A83882361F010E086E6810F11D2FE01A7
:10028000E10FF11D83831F5F8A811817A8F340E0F7
:1002900061E08CE227D21092320381E001C080E05D
:1002A000DF91CF911F910895CF92DF92EF92FF924D
:1002B0000F931F93CF93DF936C01FC0181818F9388
:1002C00080818F9389E192E09F938F930E945D0AD2
:1002D000F60182811F928F938AE292E09F938F931F
:1002E0000E945D0A8FE392E09F938F930E945D0AC4
:1002F000F60182812DB73EB7265F3F4F0FB6F894C7
:100300003EBF0FBE2DBF8823E1F0760133E0E30E40
:10031000F11CC0E0D0E003E512E0F70181917F011C
:100320001F928F931F930F930E945D0A2196F601EF
:10033000228130E00F900F900F900F90C217D307DB
:1003400064F38AE090E00E946E0ADF91CF911F91E2
:100350000F91FF90EF90DF90CF9008951F920F9232
:100360000FB60F9211248F9381E0809332038F9107
:100370000F900FBE0F901F90189580988198EAE714
:10038000F0E08081806880838081816080838081CB
:1003900082608083808184608083ECE7F0E08081EC
:1003A000806880838081806480830895EAE7F0E03C
:1003B000808180648083808184FFFDCF809178007C
:1003C0002091790090E0922B0895882319F08130D4
:1003D00041F00EC0ECE7F0E080818E7F8083E6CFB5
:1003E0000895ECE7F0E0808181608083DFCF08959D
:1003F00080E090E00895789413C50895CF93DF933B
:1004000000D0CDB7DEB790E599831A828B8363E085
:10041000CE0101960FD50F900F900F90DF91CF91E5
:100420000895ABCF0895EF92FF920F931F93CF9350
:10043000DF9380913D0390E009E313E09C01220FDC
:10044000331FA901425C5C4F7A01F80120813181A0
:10045000FA0140815181241B350BF801318320833F
:10046000CBE3D3E0FC01EE0FFF1FEA5BFC4F88817A
:10047000998120813181821B930B9983888380E04D
:1004800090E0A3DFF70191838083E0903D03F12C9E
:1004900081E090E09ADFF701EE0FFF1FEA5BFC4F6F
:1004A0009183808360913D03262F30E0F901EE0FA8
:1004B000FF1FE25CFC4F40815181F80180819181F6
:1004C000840F951F91838083F901EE0FFF1FEA5B74
:1004D000FC4F4081518128813981240F351F398398
:1004E00028836F5F643018F460933D0302C010925C
:1004F0003D039F938F938EE492E09F938F93DDD77C
:10050000EBE3F3E081818F9380818F9388E592E024
:100510009F938F93D2D7809138038F938091370325
:100520008F9382E692E09F938F93C7D78091360393
:100530008F93809135038F938FE692E09F938F93F3
:10054000BCD74DB75EB7405F5F4F0FB6F8945EBF44
:100550000FBE4DBFDF91CF911F910F91FF90EF9094
:1005600008950F931F93CF93DF93CAE05CDFC150D0
:10057000E9F70091390310913A03C0913B03D09100
:100580003C0351DFA801569547955093380340939B
:1005900037039E01220F331F220F331FADECBCEC3B
:1005A00033D7969587959695879590933603809344
:1005B00035035F934F9382E692E09F938F937DD7AD
:1005C000809136038F93809135038F938FE692E06D
:1005D0009F938F9372D78DB79EB708960FB6F894F6
:1005E0009EBF0FBE8DBFDF91CF911F910F910895D8
:1005F0001ADF20913B0330913C03809135039091A9
:1006000036032817390768F48091330381110BC032
:1006100081E080933303809134038F5F80933403B0
:1006200002C01092330380913403823020F0109284
:10063000340381E0089580E0089581E0409139031A
:1006400050913A03209137033091380342175307F2
:1006500008F080E00895CF93DF93CDB7DEB72B97F6
:100660000FB6F894DEBF0FBECDBF9CD4C4DEC8D099
:1006700080E0AADD60E074E284EF90E05CD3D1DE3C
:10068000B1D3CE010196D5DD8823D9F3CE010196F1
:100690000BDE89819A81892BA1F78C81DAD2F1CF87
:1006A000CF93C82F2F9883E0B6D38C2FB4D3ACD37D
:1006B0002F9ACF910895CF93DF93D82FC62F2F98DD
:1006C00082E0A9D38D2FA7D38C2FA5D32F9ADF91AA
:1006D000CF910895682F8FE0EECF08952F989BD388
:1006E0002F9A08951F93CF93DF93182FD62FC42FDF
:1006F0002F9885E090D3812F8ED38D2F8CD38C2F84
:100700008AD32F9ADF91CF911F9108952F9880EC73
:1007100082D340E860E88FE0E5DF2F9A85E38A9591
:10072000F1F700000895CF93C82F65D3EFDF8EE077
:10073000B7DF807E803839F58C2FCCDF8EE0B0DFDC
:10074000982F907E292F30E04C2F50E0421753070E
:1007500069F01F929F938CE792E09F938F93ADD6A1
:100760000F900F900F900F9081E00EC01F928F930B
:1007700080EC92E09F938F93A0D60F900F900F90F4
:100780000F9080E001C081E0CF91089591E08A3719
:1007900008F490E0992319F0913039F00895E2E0DF
:1007A000F1E080818D7F80830895E2E0F1E0808137
:1007B00082608083089591E08F3708F490E0992358
:1007C00019F0913031F008C09EE7981B892F16CEA2
:1007D00008958F5713CE08958F5710CE08950ECEDB
:1007E0000895E2E0F1E080818F7B80838FE193E0E8
:1007F0000197F1F700C00000808180648083089534
:10080000E1E0F1E0808180618083A2E0B1E08C9141
:1008100080618C938081826080838081806280830C
:10082000808188608083808180648083DADFE7E074
:10083000F1E080818E7F808380818D7F80838081C5
:100840008B7F80838081877F808380818F7E808380
:1008500080818F7D808380818F7B808380818F7773
:1008600080830895CF93DF93E2E0F1E090819F7D54
:100870009083908198609083EFEEF0E03197F1F7EC
:1008800000C00000D0910601E2E0F1E09081977F86
:100890009083EFEEF0E03197F1F700C00000C091D7
:1008A000060181119EDFE2E0F1E0808180628083B9
:1008B0008D2F90E09C2BDF91CF910895CF93DF9304
:1008C00085E164DF80E077DF80E0CCDFEC012FEFB3
:1008D00083EF91E0215080409040E1F700C000009C
:1008E00080E0C0DF8C179D0711F0EC01F0CF8EE7A0
:1008F00062DF2FEF89E698E1215080409040E1F7D8
:1009000000C000006EDF8BEF92E0EDD5DF91CF915C
:1009100008951F920F920FB60F9211248F9381E0CA
:10092000809358038F910F900FBE0F901F901895D2
:10093000CF92DF92EF92FF92CF93DF938091580393
:10094000882309F4F8C0E0E7F0E080818E7F80839F
:1009500080E088DFEC01DF93CF938FEF92E09F93ED
:100960008F93ABD58091560390915703BE01681BBE
:10097000790B882777FD8095982F29D46B017C010E
:100980006091160270911702882777FD8095982F45
:100990001ED49B01AC01C701B6017ED320E030E03C
:1009A0004FE753E4C8D46B017C01E3D37F936F938B
:1009B0008CE093E09F938F9380D5C0915403D091A6
:1009C00055038DB79EB708960FB6F8949EBF0FBE1D
:1009D0008DBFCF3DD10524F4CE31D10524F005C023
:1009E000CEEDD0E002C0CEE1D0E0C701B601BCD36D
:1009F000C61BD70BBE01882777FD8095982FE7D3BC
:100A00006B017C012091060230910702409108029F
:100A10005091090290D49B01AC01609150037091F8
:100A200051038091520390915303CED260935003AF
:100A3000709351038093520390935303DF93CF93AA
:100A400086E193E09F938F9338D50F900F900F908E
:100A50000F901C161D0644F0109250031092510383
:100A600010925203109253032091120230911302FC
:100A70004091140250911502C701B6015CD46B017C
:100A80007C012091500330915103409152035091C9
:100A9000530360910E0270910F02809110029091A9
:100AA000110249D49B01AC01C701B6018DD26B0183
:100AB0007C0180914E0390914F03BE01681B790B1E
:100AC000882777FD8095982F82D320910602309158
:100AD00007024091080250910902DED220910A02D9
:100AE00030910B0240910C0250910D0224D49B01D5
:100AF000AC01C701B60168D237D3F62E262F372FA7
:100B0000D0934F03C0934E0333232CF487E13EDE92
:100B1000CF2DC19503C08CE839DECF2D1F92CF9326
:100B200021E233E03F932F93C8D48C2F58DE0F90EF
:100B30000F900F900F9010925803E0E7F0E0808143
:100B400081608083DF91CF91FF90EF90DF90CF9015
:100B5000089590935503809354030895CF93DF93A2
:100B6000CDB7DEB766970FB6F894DEBF0FBECDBF28
:100B700082E090E09D878C878E871F86188AF1DC43
:100B8000CE010C962ADB34DD888BCE01019651DB39
:100B9000882389F08C81FADD8C810DDE8FE7D8D037
:100BA0008E8123D18FE39CE90197F1F700C000000B
:100BB000CE010C9612DB41DD882329F38F87CE010D
:100BC0000C960BDB66960FB6F894DEBF0FBECDBF5A
:100BD000DF91CF910895CF93DF93CDB7DEB76697BE
:100BE0000FB6F894DEBF0FBECDBF82E090E09D87C8
:100BF0008C878E871F86188A61DEB3DCCE010C9647
:100C0000ECDAF6DC888BCE01019613DB882389F0C1
:100C1000888990E09EDF8CDE8FE79AD08E81E5D0C8
:100C20008FE39CE90197F1F700C00000CE010C961C
:100C3000D4DA03DD882329F38F87CE010C96CDDA31
:100C400066960FB6F894DEBF0FBECDBFDF91CF9191
:100C50000895882319F0813019F008957FCF089501
:100C6000BACF0895CF92DF92EF92FF926B017C0191
:100C7000E1E8F0E080818460808380818D7F8083E3
:100C800080818E7F80836091590370915A0380E048
:100C900090E09BD2A70196014ED36BD27093870050
:100CA00060938600FF90EF90DF90CF9008950F93B0
:100CB0001F93E1E8F0E0A081A061A083A081A8607B
:100CC000A083E0E8F0E0A081A260A083A081AE7FD5
:100CD000A083A081A062A083A081AF7EA083032F08
:100CE000142F252F332710935A0300935903BADF8B
:100CF000269A1F910F910895CF92DF92EF92FF9263
:100D00006B017C016091590370915A0380E090E07F
:100D10005CD2A70196010FD320E030E040E05FE312
:100D200052D127D270938B0060938A00FF90EF908E
:100D3000DF90CF9008959B01AC016AE077ED83EAE4
:100D40009CE3B5DF66EA7BE984EC9AE3D5CF0895AE
:100D5000CF92DF92EF92FF92282F30E02552310997
:100D600033230CF08552682F70E080E090E02DD2A4
:100D70002DEA34EB4EE458E48FD12AEF3DEE4BE6FA
:100D80005AE322D16B017C012CE639E049E75AE3B2
:100D90007FD1882354F02BE439E546E05BE3C701BB
:100DA000B601C5D2181664F015C00F2EFCE6CF2E82
:100DB000F9E0DF2EF9E7EF2EFAE3FF2EF02D0AC05F
:100DC0000F2EFBE4CF2EF9E5DF2EF6E0EF2EFBE34E
:100DD000FF2EF02DC701B6018FDFFF90EF90DF905F
:100DE000CF900895249A2C9A0895882311F02C9876
:100DF00008952C9A089584B1876884B981E18CBDE7
:100E00008CB580648CBD08958FEF8EBD0DB407FE48
:100E1000FDCF8EB508958EBD0DB407FEFDCF0895AC
:100E20008CE08093B8008FEF8093BB0084E08093C8
:100E3000BC000895ECEBF0E0208120FDFDCF609335
:100E40005D03FC01208120935E0320FD0CC0623015
:100E500050F0DC011196EFE5F3E081E09D91919374
:100E60008F5F8613FBCF10925C0388EF809318028C
:100E700085EA8093BC0008951F920F920FB60F92DF
:100E800011240BB60F922F933F938F939F93AF93A1
:100E9000BF93EF93FF938091B90090E0FC013897E6
:100EA000E135F10508F055C0EE58FF4FA7C210928A
:100EB0005B03E0915B0380915D03E81770F481E0D0
:100EC0008E0F80935B03F0E0E25AFC4F80818093A9
:100ED000BB0085E88093BC0043C080915C038160C7
:100EE00080935C0384E98093BC003AC0E0915B038B
:100EF00081E08E0F80935B038091BB00F0E0E25AAB
:100F0000FC4F808320915B0330E080915D0390E093
:100F100001972817390724F485EC8093BC0020C082
:100F200085E88093BC001CC08091BB00E0915B030E
:100F3000F0E0E25AFC4F808380915C0381608093F3
:100F40005C0384E98093BC000BC085EA8093BC00FD
:100F500007C08091B9008093180284E08093BC00A0
:100F6000FF91EF91BF91AF919F918F913F912F9101
:100F70000F900BBE0F900FBE0F901F901895E0ECD6
:100F8000F0E0908195FFFDCF8093C60080E090E077
:100F90000895E0ECF0E080818823ECF78091C600B2
:100FA00090E008951092C50087E68093C40088E120
:100FB0008093C1008EE08093C20069EC77E08FEBF4
:100FC00097E031C208955058BB27AA270ED075C1AB
:100FD00066D130F06BD120F031F49F3F11F41EF454
:100FE0005BC10EF4E095E7FB51C1E92F77D180F3A7
:100FF000BA17620773078407950718F071F49EF516
:101000008FC10EF4E0950B2EBA2FA02D0B01B90164
:1010100090010C01CA01A0011124FF27591B99F06E
:10102000593F50F4503E68F11A16F040A22F232F7A
:10103000342F4427585FF3CF469537952795A795CA
:10104000F0405395C9F77EF41F16BA0B620B730B71
:10105000840BBAF09150A1F0FF0FBB1F661F771FE2
:10106000881FC2F70EC0BA0F621F731F841F48F497
:10107000879577956795B795F7959E3F08F0B3CF1D
:101080009395880F08F09927EE0F97958795089507
:10109000D9D008F481E008950CD00FC107D140F0F9
:1010A000FED030F021F45F3F19F0F0C0511139C18A
:1010B000F3C014D198F39923C9F35523B1F3951BC9
:1010C000550BBB27AA2762177307840738F09F5F69
:1010D0005F4F220F331F441FAA1FA9F333D00E2ED8
:1010E0003AF0E0E830D091505040E695001CCAF745
:1010F00029D0FE2F27D0660F771F881FBB1F26170A
:1011000037074807AB07B0E809F0BB0B802DBF01DC
:10111000FF2793585F4F2AF09E3F510568F0B6C0F5
:1011200000C15F3FECF3983EDCF3869577956795B9
:10113000B795F7959F5FC9F7880F911D969587958D
:1011400097F90895E1E0660F771F881FBB1F6217AC
:1011500073078407BA0720F0621B730B840BBA0B6A
:10116000EE1F88F7E095089504D06894B111D9C0B6
:101170000895BCD088F09F5790F0B92F9927B751A8
:10118000A0F0D1F0660F771F881F991F1AF0BA954B
:10119000C9F712C0B13081F0C3D0B1E00895C0C02A
:1011A000672F782F8827B85F39F0B93FCCF3869541
:1011B00077956795B395D9F73EF49095809570959E
:1011C00061957F4F8F4F9F4F0895E89409C097FB1B
:1011D0003EF490958095709561957F4F8F4F9F4F0E
:1011E0009923A9F0F92F96E9BB279395F695879552
:1011F00077956795B795F111F8CFFAF4BB0F11F415
:1012000060FF1BC06F5F7F4F8F4F9F4F16C08823BB
:1012100011F096E911C0772321F09EE8872F762FF1
:1012200005C0662371F096E8862F70E060E02AF032
:101230009A95660F771F881FDAF7880F969587951E
:1012400097F90895990F0008550FAA0BE0E8FEEFF3
:1012500016161706E807F907C0F012161306E4077A
:10126000F50798F0621B730B840B950B39F40A2673
:1012700061F0232B242B252B21F408950A2609F451
:10128000A140A6958FEF811D811D089597F99F6755
:1012900080E870E060E008959FEF80EC08950024FE
:1012A0000A941616170618060906089500240A94CB
:1012B00012161306140605060895092E0394000C51
:1012C00011F4882352F0BB0F40F4BF2B11F460FFE0
:1012D00004C06F5F7F4F8F4F9F4F089557FD905809
:1012E000440F551F59F05F3F71F04795880F97FBEA
:1012F000991F61F09F3F79F08795089512161306A4
:101300001406551FF2CF4695F1DF08C016161706D2
:101310001806991FF1CF8695710561050894089507
:10132000E894BB2766277727CB0197F908958ADFD2
:1013300008F48FEF08950BD0C0CFB1DF28F0B6DFEF
:1013400018F0952309F0A2CFA7CF1124EACFC6DF6A
:10135000A0F3959FD1F3950F50E0551F629FF001C8
:10136000729FBB27F00DB11D639FAA27F00DB11D21
:10137000AA1F649F6627B00DA11D661F829F2227AA
:10138000B00DA11D621F739FB00DA11D621F839F31
:10139000A00D611D221F749F3327A00D611D231F07
:1013A000849F600D211D822F762F6A2F11249F5755
:1013B00050408AF0E1F088234AF0EE0FFF1FBB1F78
:1013C000661F771F881F91505040A9F79E3F510517
:1013D00070F05CCFA6CF5F3FECF3983EDCF38695D0
:1013E00077956795B795F795E7959F5FC1F7FE2BC2
:1013F000880F911D9695879597F90895EE0FFF1F19
:101400000590F491E02D1994A29FB001B39FC00103
:10141000A39F700D811D1124911DB29F700D811D20
:101420001124911D08950F931F93CF93DF93EC0127
:101430008B01009731F46115710519F480E090E09B
:1014400037C06EE070E081E090E068D2FC01009768
:10145000A9F380E883830115110571F013870287D2
:1014600081E883838091620390916303892B21F447
:10147000F0936303E09362032097C9F0D187C0879C
:101480008381826083838091640390916503892BBB
:1014900071F4F0936503E093640380916603909187
:1014A0006703892B21F4F0936703E0936603CF0170
:1014B000DF91CF911F910F910895CF93DF93CDB717
:1014C000DEB7FE01369661917191AF0180916403A0
:1014D0009091650335D0DF91CF91089560916403B9
:1014E0007091650379C30F931F93CF93DF93E091BE
:1014F0006403F0916503238121FF1BC0EC0100E030
:1015000010E089916091640370916503DB01189686
:10151000ED91FC911997882331F01995892B89F366
:101520000FEF1FEFEECF8AE01995892B11F4C80158
:1015300002C08FEF9FEFDF91CF911F910F91089520
:101540002F923F924F925F926F927F928F929F92D3
:10155000AF92BF92CF92DF92EF92FF920F931F93C1
:10156000CF93DF93CDB7DEB72C970FB6F894DEBFDD
:101570000FBECDBF7C016B018A01FC011782168270
:10158000838181FFB0C1CE0101964C01F7019381A7
:10159000F60193FD859193FF81916F01882309F4F2
:1015A0009EC1853239F493FD859193FF81916F013E
:1015B000853221F4B70190E00FD3E8CF512C312CC4
:1015C00020E02032A0F48B3269F030F4803259F000
:1015D000833269F420612CC08D3239F0803339F4C4
:1015E000216026C02260246023C0286021C027FD1E
:1015F00027C030ED380F3A3078F426FF06C0FAE005
:101600005F9E300D1124532E13C08AE0389E300D9A
:101610001124332E20620CC08E3221F426FD5FC1CE
:10162000206406C08C3611F4206802C0883641F46C
:10163000F60193FD859193FF81916F018111C1CFD7
:10164000982F9F7D9554933028F40C5F1F4FFFE334
:10165000F9830DC0833631F0833771F0833509F09B
:1016600057C021C0F801808189830E5F1F4F442439
:101670004394512C540114C03801F2E06F0E711CD8
:10168000F801A080B18026FF03C0652D70E002C084
:101690006FEF7FEFC5012C8794D22C0183012C853D
:1016A0002F77222E16C03801F2E06F0E711CF80160
:1016B000A080B18026FF03C0652D70E002C06FEFEF
:1016C0007FEFC5012C876BD22C012C852068222E40
:1016D000830123FC19C0832D90E048165906A0F41D
:1016E000B70180E290E078D23A94F5CFF50127FC7B
:1016F000859127FE81915F01B70190E06DD2311095
:101700003A94F1E04F1A51084114510479F7DEC0C0
:10171000843611F0893631F5F80127FF07C0608162
:101720007181828193810C5F1F4F08C0608171813C
:10173000882777FD8095982F0E5F1F4F2F76B22E4A
:1017400097FF09C090958095709561957F4F8F4F59
:101750009F4F2068B22E2AE030E0A4016FD2A82E5D
:10176000A81843C0853729F42F7EB22E2AE030E036
:1017700025C0F22FF97FBF2E8F36C1F018F48835BF
:1017800079F0ADC0803719F0883721F0A8C02F2F2D
:101790002061B22EB4FE0DC08B2D8460B82E09C01E
:1017A00024FF0AC09F2F9660B92E06C028E030E0C3
:1017B00005C020E130E002C020E132E0F801B7FED0
:1017C00007C060817181828193810C5F1F4F06C0C9
:1017D0006081718180E090E00E5F1F4FA4012ED2E6
:1017E000A82EA818FB2DFF77BF2EB6FE0BC02B2D01
:1017F0002E7FA51450F4B4FE0AC0B2FC08C02B2DF5
:101800002E7E05C07A2C2B2D03C07A2C01C0752C9E
:1018100024FF0DC0FE01EA0DF11D8081803311F41B
:10182000297E09C022FF06C07394739404C0822FDE
:10183000867809F0739423FD12C020FF06C05A2C4D
:10184000731418F4530C5718732C731460F4B70105
:1018500080E290E02C87C0D173942C85F6CF73146E
:1018600010F4371801C0312C24FF11C0B70180E3F8
:1018700090E02C87B1D12C8522FF16C021FF03C038
:1018800088E590E002C088E790E0B7010CC0822FA5
:10189000867851F021FD02C080E201C08BE227FD75
:1018A0008DE2B70190E098D1A51430F4B70180E340
:1018B00090E092D15A94F8CFAA94F401EA0DF11D68
:1018C0008081B70190E088D1A110F6CF332009F4D0
:1018D0005DCEB70180E290E07FD13A94F7CFF70177
:1018E0008681978102C08FEF9FEF2C960FB6F894F8
:1018F000DEBF0FBECDBFDF91CF911F910F91FF9043
:10190000EF90DF90CF90BF90AF909F908F907F909F
:101910006F905F904F903F902F9008950F931F937B
:10192000CF93DF93869F8001879F100D969F100DA8
:101930001124C8010DD0EC01009721F0A80160E04E
:1019400070E038D1CE01DF91CF911F910F910895B2
:10195000CF93DF938230910510F482E090E0E09124
:101960006A03F0916B0320E030E0A0E0B0E0309734
:1019700039F14081518148175907B8F04817590784
:1019800071F482819381109729F013969C938E9322
:1019900012972CC090936B0380936A0327C0211584
:1019A000310531F04217530718F0A901DB0101C0DE
:1019B000EF019A01BD01DF010280F381E02DD7CF55
:1019C00021153105F9F0281B390B2430310580F43D
:1019D0008A819B816115710521F0FB0193838283CC
:1019E00004C090936B0380936A03FE01329644C057
:1019F000FE01E20FF31F8193919322503109398345
:101A000028833AC02091680330916903232B41F465
:101A100020910202309103023093690320936803FE
:101A200020910002309101022115310541F42DB7BA
:101A30003EB74091040250910502241B350BE09102
:101A40006803F0916903E217F307A0F42E1B3F0B24
:101A50002817390778F0AC014E5F5F4F2417350720
:101A600048F04E0F5F1F50936903409368038193C2
:101A7000919302C0E0E0F0E0CF01DF91CF910895B3
:101A8000CF93DF93009709F487C0FC01329713824C
:101A90001282C0916A03D0916B03209781F4208158
:101AA0003181280F391F8091680390916903821753
:101AB000930779F5F0936903E09368036DC0DE0145
:101AC00020E030E0AE17BF0750F412964D915C91C4
:101AD00013979D014115510509F1DA01F3CFB38345
:101AE000A28340815181840F951F8A179B0771F44F
:101AF0008D919C911197840F951F029691838083FD
:101B000012968D919C9113979383828321153105B1
:101B100029F4F0936B03E0936A033EC0D901139656
:101B2000FC93EE9312974D915D91A40FB51FEA17A8
:101B3000FB0779F480819181840F951F0296D9016A
:101B400011969C938E938281938113969C938E938E
:101B50001297E0E0F0E08A819B81009719F0FE0186
:101B6000EC01F9CFCE01029628813981820F931FB3
:101B700020916803309169032817390769F4309779
:101B800029F410926B0310926A0302C0138212822E
:101B9000D0936903C0936803DF91CF910895FC014E
:101BA0000590615070400110D8F7809590958E0F88
:101BB0009F1F0895DC0101C06D9341505040E0F734
:101BC0000895FC016150704001900110D8F7809594
:101BD00090958E0F9F1F08950F931F93CF93DF93C0
:101BE000182F092FEB018B8181FD03C08FEF9FEF31
:101BF00020C082FF10C04E815F812C813D81421741
:101C000053077CF4E881F9819F012F5F3F4F3983AF
:101C10002883108306C0E885F985812F1995892BC3
:101C200029F72E813F812F5F3F4F3F832E83812FE6
:101C3000902FDF91CF911F910F910895FA01AA275C
:101C4000283051F1203181F1E8946F936E7F6E5FFF
:101C50007F4F8F4F9F4FAF4FB1E03ED0B4E03CD0AD
:101C6000670F781F891F9A1FA11D680F791F8A1F90
:101C7000911DA11D6A0F711D811D911DA11D20D0F7
:101C800009F468943F912AE0269F11243019305DB1
:101C90003193DEF6CF010895462F4770405D4193A2
:101CA000B3E00FD0C9F7F6CF462F4F70405D4A33EF
:101CB00018F0495D31FD4052419302D0A9F7EACFB7
:101CC000B4E0A6959795879577956795BA95C9F7E6
:101CD00000976105710508959B01AC010A2E0694D9
:101CE0005795479537952795BA95C9F7620F731F92
:0C1CF000841F951FA01D0895F894FFCFDD
:101CFC0000006C0320006F12833C000000400000C9
:101D0C00003F0000803FA0DDF843414E206D73671B
:101D1C002049443A202564200A0043414E206D732B
:101D2C0067206C656E6774683A202564200A00434E
:101D3C00414E206D736720646174613A20004952F2
:101D4C00303A2025642009004952313A202564207C
:101D5C0009004952305F6C6F773A202564090049BD
:101D6C0052315F6C6F773A2025640A004D43503234
:101D7C00353135206973204E4F5420696E20636FC6
:101D8C007272656374206D6F646520616674657230
:101D9C00207265736574212049747320636F6E66BD
:101DAC0069672062697473206172652025780A0066
:101DBC004D4350323531352069732020696E206CCB
:101DCC006F6F706261636B206D6F64652061667408
:101DDC006572207265736574212063616E73746122
:101DEC00743A203078253032780A006865690045ED
:101DFC006E636F6465723A20256409004D616C74E2
:101E0C003A20256409004572726F723A20256409E4
:101E1C00005472756520706F7765723A2025640ADC
:021E2C000000B4
:00000001FF
