:10000000C2C00000E0C00000DEC00000E6C1000089
:10001000DAC00000D8C00000D6C00000D4C0000084
:10002000D2C00000D0C00000CEC00000CCC0000094
:10003000CAC00000C8C00000C6C0000010C4000054
:10004000C2C00000C0C00000BEC00000BCC00000B4
:10005000BAC00000B8C00000B6C00000B4C00000C4
:10006000B2C00000B0C00000AEC00000ACC00000D4
:10007000AAC00000A8C00000A6C00000A4C00000E4
:10008000A2C00000A0C000009EC000009CC00000F4
:100090009AC0000098C0000096C00000BEC60000D4
:1000A00092C0000090C000008EC000008CC0000014
:1000B0008AC0000088C0000086C0000084C0000024
:1000C00082C0000080C000007EC000007CC0000034
:1000D0007AC0000078C0000076C0000074C0000044
:1000E00072C000002B077D077D077D077D077D0718
:1000F0007D077D072B077D077D077D077D077D0732
:100100007D077D072D077D077D077D077D077D071F
:100110007D077D077D077D077D077D077D077D07BF
:100120007D077D072D077D077D077D077D077D07FF
:100130007D077D077D077D077D077D077D077D079F
:100140007D077D0779077D077D077D077D077D0793
:100150007D077D0756077D077D077D077D077D07A6
:100160007D077D077D077D077D077D077D077D076F
:100170007D077D074A077D077D077D077D077D0792
:100180007D077D07680711241FBECFEFD1E2DEBFD8
:10019000CDBF00E00CBF12E0A0E0B2E0E8E7FCE178
:1001A00000E00BBF02C007900D92A03AB107D9F74B
:1001B00022E0A0EAB2E001C01D92A83DB207E1F73B
:1001C0003DD20C943A0E1CCF80988198EAE7F0E07B
:1001D000808180688083808181608083808182606B
:1001E0008083808184608083ECE7F0E08081806898
:1001F00080838081806480830895EAE7F0E08081D5
:1002000080648083808184FFFDCF8091780020917D
:10021000790090E0922B0895882319F0813041F005
:100220000EC0ECE7F0E080818E7F8083E6CF0895FA
:10023000ECE7F0E0808181608083DFCF089580E08B
:1002400090E0089561D2F894EA9AE29A7894089539
:100250000F931F93CF938C01FC0160817181769580
:100260006795769567957695679581E315D2F80140
:1002700060816295660F607E82E30ED2F801628132
:1002800085E30AD2F8018281882369F0C0E0F80191
:10029000EC0FF11D638186E38C0FFED1CF5FF80177
:1002A0008281C817A0F381E80AD2CF911F910F91E4
:1002B00008950F931F93CF938C018091A002882300
:1002C00071F181E6DED1C82F82E6DBD12C2F30E040
:1002D000220F331F220F331F220F331F8295869563
:1002E0008770282BF8013183208385E6CAD1F80175
:1002F0008283882369F0C0E086E68C0FC2D1F801C2
:10030000EC0FF11D8383CF5FF8018281C817A0F342
:1003100040E061E08CE2D7D11092A00281E0CF9161
:100320001F910F910895CF92DF92EF92FF920F935A
:100330001F93CF93DF936C01FC0181818F938081A8
:100340008F9387E092E09F938F930E94330AF60188
:1003500082811F928F9388E192E09F938F930E94F6
:10036000330A8DE292E09F938F930E94330AF60145
:1003700082812DB73EB7265F3F4F0FB6F8943EBF40
:100380000FBE2DBF8823E1F0760133E0E30EF11CB0
:10039000C0E0D0E001E412E0F70181917F011F92FB
:1003A0008F931F930F930E94330A2196F601828147
:1003B00090E00F900F900F900F90C817D90764F33B
:1003C0008AE090E00E94460ADF91CF911F910F9141
:1003D000FF90EF90DF90CF9008951F920F920FB68D
:1003E0000F9211248F9381E08093A0028F910F9040
:1003F0000FBE0F901F9018957894E3C40895CF9383
:10040000DF9300D0CDB7DEB790E599831A828B8356
:1004100063E0CE010196DFD40F900F900F90DF9133
:10042000CF910895D1CE08950F931F93CF93DF936B
:100430008091AB0290E0C7EAD2E08C01000F111F5F
:1004400004551D4F28813981F80140815181241BB9
:10045000350B39832883880F991FFC01EC54FD4F1D
:100460008A819B8120813181821B930B9B838A83AC
:1004700080E090E0D1DEF801918380830091AB02AF
:1004800010E081E090E0C8DE000F111FF801EC548D
:10049000FD4F918380834091AB02842F90E0FC015B
:1004A000EE0FFF1FE455FD4F688179812081318176
:1004B000260F371F39832883880F991FFC01EC54BE
:1004C000FD4F6A817B8180819181860F971F9B837D
:1004D0008A834F5F443018F44093AB0202C01092FD
:1004E000AB023F932F938CE392E09F938F93BBD704
:1004F000E7EAF2E083818F9382818F9386E492E032
:100500009F938F93B0D78091A6028F938091A5027D
:100510008F9380E592E09F938F93A5D78091A4025B
:100520008F938091A3028F938DE592E09F938F9399
:100530009AD78DB79EB740960FB6F8949EBF0FBE60
:100540008DBFDF91CF911F910F9108950F931F934E
:10055000CF93DF93CEE168DFC150E9F7E7EAF2E03D
:10056000C081D181028113815FDFAE01569547952D
:100570005093A6024093A5029801220F331F220F29
:10058000331FADECBCEC16D796958795969587955D
:100590009093A4028093A3025F934F9380E592E02F
:1005A0009F938F9360D78091A4028F938091A30231
:1005B0008F938DE592E09F938F9355D78DB79EB71C
:1005C00008960FB6F8949EBF0FBE8DBFDF91CF91F6
:1005D0001F910F91089528DF2091A9023091AA025E
:1005E0008091A3029091A4022817390768F48091A2
:1005F000A10281110BC081E08093A1028091A2022F
:100600008F5F8093A20202C01092A1028091A20289
:10061000823020F01092A20281E0089580E00895D7
:1006200081E04091A7025091A8022091A50230914B
:10063000A6024217530708F080E00895CF93DF9396
:10064000CDB7DEB72B970FB6F894DEBF0FBECDBF88
:100650007DD4D2DEB0D04AD280E0F4DD60E074E236
:1006600084EF90E03DD3DEDE90D3CE01019621DE13
:100670008823D9F389819A81892BB9F78C81BED2DD
:10068000F4CFCF93C82F2F9883E096D38C2F94D399
:100690008CD32F9ACF910895CF93DF93D82FC62F65
:1006A0002F9882E089D38D2F87D38C2F85D32F9AD3
:1006B000DF91CF910895682F8FE0EECF08952F98A6
:1006C0007BD32F9A08951F93CF93DF93182FD62FA4
:1006D000C42F2F9885E070D3812F6ED38D2F6CD3CC
:1006E0008C2F6AD32F9ADF91CF911F9108952F9865
:1006F00080EC62D340E860E88FE0E5DF2F9A85E385
:100700008A95F1F700000895CF93C82F47D3EFDF04
:100710008EE0B7DF807E803861F48C2FCCDF8EE0F6
:10072000B0DF807E8C1307C063E08BE2B5DF80E032
:1007300003C081E001C081E0CF910895881F882720
:10074000881F19F0813039F00895E2E0F1E08081EE
:100750008D7F80830895E2E0F1E080818260808374
:100760000895CF93C82FEADF81E0CF3708F480E007
:10077000882319F0813029F008C08EE78C1B3FDEFA
:1007800007C081E88C0F3BDE03C081E88C0F37DEA9
:10079000CF91089534CE0895E2E0F1E080818F7B1F
:1007A00080838FE193E00197F1F700C00000808122
:1007B000806480830895E1E0F1E08081806180833E
:1007C000A2E0B1E08C9180618C9380818260808313
:1007D000259A808188608083808180648083DCDFCB
:1007E000E7E0F1E080818E7F808380818D7F808350
:1007F00080818B7F80838081877F808380818F7ED3
:10080000808380818F7D808380818F7B80838081C6
:100810008F7780830895CF93DF932D98E2E0F1E006
:10082000908198609083AFEEB0E01197F1F700C02F
:100830000000A6E0B1E0CC919081977F9083EFEE2D
:10084000F0E03197F1F700C00000DC918111A4DFE6
:100850002D9A8C2F90E09D2BDF91CF9108951F92C0
:100860000F920FB60F9211248F9381E08093BC02F8
:100870008F910F900FBE0F901F901895CF92DF921F
:10088000EF92FF920F931F93CF93DF9385E156DF93
:1008900082E367DF80E0BFDFEC0188539F4F0F2EBC
:1008A000FAE6CF2EF2E0DF2EF02D0F2EFCE7EF2E32
:1008B000F2E0FF2EF02D01C0E8019F938F93DF92AD
:1008C000CF92D1D52FEF33EF81E0215030408040DF
:1008D000E1F700C0000080E09EDF8C01DF93CF9342
:1008E000FF92EF92C0D5CE012DB73EB7285F3F4FA4
:1008F0000FB6F8943EBF0FBE2DBF08171907E1F6DB
:1009000080E02FDF8FEC97E00197F1F700C0000047
:1009100043DF86E913DF88EC24DF38E32FEFC0E004
:10092000D0E00DE812E001C0EC012F933F931F933C
:100930000F9399D59FEF23EF31E091502040304045
:10094000E1F700C0000080E066DF3C2F2D2F0F9004
:100950000F900F900F908C179D0731F7D093C40222
:10096000C093C302DF91CF911F910F91FF90EF9041
:10097000DF90CF9008958F929F92AF92BF92CF92C7
:10098000DF92EF92FF921F93CF93DF93C82F809156
:10099000BC02882309F49EC0E0E7F0E080818E7FEE
:1009A000808380E038DFBC01990F880B990BE3D37B
:1009B0006B017C016091C3027091C402072E000C90
:1009C000880B990BD8D39B01AC01C701B60138D372
:1009D00020E030E04FE753E482D4C13F20F4CA3036
:1009E00018F4CAE001C0C0EFD0E092D3C61BD70B09
:1009F000BE010D2E000C880B990BBDD36B017C0141
:100A00002097C9F02FE632E143E85CE368D49B010C
:100A1000AC016091BF027091C0028091C1029091BF
:100A2000C202A6D26093BF027093C0028093C1023B
:100A30009093C20208C01092BF021092C00210929E
:100A4000C1021092C2028091BD029091BE02BE010D
:100A5000681B790B072E000C880B990B8CD32FE6A3
:100A600032E143E85CE3ECD22AE037ED43E25CE3B9
:100A700036D44B015C0120E030E040E251E460916B
:100A8000BF027091C0028091C1029091C20227D42E
:100A9000A70196016DD29B01AC01C501B40168D2DA
:100AA00037D3162F262F372FD093BE02C093BD0207
:100AB00033232CF487E142DE812F819503C08CE83B
:100AC0003DDE812F67DE1092BC02E0E7F0E080811E
:100AD00081608083DF91CF911F91FF90EF90DF9035
:100AE000CF90BF90AF909F908F900895F89481E041
:100AF0008093700087E08093B10078940895CF933D
:100B0000DF93CDB7DEB766970FB6F894DEBF0FBEA2
:100B1000CDBF82E090E09D878C878E871F86188AE4
:100B200015DDCE010C9694DB56DD888BCE01019647
:100B3000C0DB882379F08C8114DE8FE7DED08E81D4
:100B400027D18FE39CE90197F1F700C00000CE01A7
:100B50000C967EDB65DD882339F38F87CE010C96FA
:100B6000E2DBCE010C9674DB66960FB6F894DEBF1E
:100B70000FBECDBFDF91CF910895CF93DF93CDB757
:100B8000DEB766970FB6F894DEBF0FBECDBF82E02A
:100B900090E09D878C878E871F86188A6FDED6DC53
:100BA000CE010C9655DB17DD888BCE01019681DBDB
:100BB000882379F08D81DFDE8C819FD08E81E8D013
:100BC0008FE39CE90197F1F700C00000CE010C967D
:100BD0003FDB26DD882339F38F878FE7C2DDCE0127
:100BE0000C96A1DBCE010C9633DB66960FB6F8941B
:100BF000DEBF0FBECDBFDF91CF910895882319F0DE
:100C0000813019F008957BCF0895B7CF0895CF9222
:100C1000DF92EF92FF926B017C01E1E8F0E08081CE
:100C20008460808380818D7F808380818E7F8083BC
:100C30006091C5027091C60280E090E09AD2A7014F
:100C400096014DD36AD27093870060938600FF901F
:100C5000EF90DF90CF9008950F931F93E1E8F0E0BD
:100C6000A081A061A083A081A860A083E0E8F0E05B
:100C7000A081A260A083A081AE7FA083A081A0629A
:100C8000A083A081AF7EA083032F142F252F3327AD
:100C90001093C6020093C502BADF269A1F910F91E6
:100CA0000895CF92DF92EF92FF926B017C016091E9
:100CB000C5027091C60280E090E05BD2A701960168
:100CC0000ED320E030E040E05FE351D126D27093B4
:100CD0008B0060938A00FF90EF90DF90CF90089593
:100CE0009B01AC016AE077ED83EA9CE3B5DF66EA3D
:100CF0007BE984EC9AE3D5CF0895CF92DF92EF920F
:100D0000FF92282F30E0255231090AF08552682FD2
:100D100070E080E090E02DD22DEA34EB4EE458E410
:100D20008FD12AEF3DEE4BE65AE322D16B017C01D5
:100D30002CE639E049E75AE37FD18823A4F02BE47D
:100D400039E546E05BE3C701B601C5D21816ACF43D
:100D50000F2EFBE4CF2EF9E5DF2EF6E0EF2EFBE3BE
:100D6000FF2EF02D0AC00F2EFCE6CF2EF9E0DF2E6D
:100D7000F9E7EF2EFAE3FF2EF02DC701B60191DF60
:100D8000FF90EF90DF90CF900895249A2C9A0895C9
:100D9000882311F02C9808952C9A089584B18768BF
:100DA00084B98CB581658CBD08958FEF8EBD0DB46F
:100DB00007FEFDCF8EB508958EBD0DB407FEFDCFA5
:100DC00008958CE08093B8008FEF8093BB0084E09F
:100DD0008093BC000895DC01ECEBF0E0908190FD85
:100DE000FDCF6093C9028C918093CA0280FD0CC034
:100DF000623050F0FD013196ABECB2E081E09191B0
:100E00009D938F5F6813FBCF1092C80288EF809389
:100E1000060285EA8093BC0008951F920F920FB6D8
:100E20000F9211240BB60F922F933F938F939F93A2
:100E3000AF93BF93EF93FF93E091B9008E2F90E0B3
:100E4000FC013897E135F10508F057C08827EE58C6
:100E5000FF4F8F4FA7C21092C702E091C702809147
:100E6000C902E81770F481E08E0F8093C702F0E0AA
:100E7000E653FD4F80818093BB0085E88093BC00E2
:100E800043C08091C80281608093C80284E9809346
:100E9000BC003AC0E091C70281E08E0F8093C70288
:100EA0008091BB00F0E0E653FD4F80832091C702A4
:100EB00030E08091C90290E001972817390724F4A7
:100EC00085EC8093BC0020C085E88093BC001CC0EA
:100ED0008091BB00E091C702F0E0E653FD4F8083B4
:100EE0008091C80281608093C80284E98093BC002D
:100EF0000BC085EA8093BC0007C08091B900809345
:100F0000060284E08093BC00FF91EF91BF91AF9106
:100F10009F918F913F912F910F900BBE0F900FBE1D
:100F20000F901F901895E0ECF0E0908195FFFDCFB9
:100F30008093C60080E090E00895E0ECF0E08081CE
:100F40008823ECF78091C60090E008951092C500C8
:100F500087E68093C40088E18093C1008EE080938F
:100F6000C2006DE977E083E997E033C208955058F5
:100F7000BB27AA270ED075C166D130F06BD120F007
:100F800031F49F3F11F41EF45BC10EF4E095E7FBD2
:100F900051C1E92F77D180F3BA176207730784072D
:100FA000950718F071F49EF58FC10EF4E0950B2EA5
:100FB000BA2FA02D0B01B90190010C01CA01A001AB
:100FC0001124FF27591B99F0593F50F4503E68F106
:100FD0001A16F040A22F232F342F4427585FF3CF47
:100FE000469537952795A795F0405395C9F77EF418
:100FF0001F16BA0B620B730B840BBAF09150A1F061
:10100000FF0FBB1F661F771F881FC2F70EC0BA0FE6
:10101000621F731F841F48F4879577956795B7956E
:10102000F7959E3F08F0B3CF9395880F08F0992766
:10103000EE0F979587950895D9D008F481E008952B
:101040000CD00FC107D140F0FED030F021F45F3F4B
:1010500019F0F0C0511139C1F3C014D198F399239C
:10106000C9F35523B1F3951B550BBB27AA2762176C
:101070007307840738F09F5F5F4F220F331F441FB1
:10108000AA1FA9F333D00E2E3AF0E0E830D09150E9
:101090005040E695001CCAF729D0FE2F27D0660FD6
:1010A000771F881FBB1F261737074807AB07B0E815
:1010B00009F0BB0B802DBF01FF2793585F4F2AF02B
:1010C0009E3F510568F0B6C000C15F3FECF3983E0B
:1010D000DCF3869577956795B795F7959F5FC9F788
:1010E000880F911D9695879597F90895E1E0660F11
:1010F000771F881FBB1F621773078407BA0720F08A
:10110000621B730B840BBA0BEE1F88F7E0950895F2
:1011100004D06894B111D9C00895BCD088F09F570D
:1011200090F0B92F9927B751A0F0D1F0660F771F33
:10113000881F991F1AF0BA95C9F712C0B13081F013
:10114000C3D0B1E00895C0C0672F782F8827B85F5B
:1011500039F0B93FCCF3869577956795B395D9F774
:101160003EF490958095709561957F4F8F4F9F4F7E
:101170000895E89409C097FB3EF49095809570958A
:1011800061957F4F8F4F9F4F9923A9F0F92F96E9D3
:10119000BB279395F695879577956795B795F11148
:1011A000F8CFFAF4BB0F11F460FF1BC06F5F7F4FE5
:1011B0008F4F9F4F16C0882311F096E911C07723F7
:1011C00021F09EE8872F762F05C0662371F096E800
:1011D000862F70E060E02AF09A95660F771F881FCF
:1011E000DAF7880F9695879597F90895990F000873
:1011F000550FAA0BE0E8FEEF16161706E807F907E9
:10120000C0F012161306E407F50798F0621B730B83
:10121000840B950B39F40A2661F0232B242B252B04
:1012200021F408950A2609F4A140A6958FEF811DA7
:10123000811D089597F99F6780E870E060E0089548
:101240009FEF80EC089500240A94161617061806DE
:101250000906089500240A941216130614060506BA
:101260000895092E0394000C11F4882352F0BB0F4B
:1012700040F4BF2B11F460FF04C06F5F7F4F8F4FAE
:101280009F4F089557FD9058440F551F59F05F3FE9
:1012900071F04795880F97FB991F61F09F3F79F098
:1012A00087950895121613061406551FF2CF46951A
:1012B000F1DF08C0161617061806991FF1CF86959C
:1012C0007105610508940895E894BB276627772780
:1012D000CB0197F908958ADF08F48FEF08950BD0BA
:1012E000C0CFB1DF28F0B6DF18F0952309F0A2CF08
:1012F000A7CF1124EACFC6DFA0F3959FD1F3950FB6
:1013000050E0551F629FF001729FBB27F00DB11D89
:10131000639FAA27F00DB11DAA1F649F6627B00D19
:10132000A11D661F829F2227B00DA11D621F739F02
:10133000B00DA11D621F839FA00D611D221F749F10
:101340003327A00D611D231F849F600D211D822F57
:10135000762F6A2F11249F5750408AF0E1F088239E
:101360004AF0EE0FFF1FBB1F661F771F881F9150AB
:101370005040A9F79E3F510570F05CCFA6CF5F3F6C
:10138000ECF3983EDCF3869577956795B795F795DE
:10139000E7959F5FC1F7FE2B880F911D9695879566
:1013A00097F90895EE0FFF1F881F8BBF0790F691E6
:1013B000E02D1994A29FB001B39FC001A39F700DAF
:1013C000811D1124911DB29F700D811D1124911D4D
:1013D00008950F931F93CF93DF93009731F4611516
:1013E000710519F480E090E039C08B01EC016EE0EA
:1013F00070E081E090E04CD2FC01892B99F380E809
:1014000083830115110571F01387028781E88383B7
:101410008091CE029091CF02892B21F4F093CF02DC
:10142000E093CE022097C9F0D187C0878381826084
:1014300083838091D0029091D102892B71F4F09333
:10144000D102E093D0028091D2029091D302892BF5
:1014500021F4F093D302E093D202CF01DF91CF9138
:101460001F910F910895CF93DF93CDB7DEB7AE01F3
:101470004A5F5F4FFA0161917191AF018091D00293
:101480009091D10208D0DF91CF9108956091D00260
:101490007091D10255C32F923F924F925F926F92FB
:1014A0007F928F929F92AF92BF92CF92DF92EF92F4
:1014B000FF920F931F93CF93DF93CDB7DEB72B9798
:1014C0000FB6F894DEBF0FBECDBF6C017B018A0161
:1014D000FC0117821682838181FFBFC1CE01019674
:1014E0003C01F6019381F70193FD859193FF819172
:1014F0007F01882309F4ADC1853239F493FD8591CC
:1015000093FF81917F01853221F4B60190E018D3D9
:10151000E8CF912C212C312CFFE1F315D8F08B3240
:1015200079F038F4803279F08332A1F4232D2061F0
:101530001DC08D3261F0803369F4232D216016C007
:10154000832D8260382EE32DE4603E2E2AC0F32DD9
:10155000F8601DC037FC2DC020ED280F2A3040F068
:101560008E32B9F436FC75C1232D2064322E19C099
:1015700036FE06C08AE0989E200D1124922E11C0DE
:10158000EAE02E9E200D1124222EF32DF0623F2E34
:1015900008C08C3621F4832D8068382E02C088362E
:1015A00041F4F70193FD859193FF81917F018111B2
:1015B000B3CF982F9F7D9554933028F40C5F1F4F25
:1015C0009FE399830DC0833631F0833771F0833503
:1015D00009F055C020C0F801808189830E5F1F4F3C
:1015E00088248394912C530112C02801F2E04F0EFD
:1015F000511CF801A080B18036FE03C0692D70E057
:1016000002C06FEF7FEFC50190D24C018201F32D34
:10161000FF773F2E15C0280122E0420E511CF80131
:10162000A080B18036FE03C0692D70E002C06FEF6C
:101630007FEFC50168D24C01F32DF0683F2E820187
:1016400033FC19C0822D90E088169906A0F4B601EB
:1016500080E290E075D22A94F5CFF50137FC8591B0
:1016600037FE81915F01B60190E06AD221102A9481
:1016700021E0821A91088114910479F7E1C084363F
:1016800011F0893639F5F80137FE07C060817181A4
:10169000828193810C5F1F4F08C060817181072E8A
:1016A000000C880B990B0E5F1F4FF32DFF763F2E1A
:1016B00097FF09C090958095709561957F4F8F4FEA
:1016C0009F4FF0683F2E2AE030E0A30175D2882EAC
:1016D000861844C0853731F4232D2F7EB22E2AE0A0
:1016E00030E025C0932D997FB92E8F36C1F018F4C4
:1016F000883579F0AEC0803719F0883721F0A9C05D
:10170000E92FE061BE2EB4FE0DC0FB2DF460BF2EAC
:1017100009C034FE0AC0292F2660B22E06C028E078
:1017200030E005C020E130E002C020E132E0F80105
:10173000B7FE07C060817181828193810C5F1F4F6A
:1017400006C06081718180E090E00E5F1F4FA301B1
:1017500033D2882E8618FB2DFF773F2E36FE0DC024
:10176000232D2E7FA22E891458F434FE0BC032FC98
:1017700009C0832D8E7EA82E05C0B82CA32C03C0D3
:10178000B82C01C0B92CA4FE0FC0FE01E80DF11D5C
:101790008081803321F49A2D997EA92E09C0A2FE62
:1017A00006C0B394B39404C08A2D867809F0B3942C
:1017B000A3FC10C0A0FE06C0B21480F4280C922C2A
:1017C0009B180DC0B21458F4B60180E290E0B8D175
:1017D000B394F8CFB21418F42B1802C0982C212C13
:1017E000A4FE0FC0B60180E390E0AAD1A2FE16C00D
:1017F000A1FC03C088E790E002C088E590E0B60154
:101800000CC08A2D867851F0A1FE02C08BE201C087
:1018100080E2A7FC8DE2B60190E092D1891430F409
:10182000B60180E390E08CD19A94F8CF8A94F301CA
:10183000E80DF11D8081B60190E082D18110F6CFD4
:10184000222009F44ECEB60180E290E079D12A94AC
:10185000F7CFF6018681978102C08FEF9FEF2B961D
:101860000FB6F894DEBF0FBECDBFDF91CF911F91B1
:101870000F91FF90EF90DF90CF90BF90AF909F902F
:101880008F907F906F905F904F903F902F90089532
:101890000F931F93CF93DF93869F8001879F100D37
:1018A000969F100D1124C8010DD0EC01009721F076
:1018B000A80160E070E032D1CE01DF91CF911F919D
:1018C0000F9108950F931F93CF93DF93823091056B
:1018D00010F482E090E0E091D602F091D70220E08F
:1018E00030E0A0E0B0E0309719F1408151810281F1
:1018F000138148175907C8F08417950769F41097A2
:1019000031F012960C93129713961C9327C00093F4
:10191000D6021093D70222C02115310519F04217C3
:10192000530718F49A01BD01EF01DF01F801DBCF85
:1019300021153105F9F0281B390B2430310580F4CD
:101940008A819B816115710521F0FB01938382835C
:1019500004C09093D7028093D602FE01329644C011
:10196000FE01E20FF31F81939193225031093983D5
:1019700028833AC02091D4023091D502232B41F420
:1019800020910202309103023093D5022093D402B9
:1019900020910002309101022115310541F42DB74B
:1019A0003EB74091040250910502241B350BE09193
:1019B000D402F091D502E217F307A0F42E1B3F0BDF
:1019C0002817390778F0AC014E5F5F4F24173507B1
:1019D00048F04E0F5F1F5093D5024093D40281937D
:1019E000919302C0E0E0F0E0CF01DF91CF911F9131
:1019F0000F910895CF93DF93009709F481C0FC0104
:101A0000329713821282A091D602B091D70210971A
:101A100081F420813181820F931F2091D402309173
:101A2000D5022817390751F5F093D502E093D40277
:101A300067C0ED0120E030E0CE17DF0740F44A81B7
:101A40005B819E0141155105F1F0EA01F5CFD38389
:101A5000C28340815181840F951FC817D90759F45B
:101A600088819981840F951F0296918380838A8152
:101A70009B81938382832115310529F4F093D7024A
:101A8000E093D6023DC0E901FB83EA834991599175
:101A9000C40FD51FEC17FD0761F480819181840F7D
:101AA000951F0296E90199838883828193819B83A4
:101AB0008A83E0E0F0E012968D919C911397009755
:101AC00019F0FD01DC01F7CF8D919C9111979D01DB
:101AD0002E5F3F4F820F931F2091D4023091D50289
:101AE0002817390769F4309729F41092D702109219
:101AF000D60202C013821282B093D502A093D40200
:101B0000DF91CF910895FC01059061507040011064
:101B1000D8F7809590958E0F9F1F0895DC0101C026
:101B20006D9341505040E0F70895FC0161507040C2
:101B300001900110D8F7809590958E0F9F1F089502
:101B40000F931F93CF93DF93FB01238121FD03C0EC
:101B50008FEF9FEF2CC022FF16C046815781248152
:101B600035814217530744F4A081B1819D012F5F55
:101B70003F4F318320838C93268137812F5F3F4FE6
:101B80003783268314C08B01EC01FB010084F185AF
:101B9000E02D1995892BE1F6D80116968D919C912F
:101BA0001797019617969C938E931697CE01DF9107
:101BB000CF911F910F910895FA01AA27283051F172
:101BC000203181F1E8946F936E7F6E5F7F4F8F4F6E
:101BD0009F4FAF4FB1E03ED0B4E03CD0670F781FCD
:101BE000891F9A1FA11D680F791F8A1F911DA11DB2
:101BF0006A0F711D811D911DA11D20D009F46894EB
:101C00003F912AE0269F11243019305D3193DEF692
:101C1000CF010895462F4770405D4193B3E00FD048
:101C2000C9F7F6CF462F4F70405D4A3318F0495D33
:101C300031FD4052419302D0A9F7EACFB4E0A69516
:101C40009795879577956795BA95C9F70097610538
:101C5000710508959B01AC010A2E0694579547958E
:101C600037952795BA95C9F7620F731F841F951F83
:081C7000A01D0895F894FFCFB8
:101C78000000D8022000F843414E206D73672049C8
:101C8800443A202564200A0043414E206D736720A2
:101C98006C656E6774683A202564200A0043414EDB
:101CA800206D736720646174613A20004952303AAC
:101CB8002025642009004952313A20256420090072
:101CC8004952305F6C6F773A2025640900495231D8
:101CD8005F6C6F773A2025640A00456E636F646510
:101CE8007220707265763A2025640900456E636F2C
:101CF800646572206375723A2025640A00456E6334
:101D08006F64657220707265763A2025640A000057
:00000001FF
