:10000000C2C00000E0C00000DEC00000A7C10000C8
:10001000DAC00000D8C00000D6C00000D4C0000084
:10002000D2C00000D0C00000CEC00000CCC0000094
:10003000CAC00000C8C00000C6C000003AC400002A
:10004000C2C00000C0C00000BEC00000BCC00000B4
:10005000BAC00000B8C00000B6C00000B4C00000C4
:10006000B2C00000B0C00000AEC00000ACC00000D4
:10007000AAC00000A8C00000A6C00000A4C00000E4
:10008000A2C00000A0C000009EC000009CC00000F4
:100090009AC0000098C0000096C00000EEC60000A4
:1000A00092C0000090C000008EC000008CC0000014
:1000B0008AC0000088C0000086C0000084C0000024
:1000C00082C0000080C000007EC000007CC0000034
:1000D0007AC0000078C0000076C0000074C0000044
:1000E00072C000005807AA07AA07AA07AA07AA070A
:1000F000AA07AA075807AA07AA07AA07AA07AA07CA
:10010000AA07AA075A07AA07AA07AA07AA07AA07B7
:10011000AA07AA07AA07AA07AA07AA07AA07AA0757
:10012000AA07AA075A07AA07AA07AA07AA07AA0797
:10013000AA07AA07AA07AA07AA07AA07AA07AA0737
:10014000AA07AA07A607AA07AA07AA07AA07AA072B
:10015000AA07AA078307AA07AA07AA07AA07AA073E
:10016000AA07AA07AA07AA07AA07AA07AA07AA0707
:10017000AA07AA077707AA07AA07AA07AA07AA072A
:10018000AA07AA07950711241FBECFEFD1E2DEBF51
:10019000CDBF00E00CBF13E0A0E0B2E0E4EAFCE178
:1001A00000E00BBF02C007900D92AE31B107D9F746
:1001B00023E0AEE1B3E001C01D92A635B207E1F73E
:1001C0004AD20C94500E1CCFACD263E08BE271D2B9
:1001D000F894EA9AE29A789408951F93CF93DF9364
:1001E000EC01688179817695679576956795769526
:1001F000679581E35ED268816295660F607E82E3D7
:1002000058D26A8185E355D28A81882361F010E053
:10021000FE01E10FF11D638186E3810F4AD21F5F6A
:100220008A811817A8F381E857D2DF91CF911F91E7
:1002300008951F93CF93DF93EC0180911E038823D1
:1002400071F181E62BD2182F82E628D2482F4295F1
:1002500046954770212F30E0C901880F991F880FFC
:10026000991F880F991F842B9983888385E616D25E
:100270008A83882361F010E086E6810F0FD2FE01A9
:10028000E10FF11D83831F5F8A811817A8F340E0F7
:1002900061E08CE225D210921E0381E001C080E073
:1002A000DF91CF911F910895CF92DF92EF92FF924D
:1002B0000F931F93CF93DF936C01FC0181818F9388
:1002C00080818F9387E092E09F938F930E945E0AD4
:1002D000F60182811F928F9388E192E09F938F9322
:1002E0000E945E0A8DE292E09F938F930E945E0AC5
:1002F000F60182812DB73EB7265F3F4F0FB6F894C7
:100300003EBF0FBE2DBF8823E1F0760133E0E30E40
:10031000F11CC0E0D0E001E412E0F70181917F011F
:100320001F928F931F930F930E945E0A2196F601EE
:10033000228130E00F900F900F900F90C217D307DB
:1003400064F38AE090E00E946F0ADF91CF911F91E1
:100350000F91FF90EF90DF90CF9008951F920F9232
:100360000FB60F9211248F9381E080931E038F911B
:100370000F900FBE0F901F90189580988198EAE714
:10038000F0E08081806880838081816080838081CB
:1003900082608083808184608083ECE7F0E08081EC
:1003A000806880838081806480830895EAE7F0E03C
:1003B000808180648083808184FFFDCF809178007C
:1003C0002091790090E0922B0895882319F08130D4
:1003D00041F00EC0ECE7F0E080818E7F8083E6CFB5
:1003E0000895ECE7F0E0808181608083DFCF08959D
:1003F00080E090E00895789414C50895CF93DF933A
:1004000000D0CDB7DEB790E599831A828B8363E085
:10041000CE01019610D50F900F900F90DF91CF91E4
:100420000895ABCF0895EF92FF920F931F93CF9350
:10043000DF938091290390E005E213E09C01220FF5
:10044000331FA901465D5C4F7A01F801208131819B
:10045000FA0140815181241B350BF801318320833F
:10046000C7E2D3E0FC01EE0FFF1FEE5CFC4F88817A
:10047000998120813181821B930B9983888380E04D
:1004800090E0A3DFF70191838083E0902903F12CB2
:1004900081E090E09ADFF701EE0FFF1FEE5CFC4F6A
:1004A0009183808360912903262F30E0F901EE0FBC
:1004B000FF1FE65DFC4F40815181F80180819181F1
:1004C000840F951F91838083F901EE0FFF1FEE5C6F
:1004D000FC4F4081518128813981240F351F398398
:1004E00028836F5F643018F46093290302C0109270
:1004F00029039F938F938CE392E09F938F93DED792
:10050000E7E2F3E081818F9380818F9386E492E02C
:100510009F938F93D3D7809124038F93809123034C
:100520008F9380E592E09F938F93C8D780912203A9
:100530008F93809121038F938DE592E09F938F930A
:10054000BDD74DB75EB7405F5F4F0FB6F8945EBF43
:100550000FBE4DBFDF91CF911F910F91FF90EF9094
:1005600008950F931F93CF93DF93CEE15CDFC150CB
:10057000E9F70091250310912603C0912703D0913C
:10058000280351DFA80156954795509324034093C3
:1005900023039E01220F331F220F331FADECBCEC4F
:1005A00034D7969587959695879590932203809357
:1005B00021035F934F9380E592E09F938F937ED7C3
:1005C000809122038F93809121038F938DE592E098
:1005D0009F938F9373D78DB79EB708960FB6F894F5
:1005E0009EBF0FBE8DBFDF91CF911F910F910895D8
:1005F0001ADF2091270330912803809121039091E5
:1006000022032817390768F480911F0381110BC05A
:1006100081E080931F03809120038F5F80932003EC
:1006200002C010921F0380912003823020F01092AC
:10063000200381E0089580E0089581E04091250342
:10064000509126032091230330912403421753072E
:1006500008F080E00895CF93DF93CDB7DEB72B97F6
:100660000FB6F894DEBF0FBECDBF9DD4C4DECBD095
:1006700069D280E0A9DD60E074E284EF90E05CD3B1
:10068000D0DEB1D3CE010196D4DD8823D9F38981A0
:100690009A81892BB9F78C81DDD2F4CFCF93C82F03
:1006A0002F9883E0B9D38C2FB7D3AFD32F9ACF91A4
:1006B0000895CF93DF93D82FC62F2F9882E0ACD325
:1006C0008D2FAAD38C2FA8D32F9ADF91CF91089585
:1006D000682F8FE0EECF08952F989ED32F9A08951C
:1006E0001F93CF93DF93182FD62FC42F2F9885E019
:1006F00093D3812F91D38D2F8FD38C2F8DD32F9A7E
:10070000DF91CF911F9108952F9880EC85D340E819
:1007100060E88FE0E5DF2F9A85E38A95F1F7000026
:100720000895CF93C82F68D3EFDF8EE0B7DF807EC8
:10073000803839F58C2FCCDF8EE0B0DF982F907E9B
:10074000292F30E04C2F50E04217530769F01F92D9
:100750009F938AE692E09F938F93B0D60F900F906D
:100760000F900F9081E00EC01F928F938EEA92E05F
:100770009F938F93A3D60F900F900F900F9080E0D0
:1007800001C081E0CF91089591E08A3708F490E0AC
:10079000992319F0913039F00895E2E0F1E0808179
:1007A0008D7F80830895E2E0F1E080818260808324
:1007B0000895CF93C82FE8DF81E0CF3708F480E0B9
:1007C000882319F0813029F008C08EE78C1B16DED3
:1007D00007C081E88C0F12DE03C081E88C0F0EDEAB
:1007E000CF9108950BCE0895E2E0F1E080818F7BF8
:1007F00080838FE193E00197F1F700C000008081D2
:10080000806480830895E1E0F1E0808180618083ED
:10081000A2E0B1E08C9180618C93808182608083C2
:10082000259A808188608083808180648083DCDF7A
:10083000E7E0F1E080818E7F808380818D7F8083FF
:1008400080818B7F80838081877F808380818F7E82
:10085000808380818F7D808380818F7B8083808176
:100860008F7780830895CF93DF932D98E2E0F1E0B6
:10087000908198609083EFEEF0E03197F1F700C03F
:100880000000D0910601E2E0F1E09081977F908333
:10089000EFEEF0E03197F1F700C00000C0910601E3
:1008A0008111A2DF2D9A8D2F90E09C2BDF91CF91AB
:1008B00008951F920F920FB60F9211248F9381E02B
:1008C00080933A038F910F900FBE0F901F90189551
:1008D000CF92DF92EF92FF920F931F93CF93DF930C
:1008E00085E152DF82E365DF80E0BDDFEC019C0142
:1008F00028533F4F0F2EF9EECF2EF2E0DF2EF02DD2
:100900000F2EFBEFEF2EF2E0FF2EF02D3F932F93F3
:10091000DF92CF92D3D52FEF83EF91E0215080402B
:100920009040E1F700C0000080E09DDF8C01DF9384
:10093000CF93FF92EF92C2D58DB79EB708960FB6B0
:10094000F8949EBF0FBE8DBF0C171D0719F09E01B6
:10095000E801DCCF80E02DDF8FEC97E00197F1F725
:1009600000C0000041DF86E90FDF88EC22DF38E3BA
:100970002FEFC0E0D0E00CE013E02F933F931F93E4
:100980000F939CD59FEF23EF81E091502040804052
:10099000E1F700C0000080E066DF0F900F900F903D
:1009A0000F908C179D0721F03C2F2D2FEC01E5CFE8
:1009B0009093420380934103DF91CF911F910F9158
:1009C000FF90EF90DF90CF9008958F929F92AF921B
:1009D000BF92CF92DF92EF92FF92CF93DF93C82F17
:1009E00080913A03882309F4A2C0E0E7F0E0808117
:1009F0008E7F808380E037DFBC01882777FD80957C
:100A0000982FE6D36B017C01609141037091420302
:100A1000882777FD8095982FDBD39B01AC01C70118
:100A2000B6013BD320E030E04FE753E485D4C13F2B
:100A300018F4CA3018F003C0C0EF01C0CAE0D0E01B
:100A400094D3C61BD70BBE01882777FD8095982FBE
:100A5000BFD36B017C0180903D0390903E03A0903A
:100A60003F03B0904003209789F02FE632E143E83E
:100A70005CE362D4A5019401A8D260933D03709316
:100A80003E0380933F039093400308C010923D03C0
:100A900010923E0310923F031092400320E030E09A
:100AA00040E251E460913D0370913E0380913F0329
:100AB0009091400341D49B01AC01C701B60185D29E
:100AC0006B017C0180913B0390913C03BE01681B4C
:100AD000790B882777FD8095982F7AD32FE632E11E
:100AE00043E85CE3DAD22AE037ED43E25CE324D466
:100AF0009B01AC01C701B60168D237D3F62E262F71
:100B0000372FD0933C03C0933B0333232CF487E16E
:100B10003BDE8F2D819503C08CE836DE8F2D62DEA3
:100B200010923A03E0E7F0E0808181608083DF91FA
:100B3000CF91FF90EF90DF90CF90BF90AF909F90BC
:100B40008F900895F89481E08093700087E08093FF
:100B5000B10078940895CF93DF93CDB7DEB7669751
:100B60000FB6F894DEBF0FBECDBF82E090E09D8748
:100B70008C878E871F86188AF4DCCE010C962DDBBD
:100B800037DD888BCE01019654DB882379F08C8188
:100B900010DE8FE7DED08E8129D18FE39CE90197AB
:100BA000F1F700C00000CE010C9617DB46DD88236C
:100BB00039F38F87CE010C9677DBCE010C960DDBD7
:100BC00066960FB6F894DEBF0FBECDBFDF91CF9112
:100BD0000895CF93DF93CDB7DEB766970FB6F8943D
:100BE000DEBF0FBECDBF82E090E09D878C878E87F1
:100BF0001F86188A6DDEB5DCCE010C96EEDAF8DCC5
:100C0000888BCE01019615DB882379F08D81DDDE9E
:100C10008C819FD08E81EAD08FE39CE90197F1F718
:100C200000C00000CE010C96D8DA07DD882339F326
:100C30008F878FE7BEDDCE010C9636DBCE010C969A
:100C4000CCDA66960FB6F894DEBF0FBECDBFDF914B
:100C5000CF910895882319F0813019F008957BCF42
:100C60000895B7CF0895CF92DF92EF92FF926B0174
:100C70007C01E1E8F0E080818460808380818D7F69
:100C8000808380818E7F80836091430370914403D1
:100C900080E090E09BD2A70196014ED36BD2709377
:100CA000870060938600FF90EF90DF90CF900895CB
:100CB0000F931F93E1E8F0E0A081A061A083A081E1
:100CC000A860A083E0E8F0E0A081A260A083A081FA
:100CD000AE7FA083A081A062A083A081AF7EA0830D
:100CE000032F142F252F332710934403009343031E
:100CF000BADF269A1F910F910895CF92DF92EF925B
:100D0000FF926B017C01609143037091440380E08A
:100D100090E05CD2A70196010FD320E030E040E0E4
:100D20005FE352D127D270938B0060938A00FF90CB
:100D3000EF90DF90CF9008959B01AC016AE077EDD2
:100D400083EA9CE3B5DF66EA7BE984EC9AE3D5CFDE
:100D50000895CF92DF92EF92FF92282F30E0255234
:100D6000310933230CF08552682F70E080E090E069
:100D70002DD22DEA34EB4EE458E48FD12AEF3DEE2C
:100D80004BE65AE322D16B017C012CE639E049E7BE
:100D90005AE37FD1882354F02BE439E546E05BE346
:100DA000C701B601C5D2181664F015C00F2EFCE6B7
:100DB000CF2EF9E0DF2EF9E7EF2EFAE3FF2EF02D2C
:100DC0000AC00F2EFBE4CF2EF9E5DF2EF6E0EF2E62
:100DD000FBE3FF2EF02DC701B6018FDFFF90EF90F0
:100DE000DF90CF900895249A2C9A0895882311F0CB
:100DF0002C9808952C9A089584B1876884B981E16C
:100E00008CBD8CB580648CBD08958FEF8EBD0DB404
:100E100007FEFDCF8EB508958EBD0DB407FEFDCF44
:100E200008958CE08093B8008FEF8093BB0084E03E
:100E30008093BC000895ECEBF0E0208120FDFDCF15
:100E400060934703FC0120812093480320FD0CC0E0
:100E5000623050F0DC011196E9E4F3E081E09D910D
:100E600091938F5F8613FBCF1092460388EF809398
:100E7000060285EA8093BC0008951F920F920FB678
:100E80000F9211240BB60F922F933F938F939F9342
:100E9000AF93BF93EF93FF938091B90090E0FC0173
:100EA0003897E135F10508F055C0EE58FF4FA7C25D
:100EB00010924503E091450380914703E81770F4D1
:100EC00081E08E0F80934503F0E0E85BFC4F80816A
:100ED0008093BB0085E88093BC0043C080914603AB
:100EE00081608093460384E98093BC003AC0E0911E
:100EF000450381E08E0F809345038091BB00F0E0B5
:100F0000E85BFC4F80832091450330E080914703EC
:100F100090E001972817390724F485EC8093BC00F2
:100F200020C085E88093BC001CC08091BB00E0918C
:100F30004503F0E0E85BFC4F8083809146038160CD
:100F40008093460384E98093BC000BC085EA8093BC
:100F5000BC0007C08091B9008093060284E08093B2
:100F6000BC00FF91EF91BF91AF919F918F913F9105
:100F70002F910F900BBE0F900FBE0F901F901895E2
:100F8000E0ECF0E0908195FFFDCF8093C60080E01B
:100F900090E00895E0ECF0E080818823ECF7809108
:100FA000C60090E008951092C50087E68093C400C3
:100FB00088E18093C1008EE08093C2006AEC77E004
:100FC00080EC97E031C208955058BB27AA270ED075
:100FD00075C166D130F06BD120F031F49F3F11F430
:100FE0001EF45BC10EF4E095E7FB51C1E92F77D108
:100FF00080F3BA17620773078407950718F071F436
:101000009EF58FC10EF4E0950B2EBA2FA02D0B018B
:10101000B90190010C01CA01A0011124FF27591B3D
:1010200099F0593F50F4503E68F11A16F040A22F43
:10103000232F342F4427585FF3CF469537952795B4
:10104000A795F0405395C9F77EF41F16BA0B620BB3
:10105000730B840BBAF09150A1F0FF0FBB1F661FFA
:10106000771F881FC2F70EC0BA0F621F731F841F3D
:1010700048F4879577956795B795F7959E3F08F063
:10108000B3CF9395880F08F09927EE0F9795879522
:101090000895D9D008F481E008950CD00FC107D18C
:1010A00040F0FED030F021F45F3F19F0F0C0511154
:1010B00039C1F3C014D198F39923C9F35523B1F37F
:1010C000951B550BBB27AA2762177307840738F0B7
:1010D0009F5F5F4F220F331F441FAA1FA9F333D016
:1010E0000E2E3AF0E0E830D091505040E695001CCA
:1010F000CAF729D0FE2F27D0660F771F881FBB1F86
:10110000261737074807AB07B0E809F0BB0B802D5F
:10111000BF01FF2793585F4F2AF09E3F510568F0AB
:10112000B6C000C15F3FECF3983EDCF3869577953F
:101130006795B795F7959F5FC9F7880F911D9695AD
:10114000879597F90895E1E0660F771F881FBB1F09
:10115000621773078407BA0720F0621B730B840BB6
:10116000BA0BEE1F88F7E095089504D06894B1118A
:10117000D9C00895BCD088F09F5790F0B92F992717
:10118000B751A0F0D1F0660F771F881F991F1AF092
:10119000BA95C9F712C0B13081F0C3D0B1E008955B
:1011A000C0C0672F782F8827B85F39F0B93FCCF3DC
:1011B000869577956795B395D9F73EF49095809588
:1011C000709561957F4F8F4F9F4F0895E89409C0A8
:1011D00097FB3EF490958095709561957F4F8F4F6A
:1011E0009F4F9923A9F0F92F96E9BB279395F69580
:1011F000879577956795B795F111F8CFFAF4BB0FFE
:1012000011F460FF1BC06F5F7F4F8F4F9F4F16C061
:10121000882311F096E911C0772321F09EE8872FEB
:10122000762F05C0662371F096E8862F70E060E0A7
:101230002AF09A95660F771F881FDAF7880F969520
:10124000879597F90895990F0008550FAA0BE0E8C4
:10125000FEEF16161706E807F907C0F01216130678
:10126000E407F50798F0621B730B840B950B39F4B8
:101270000A2661F0232B242B252B21F408950A261E
:1012800009F4A140A6958FEF811D811D089597F95E
:101290009F6780E870E060E008959FEF80EC08951C
:1012A00000240A9416161706180609060895002445
:1012B0000A9412161306140605060895092E0394BF
:1012C000000C11F4882352F0BB0F40F4BF2B11F433
:1012D00060FF04C06F5F7F4F8F4F9F4F089557FD92
:1012E0009058440F551F59F05F3F71F04795880F94
:1012F00097FB991F61F09F3F79F08795089512162B
:1013000013061406551FF2CF4695F1DF08C01616D6
:1013100017061806991FF1CF869571056105089487
:101320000895E894BB2766277727CB0197F908959E
:101330008ADF08F48FEF08950BD0C0CFB1DF28F01B
:10134000B6DF18F0952309F0A2CFA7CF1124EACF7A
:10135000C6DFA0F3959FD1F3950F50E0551F629F14
:10136000F001729FBB27F00DB11D639FAA27F00DFE
:10137000B11DAA1F649F6627B00DA11D661F829F25
:101380002227B00DA11D621F739FB00DA11D621F0A
:10139000839FA00D611D221F749F3327A00D611D27
:1013A000231F849F600D211D822F762F6A2F112409
:1013B0009F5750408AF0E1F088234AF0EE0FFF1F5C
:1013C000BB1F661F771F881F91505040A9F79E3F93
:1013D000510570F05CCFA6CF5F3FECF3983EDCF395
:1013E000869577956795B795F795E7959F5FC1F7D0
:1013F000FE2B880F911D9695879597F90895EE0F0E
:10140000FF1F0590F491E02D1994A29FB001B39FA6
:10141000C001A39F700D811D1124911DB29F700DFD
:10142000811D1124911D08950F931F93CF93DF9376
:10143000EC018B01009731F46115710519F480E01E
:1014400090E037C06EE070E081E090E03BD2FC01BC
:101450000097A9F380E883830115110571F01387C4
:10146000028781E8838380914C0390914D03892BFF
:1014700021F4F0934D03E0934C032097C9F0D187FA
:10148000C08783818260838380914E0390914F0354
:10149000892B71F4F0934F03E0934E038091500336
:1014A00090915103892B21F4F0935103E093500361
:1014B000CF01DF91CF911F910F910895CF93DF93CB
:1014C000CDB7DEB7FE01369661917191AF01809183
:1014D0004E0390914F0308D0DF91CF910895609112
:1014E0004E0370914F034CC32F923F924F925F92E5
:1014F0006F927F928F929F92AF92BF92CF92DF9224
:10150000EF92FF920F931F93CF93DF93CDB7DEB788
:101510002C970FB6F894DEBF0FBECDBF7C016B01D8
:101520008A01FC0117821682838181FFB0C1CE013E
:1015300001964C01F7019381F60193FD859193FF8C
:1015400081916F01882309F49EC1853239F493FD9E
:10155000859193FF81916F01853221F4B70190E06D
:101560000FD3E8CF512C312C20E02032A0F48B3265
:1015700069F030F4803259F0833269F420612CC074
:101580008D3239F0803339F4216026C02260246026
:1015900023C0286021C027FD27C030ED380F3A3026
:1015A00078F426FF06C0FAE05F9E300D1124532E1A
:1015B00013C08AE0389E300D1124332E20620CC0F7
:1015C0008E3221F426FD5FC1206406C08C3611F4F2
:1015D000206802C0883641F4F60193FD859193FF9F
:1015E00081916F018111C1CF982F9F7D95549330C8
:1015F00028F40C5F1F4FFFE3F9830DC0833631F0F1
:10160000833771F0833509F057C021C0F80180811C
:1016100089830E5F1F4F44244394512C540114C0FE
:101620003801F2E06F0E711CF801A080B18026FF36
:1016300003C0652D70E002C06FEF7FEFC5012C87FE
:1016400094D22C0183012C852F77222E16C03801CD
:10165000F2E06F0E711CF801A080B18026FF03C07C
:10166000652D70E002C06FEF7FEFC5012C876BD254
:101670002C012C852068222E830123FC19C0832D88
:1016800090E048165906A0F4B70180E290E078D2C5
:101690003A94F5CFF50127FC859127FE81915F01F2
:1016A000B70190E06DD231103A94F1E04F1A510831
:1016B0004114510479F7DEC0843611F0893631F5D2
:1016C000F80127FF07C060817181828193810C5FDF
:1016D0001F4F08C060817181882777FD8095982F02
:1016E0000E5F1F4F2F76B22E97FF09C09095809501
:1016F000709561957F4F8F4F9F4F2068B22E2AE0E3
:1017000030E0A4016FD2A82EA81843C0853729F471
:101710002F7EB22E2AE030E025C0F22FF97FBF2EB7
:101720008F36C1F018F4883579F0ADC0803719F0E4
:10173000883721F0A8C02F2F2061B22EB4FE0DC033
:101740008B2D8460B82E09C024FF0AC09F2F96609D
:10175000B92E06C028E030E005C020E130E002C02C
:1017600020E132E0F801B7FE07C06081718182811B
:1017700093810C5F1F4F06C06081718180E090E013
:101780000E5F1F4FA4012ED2A82EA818FB2DFF77A5
:10179000BF2EB6FE0BC02B2D2E7FA51450F4B4FE29
:1017A0000AC0B2FC08C02B2D2E7E05C07A2C2B2D32
:1017B00003C07A2C01C0752C24FF0DC0FE01EA0D78
:1017C000F11D8081803311F4297E09C022FF06C0FB
:1017D0007394739404C0822F867809F0739423FD68
:1017E00012C020FF06C05A2C731418F4530C57185B
:1017F000732C731460F4B70180E290E02C87C0D1A1
:1018000073942C85F6CF731410F4371801C0312C63
:1018100024FF11C0B70180E390E02C87B1D12C8563
:1018200022FF16C021FF03C088E590E002C088E7D0
:1018300090E0B7010CC0822F867851F021FD02C0E4
:1018400080E201C08BE227FD8DE2B70190E098D1E4
:10185000A51430F4B70180E390E092D15A94F8CF08
:10186000AA94F401EA0DF11D8081B70190E088D1BE
:10187000A110F6CF332009F45DCEB70180E290E0ED
:101880007FD13A94F7CFF7018681978102C08FEF1D
:101890009FEF2C960FB6F894DEBF0FBECDBFDF9141
:1018A000CF911F910F91FF90EF90DF90CF90BF905D
:1018B000AF909F908F907F906F905F904F903F90F0
:1018C0002F9008950F931F93CF93DF93869F8001EE
:1018D000879F100D969F100D1124C8010DD0EC01AB
:1018E000009721F0A80160E070E038D1CE01DF91CF
:1018F000CF911F910F910895CF93DF93823091057F
:1019000010F482E090E0E0915403F091550320E060
:1019100030E0A0E0B0E0309739F1408151814817C4
:101920005907B8F04817590771F4828193811097CD
:1019300029F013969C938E9312972CC09093550385
:101940008093540327C02115310531F04217530706
:1019500018F0A901DB0101C0EF019A01BD01DF010F
:101960000280F381E02DD7CF21153105F9F0281B36
:10197000390B2430310580F48A819B816115710512
:1019800021F0FB019383828304C0909355038093DD
:101990005403FE01329644C0FE01E20FF31F81930F
:1019A000919322503109398328833AC02091520300
:1019B00030915303232B41F4209102023091030212
:1019C000309353032093520320910002309101027F
:1019D0002115310541F42DB73EB7409104025091D5
:1019E0000502241B350BE0915203F0915303E217DB
:1019F000F307A0F42E1B3F0B2817390778F0AC0132
:101A00004E5F5F4F2417350748F04E0F5F1F50930E
:101A10005303409352038193919302C0E0E0F0E0BE
:101A2000CF01DF91CF910895CF93DF93009709F411
:101A300087C0FC01329713821282C0915403D09167
:101A40005503209781F420813181280F391F80911F
:101A50005203909153038217930779F5F093530340
:101A6000E09352036DC0DE0120E030E0AE17BF0707
:101A700050F412964D915C9113979D0141155105BB
:101A800009F1DA01F3CFB383A28340815181840F3E
:101A9000951F8A179B0771F48D919C911197840F64
:101AA000951F02969183808312968D919C91139736
:101AB000938382832115310529F4F0935503E09334
:101AC00054033EC0D9011396FC93EE9312974D91A7
:101AD0005D91A40FB51FEA17FB0779F4808191810E
:101AE000840F951F0296D90111969C938E93828143
:101AF000938113969C938E931297E0E0F0E08A8195
:101B00009B81009719F0FE01EC01F9CFCE010296FE
:101B100028813981820F931F209152033091530302
:101B20002817390769F4309729F410925503109259
:101B3000540302C013821282D0935303C093520302
:101B4000DF91CF910895FC01059061507040011024
:101B5000D8F7809590958E0F9F1F0895DC0101C0E6
:101B60006D9341505040E0F70895FC016150704082
:101B700001900110D8F7809590958E0F9F1F0895C2
:101B80000F931F93CF93DF93182F092FEB018B81B6
:101B900081FD03C08FEF9FEF20C082FF10C04E81F8
:101BA0005F812C813D81421753077CF4E881F981E4
:101BB0009F012F5F3F4F39832883108306C0E8853C
:101BC000F985812F1995892B29F72E813F812F5F68
:101BD0003F4F3F832E83812F902FDF91CF911F9115
:101BE0000F910895FA01AA27283051F1203181F18F
:101BF000E8946F936E7F6E5F7F4F8F4F9F4FAF4F15
:101C0000B1E03ED0B4E03CD0670F781F891F9A1F27
:101C1000A11D680F791F8A1F911DA11D6A0F711DDB
:101C2000811D911DA11D20D009F468943F912AE0E7
:101C3000269F11243019305D3193DEF6CF010895CF
:101C4000462F4770405D4193B3E00FD0C9F7F6CF00
:101C5000462F4F70405D4A3318F0495D31FD4052C8
:101C6000419302D0A9F7EACFB4E0A695979587955E
:101C700077956795BA95C9F700976105710508953D
:101C80009B01AC010A2E06945795479537952795E9
:101C9000BA95C9F7620F731F841F951FA01D089581
:041CA000F894FFCFE6
:101CA400000056032000F843414E206D736720491D
:101CB400443A202564200A0043414E206D73672076
:101CC4006C656E6774683A202564200A0043414EAF
:101CD400206D736720646174613A20004952303A80
:101CE4002025642009004952313A20256420090046
:101CF4004952305F6C6F773A2025640900495231AC
:101D04005F6C6F773A2025640A004D4350323531B9
:101D140035206973204E4F5420696E20636F7272B0
:101D2400656374206D6F64652061667465722072EA
:101D340065736574212049747320636F6E666967E7
:101D44002062697473206172652025780A004D430E
:101D540050323531352069732020696E206C6F6FE5
:101D6400706261636B206D6F646520616674657277
:101D7400207265736574212063616E737461743AB3
:101D8400203078253032780A00456E636F646572BE
:101D940020707265763A2025640900456E636F648D
:101DA4006572206375723A2025640A00456E636F7C
:0E1DB40064657220707265763A2025640A001C
:00000001FF
