:10000000C1C10000DBC10000D9C100007DC20000F9
:10001000D5C10000D3C10000D1C10000CFC1000094
:10002000CDC10000CBC10000C9C10000C7C10000A4
:10003000C5C10000C3C10000C1C10000BFC10000B4
:10004000BDC10000BBC10000B9C10000B7C10000C4
:10005000B5C10000B3C10000B1C10000AFC10000D4
:10006000ADC10000ABC10000A9C10000A7C10000E4
:10007000FFFFFFFFFFFFFFFF000000000000000088
:1000800000065F5F0600000000070700070700008A
:10009000147F7F147F7F1400242E6B6B3A120000B4
:1000A000466630180C666200307A4F5D377A480039
:1000B0000407030000000000001C3E634100000034
:1000C0000041633E1C000000082A3E1C1C3E2A081A
:1000D00008083E3E0808000000A0E06000000000A4
:1000E0000808080808080000000060600000000020
:1000F0006030180C060301003E7F594D7F3E000022
:1001000042427F7F40400000627359496F660000A1
:10011000226349497F360000181C16137F7F1000A8
:10012000276745457D3900003C7E4B49793000000A
:10013000036371190F070000367F49497F360000BD
:10014000064F49693F1E000000006C6C0000000073
:1001500000A0EC6C00000000081C366341000000A9
:1001600014141414141400001818187E3C180000FD
:10017000020351590F0600003E7F415D5D1F1E00C6
:100180007C7E13137E7C0000417F7F49497F3600CF
:100190001C3E634141632200417F7F41637F1C001D
:1001A000417F7F495D416300417F7F491D0103001D
:1001B0001C3E6341517372007F7F08087F7F0000FF
:1001C00000417F7F41000000307040417F3F0100CF
:1001D000417F7F081C776300417F7F414060700052
:1001E0007F7F060C067F7F007F7F060C187F7F00D5
:1001F0001C3E6341633E1C00417F7F49090F06009E
:100200001E3F21717F5E0000417F7F19396F4600DC
:1002100026674D597B32000003417F7F4103000078
:100220007F7F40407F7F00001F3F60603F1F0000D6
:100230007F7F3018307F7F0063771C081C77630056
:10024000074F78784F0700006773594D4763710077
:10025000007F7F41410000000103060C1830600060
:100260000041417F7F000000080C0603060C0800D7
:100270008080808080808080000003070400000070
:10028000207454543C784000413F7F44447C380003
:10029000387C44446C280000307848493F7F400057
:1002A000387C54545C180000487E7F4903020000EB
:1002B00098BCA4A4F87C0400417F7F08047C7800EB
:1002C00000447D7D4000000040C484FD7D000000AE
:1002D000417F7F10386C440000417F7F4000000068
:1002E0007C7C0C180C7C78007C7C04047C780000FE
:1002F000387C44447C38000084FCF8A4243C18007A
:10030000183C24A4F8FC8400447C78441C180000A9
:10031000485C54547424000000043E7F44240000D0
:100320003C7C40403C7C40001C3C60603C1C00002D
:100330003C7C6030607C3C00446C3810386C44007D
:100340009CBCA0A0FC7C00004C64745C4C6400006D
:1003500008083E7741410000000000777700000068
:100360004141773E08080000020301030203010037
:100370001818187E3C1800006364696E6F707375FE
:1003800078585B0011241FBECFEFD4E0DEBFCDBF95
:1003900013E0A0E0B1E0E2E6FEE102C005900D92BC
:1003A000AA3FB107D9F724E0AAEFB3E001C01D923C
:1003B000A830B207E1F743D10C942F0F21CE823041
:1003C0009105A1F01CF4019739F02EC083309105FE
:1003D000B9F00497F9F028C084E08093001482E615
:1003E0008A95F1F7000080910014089585E08093CC
:1003F000001482E68A95F1F70000809100140895B8
:1004000086E08093001482E68A95F1F700008091DF
:100410000014089587E08093001482E68A95F1F72E
:10042000000080910014089580E0089590D1F89420
:100430008BB780628BBF789408951F93CF93DF931F
:10044000EC016881798176956795769567957695C3
:10045000679581E344D168816295660F607E82E38F
:100460003ED16A8185E33BD18A81882361F010E027
:10047000FE01E10FF11D638186E3810F30D11F5F23
:100480008A811817A8F381E83DD1DF91CF911F91A0
:1004900008951F93CF93DF93EC018091FA03882393
:1004A00071F181E611D1182F82E60ED1482F4295C5
:1004B00046954770212F30E0C901880F991F880F9A
:1004C000991F880F991F842B9983888385E6FCD018
:1004D0008A83882361F010E086E6810FF5D0FE0163
:1004E000E10FF11D83831F5F8A811817A8F340E095
:1004F00061E08CE20BD11092FA0381E001C080E050
:10050000DF91CF911F9108951F920F920FB60F9216
:1005100011248F9381E08093FA038F910F900FBE87
:100520000F901F901895EF92FF920F931F93CF9308
:10053000DF93CDB7DEB72B970FB6F894DEBF0FBEB3
:10054000CDBF8C014FD0E82E75D0F82E44D01A8341
:10055000098393E09B83EC82FD828E83CE0101961A
:100560006CDF2B960FB6F894DEBF0FBECDBFDF91C8
:10057000CF911F910F91FF90EF900895EF92FF920E
:100580000F931F93CF93DF93CDB7DEB72B970FB6A3
:10059000F894DEBF0FBECDBF8C0124D0E82E2BD047
:1005A000F82E19D01A83098393E09B83EC82FD8295
:1005B0008E83CE01019641DF2B960FB6F894DEBFF5
:1005C0000FBECDBFDF91CF911F910F91FF90EF90A4
:1005D0000895959A089581E090E0859B02C080E09F
:1005E00090E0089581E090E0EADE95E8980F973179
:1005F00008F48FE7089582E090E0E1DE95E8980F37
:10060000973108F48FE7089582E090E0D8DE90E01B
:100610008436910564F021E030E08B3A910514F4C2
:1006200020E030E088279927821B930B089581E012
:1006300090E0089584E090E0C2DE90E00895C3D099
:10064000B7D081309105F1F01CF4892B39F0F8CF47
:100650008230910549F1039779F1F2CF84E090E07F
:10066000D0D08330910539F08430910531F0029774
:1006700039F7B7D0E5CFBDD0E3CF60E08AE0CFD384
:10068000B0D0DECF85E090E0BCD08430910541F061
:100690008530910539F0029799F680E0D8D2D0CF15
:1006A000DFD2CECF89D0CCCF83E090E0AAD0039721
:1006B00009F0C6CF81D0C4CF82E090E0A2D00297EB
:1006C00009F0BECF79D0BCCFCF93C82FC49883E0B8
:1006D000FFD38C2FFDD3F6D3C49ACF910895CF9337
:1006E000DF93D82FC62FC49882E0F2D38D2FF0D39A
:1006F0008C2FEED3C49ADF91CF910895682F8FE0AD
:10070000EECF0895C498E4D3C49A08951F93CF936D
:10071000DF93182FD62FC42FC49885E0D9D3812F0B
:10072000D7D38D2FD5D38C2FD3D3C49ADF91CF912C
:100730001F910895C49880ECCBD340E860E88FE027
:10074000E5DFC49A80E18A95F1F700C00895CF9360
:10075000C82FB1D3EFDF8EE0B7DF807E8038F1F4B1
:100760008C2FCCDF8EE0B0DF807E282F30E04C2F46
:1007700050E04217530769F01F928F9388E191E090
:100780009F938F932ED40F900F900F900F9081E036
:1007900006C063E08BE2A3DF80E001C081E0CF917F
:1007A000089585B7806885BF86B7846086BF089541
:1007B0008091FB0390E008958CE591E0DCD004D1BA
:1007C0001092FB03089590D3ECDF84EA8A95F1F749
:1007D00084EA8A95F1F7FDDE2AD180E027DEECCFAE
:1007E00008958DEA91E0C7D0EFD081E08093FB03BC
:1007F00008958EE092E0BFD0E7D082E08093FB03C3
:100800000895AF92BF92CF92DF92EF92FF920F9333
:100810001F93CF93DF935C01EE24E394F12C689453
:10082000CC24C1F8D12C00E010E002C08E017C0184
:10083000EBDEEC01012BA9F4009799F08601080F7B
:10084000191F023011056CF0A016B10654F0C60154
:100850003FD080E2A9D0C8013BD08FE7A5D0B4D06B
:100860006801B9DEEF2811F781309105F9F6C6016C
:10087000DF91CF911F910F91FF90EF90DF90CF907C
:10088000BF90AF9008950F931F93CF93DF93C1E074
:10089000D0E000E010E002C0C02FD12F9CDE892BF9
:1008A00011F0209721F097DE892BB1F3F7CFDF917C
:1008B000CF911F910F910895E0E0F0E180EB8083EC
:1008C00080E1808310821092FD031092FC03089552
:1008D00020EB280FE0E0F0E1208320E1208310826C
:1008E00082959295907F9827807F98279093FD031B
:1008F0008093FC03089582959295907F9827807F3E
:10090000982720E030E0AC01585E60E2FA01E20F87
:10091000F31F60832F5F3F4F20313105B9F74096B9
:100920009093FD038093FC030895CF93DF93C0E081
:10093000D0E0CE01E0DF2196C830D105D1F710928A
:10094000FD031092FC03DF91CF9108958F3194F055
:1009500098E08902F0011124E858F04020E030E0EE
:10096000A0E0B2E184918C932F5F3F4F3196283005
:100970003105C1F70895FC0140814423A1F0209185
:10098000FC033091FD033196203831051CF4D90168
:10099000B85E4C932F5F3F4F41914111F5CF30939B
:1009A000FD032093FC0308958F316CF02091FC032C
:1009B0003091FD03F901F85E80832F5F3F4F309344
:1009C000FD032093FC030895DF92EF92FF920F93B3
:1009D0001F93CF93DF9370DF01E010E0C0E0D0E021
:1009E000E12CF12C03C021960F5F1F4FFE01F85E32
:1009F000D0809E012F703327232B39F4209761F08C
:100A00008FEFE81AF80AC70163DF8D2D9FDF0038EA
:100A100011054CF351DF03C08D2D98DFE4CFDF913A
:100A2000CF911F910F91FF90EF90DF900895E0E03C
:100A3000F0E18EEA808381EA80838AED808382E11F
:100A4000808388EC808388EA80838FE3808385EDD0
:100A5000808380E8808381E880838AE0808389EDD9
:100A6000808381E2808380E2808382E080838BEDDB
:100A7000808380E380838DEA8083108284EA808390
:100A800086EA80838FEA8083E0E0F8E180E290E00C
:100A9000918380833196E03828E1F207C9F794CF3B
:100AA00008950F931F93CF93DF93CDB7DEB7609771
:100AB0000FB6F894DEBF0FBECDBF182F85E090E0D3
:100AC0001ADF85E090E004DF1F921F9380EB92E035
:100AD0009F938F938E010F5F1F4F1F930F93A3D28E
:100AE000C80149DF71DF0F900F900F900F900F90AA
:100AF0000F9060960FB6F894DEBF0FBECDBFDF91AA
:100B0000CF911F910F9108951F93CF93DF93CDB78E
:100B1000DEB72B970FB6F894DEBF0FBECDBF182FF0
:100B200004DF8FEB92E027DF82E090E0D1DE88ECFB
:100B300092E021DF83E090E0CBDE83ED92E01BDFEB
:100B400085E090E0C5DE80EE92E015DF86E090E083
:100B5000BFDE8EEE92E00FDF37DF1A82198281E06E
:100B60008B831C83CE01019668DC2B960FB6F8941C
:100B7000DEBF0FBECDBFDF91CF911F9108950F93C0
:100B80001F93CF93DF93CDB7DEB72B970FB6F894B3
:100B9000DEBF0FBECDBF80E0B7DF00E010E0CE01CA
:100BA000019677DC882389F082E090E0E7DC8D8194
:100BB000882341F00F5F802F74DF8D81882311F02F
:100BC000053128F4112359F302C0112341F309DE42
:100BD0002B960FB6F894DEBF0FBECDBFDF91CF913D
:100BE0001F910F9108950F931F93CF93DF93CDB76C
:100BF000DEB72B970FB6F894DEBF0FBECDBF81E0F6
:100C000083DF00E010E0CE01019643DC882389F009
:100C100082E090E088DC8D81882341F00F5F802F97
:100C200040DF8D81882311F0053128F4112359F319
:100C300002C0112341F3D5DD2B960FB6F894DEBF29
:100C40000FBECDBFDF91CF911F910F9108958823E3
:100C500019F0813019F0089592CF0895C4CF089506
:100C6000CF92DF92EF92FF920F931F93CF93DF9378
:100C700000D01F92CDB7DEB78CEF92E07CDE809182
:100C8000080181113EC039C08701F801EE0FFF1F36
:100C9000E00FF11FEA5FFE4F8281882371F1780136
:100CA0008FEFE81AF80AC70113DEC801880F991FF1
:100CB000080F191F0A5F1E4FF801808191819F93D1
:100CC0008F93DF92CF928DD1F8018081918153DE95
:100CD00080E26ADEF80182814AE0BE016F5F7F4FE9
:100CE00090E012D1CE01019646DE0F900F900F904A
:100CF0000F90F6E0EF16F10439F666DEC4DD71DD23
:100D00002DC081E090E0E4DD06E011E0F801808193
:100D100091819F938F938DE793E09F938F9361D100
:100D2000F8018081918127DE80E23EDE809108011A
:100D30004AE0BE016F5F7F4F90E0E6D0CE010196A2
:100D40001ADE0F900F900F900F9001E010E00F2E21
:100D5000FDE7CF2EF3E0DF2EF02D97CF0F900F9011
:100D60000F90DF91CF911F910F91FF90EF90DF9047
:100D7000CF900895EF92FF920F931F93CF93DF933D
:100D80008C01E62EF42E84E08417F0F025E030E0AC
:100D9000F9013197E901CC0FDD1F2C0F3D1FE9014F
:100DA000CA5FDE4F28813981DF01AA0FBB1FAE0F5A
:100DB000BF1FAA5FBE4F11963C932E938A81129655
:100DC0008C939F01FE1620F31F930F938FE893E0FF
:100DD0009F938F9306D18F2D90E0EC01CC0FDD1FF8
:100DE000C80FD91FCA5FDE4F198308838881998194
:100DF0009F938F9389E993E09F938F93F2D0EA8238
:100E00008DB79EB708960FB6F8949EBF0FBE8DBFE4
:100E1000DF91CF911F910F91FF90EF900895EF9286
:100E2000FF920F931F93CF93DF93CDB7DEB72A972F
:100E30000FB6F894DEBF0FBECDBFF82EE62E8BEABC
:100E400093E099DDC1DD2FEF8FEF9EE021508040D0
:100E50009040E1F700C000008E010F5F1F4F1F930D
:100E60000F932CEE33E03F932F93CCD01F930F932F
:100E700010E01F9300E00F93D6D01F930F932AE842
:100E800033E03F932F93ADD04E2D6F2D802F912FB8
:100E900071DF0FB6F894DEBF0FBECDBF2A960FB636
:100EA000F894DEBF0FBECDBFDF91CF911F910F91A0
:100EB000FF90EF90089587B3806B87BB81E18DB978
:100EC0006E9A08958FEF8FB9779BFECF8FB10895FB
:100ED0008FB9779BFECF08955D9BFECF8CB90895A7
:100EE0005F9BFECF8CB1089510BC8FE189B988E17A
:100EF0008AB98EE880BD80B58E7F80BD60E777E0DF
:100F00008CE697E024C00895BB274A3031F499233A
:100F100022F4BDE2909581959F4F01C0BB27FB0154
:100F20005527AA27880F991FAA1FA41710F0A41BE2
:100F300083955051B9F7A05DAA3308F0A95DA1933C
:100F4000009779F7B111B1931192CB0157C60F9366
:100F50001F93CF93DF93EC018B01009731F4611560
:100F6000710519F480E090E037C06EE070E081E038
:100F700090E0D3D4FC010097A9F380E883830115A6
:100F8000110571F01387028781E883838091FE0346
:100F90009091FF03892B21F4F093FF03E093FE036C
:100FA0002097C9F0D187C087838182608383809135
:100FB000000490910104892B71F4F0930104E093F3
:100FC00000048091020490910304892B21F4F09392
:100FD0000304E0930204CF01DF91CF911F910F91A1
:100FE0000895A0E0B0E0E6EFF7E012C7FE01359605
:100FF00061917191AF01809100049091010432D010
:10100000E2E022C7A0E0B0E0E7E0F8E001C7FE01BF
:10101000359661917191AF018091FE039091FF032C
:1010200053D3E2E011C7AEE0B0E0E8E1F8E0EEC68D
:101030000D891E8986E08C831A8309838FEF9FE7D1
:101040009E838D83AE01475E5F4F6F89788DCE01A1
:10105000019608D0EF81F885E00FF11F10822E96DF
:10106000E4E0F0C6ACE0B0E0E7E3F8E0C1C67C0144
:101070006B018A01FC0117821682838181FFB0C156
:10108000CE0101964C01F7019381F60193FD859104
:1010900093FF81916F01882309F49EC1853239F451
:1010A00093FD859193FF81916F01853221F4B70102
:1010B00090E0F2D5E8CF512C312C20E02032A0F482
:1010C0008B3269F030F4803259F0833269F4206158
:1010D0002CC08D3239F0803339F4216026C0226073
:1010E000246023C0286021C027FD27C030ED380FC1
:1010F0003A3078F426FF06C0FAE05F9E300D1124E6
:10110000532E13C08AE0389E300D1124332E2062F6
:101110000CC08E3221F426FD5FC1206406C08C36DF
:1011200011F4206802C0883641F4F60193FD8591E0
:1011300093FF81916F018111C1CF982F9F7D9554AD
:10114000933028F40C5F1F4FFFE3F9830DC0833603
:1011500031F0833771F0833509F057C021C0F801B1
:10116000808189830E5F1F4F44244394512C540186
:1011700014C03801F2E06F0E711CF801A080B1803C
:1011800026FF03C0652D70E002C06FEF7FEFC50141
:101190002C8729D52C0183012C852F77222E16C070
:1011A0003801F2E06F0E711CF801A080B18026FFBB
:1011B00003C0652D70E002C06FEF7FEFC5012C8783
:1011C00000D52C012C852068222E830123FC19C018
:1011D000832D90E048165906A0F4B70180E290E014
:1011E0005BD53A94F5CFF50127FC859127FE8191D7
:1011F0005F01B70190E050D531103A94F1E04F1AF9
:1012000051084114510479F7DEC0843611F0893653
:1012100031F5F80127FF07C06081718182819381D8
:101220000C5F1F4F08C060817181882777FD809512
:10123000982F0E5F1F4F2F76B22E97FF09C0909503
:101240008095709561957F4F8F4F9F4F2068B22E8C
:101250002AE030E0A4016BD5A82EA81843C085373A
:1012600029F42F7EB22E2AE030E025C0F22FF97F3C
:10127000BF2E8F36C1F018F4883579F0ADC08037B5
:1012800019F0883721F0A8C02F2F2061B22EB4FEAC
:101290000DC08B2D8460B82E09C024FF0AC09F2F7B
:1012A0009660B92E06C028E030E005C020E130E0AD
:1012B00002C020E132E0F801B7FE07C06081718111
:1012C000828193810C5F1F4F06C06081718180E035
:1012D00090E00E5F1F4FA4012AD5A82EA818FB2D61
:1012E000FF77BF2EB6FE0BC02B2D2E7FA51450F41A
:1012F000B4FE0AC0B2FC08C02B2D2E7E05C07A2C8D
:101300002B2D03C07A2C01C0752C24FF0DC0FE01CB
:10131000EA0DF11D8081803311F4297E09C022FF7E
:1013200006C07394739404C0822F867809F0739476
:1013300023FD12C020FF06C05A2C731418F4530C5E
:101340005718732C731460F4B70180E290E02C8777
:10135000A3D473942C85F6CF731410F4371801C0FE
:10136000312C24FF11C0B70180E390E02C8794D486
:101370002C8522FF16C021FF03C088E590E002C043
:1013800088E790E0B7010CC0822F867851F021FDEC
:1013900002C080E201C08BE227FD8DE2B70190E040
:1013A0007BD4A51430F4B70180E390E075D45A944F
:1013B000F8CFAA94F401EA0DF11D8081B70190E005
:1013C0006BD4A110F6CF332009F45DCEB70180E2D3
:1013D00090E062D43A94F7CFF7018681978102C0FA
:1013E0008FEF9FEF2C96E2E11FC520FD09C0FC01A5
:1013F00023FD05C022FF02C07383628351834083B3
:10140000089544FD10C046FD10C0DB01FC01AA0F89
:10141000BB1FEE1FFF1F1094D1F76A0F7B1F8E1F9B
:101420009F1F31E003C033E001C034E0660F771F37
:10143000881F991F3150D1F7620F711D811D911DB9
:1014400008950F931F93CF93DF938C01C801E6D3C8
:10145000EC0197FD06C0A2D3892BC1F7B801CE01DC
:101460004DD4CE01DF91CF911F910F9108958F92AE
:101470009F92AF92CF92DF92EF92FF920F931F93C2
:10148000CF93DF93EC01A62E4A01022FC7D3AC0104
:1014900055274B32510521F04D32510549F4006872
:1014A000AA9411F480E060C0CE01B8D397FDFACFC2
:1014B000102F1D7F302F3073F1F48033E1F4FF24BF
:1014C000FA94FA0C09F43DC0CE01A8D397FD39C0B7
:1014D000382F3F7D383549F41264AA94AA9489F1D3
:1014E000CE019CD397FF07C02CC006FF02C012603C
:1014F00001C01261AF2CC12CD12C760120ED280F38
:10150000283078F014FF03C0BE01F8D317C02A308A
:1015100040F016FFF9CF2F7D3FEE320F3630A0F7A7
:101520002750412FC701B6016CDF6B017C011260AF
:10153000AA9451F0CE0172D397FFE0CF11FD04C001
:10154000B1CFC12CD12C760117FF08C0F094E094E4
:10155000D094C094C11CD11CE11CF11C212FB701F7
:10156000A601C40142DF81E0DF91CF911F910F916D
:10157000FF90EF90DF90CF90AF909F908F90089565
:10158000A1E2B0E0E5ECFAE038C45C017A018E013A
:101590000F5F1F4F680180E2D8011D928A95E9F71D
:1015A000F501738040E050E0812CB0E0912C81E0A7
:1015B00090E0F90173FCA59173FEA1918F017A2F40
:1015C0009F01A11103C080E090E07BC0AE3519F40B
:1015D0004115510559F1E92DF0E0E417F5073CF408
:1015E000AD3569F1AD3219F4BB2319F103C0B11166
:1015F00001C08A2EE72FE695E695E69586010E0F47
:10160000111DF801A72FA7708C0102C0000F111F38
:10161000AA95E2F7D801B081BA2BB083781559F0BA
:10162000781510F47F5FE6CF7150E4CF992493943E
:1016300003C0B1E001C0B0E04F5F5F4FBACFBB2342
:1016400019F08E8180628E83911003C09924939447
:1016500015C0F601CE018196208120952193E817CF
:10166000F907D1F7F3CFE114F10429F0D7018C93F6
:10167000F70131967F016150F1F0912CC50169A30A
:10168000CDD269A197FD15C0282F269526952695C0
:10169000F601E20FF11D208130E0AC0147705527C3
:1016A00002C0359527954A95E2F720FDDCCFB501BC
:1016B00025D3911088CFE114F10411F0D7011C92C9
:1016C000C801A196EDE0B5C34F925F927F928F92D1
:1016D0009F92AF92BF92CF92DF92EF92FF920F93C1
:1016E0001F93CF93DF931F92CDB7DEB78C012B01F1
:1016F0007A01FC0117821682A12CF801D380F20135
:10170000D3FC8591D3FE8191382F2F01882309F4D2
:10171000EEC090E0398342D23981892B19F0C8019B
:1017200090DEEBCF353241F4F201D3FC3591D3FE9C
:1017300031912F01353259F4C80139836FD2398183
:1017400097FDD3C03817C9F2B801D8D2D0C03A3209
:1017500041F4D3FC3591D3FE31912F01BB24B394D6
:1017600001C0B12C712C20ED230F2A3088F4FB2D01
:10177000F260BF2E672D70E080E090E040E241DE35
:10178000762EF201D3FC3591D3FE31912F01EBCFB0
:10179000B1FE03C0711003C0AAC077247A94383612
:1017A00019F03C3661F014C0F201D3FC3591D3FE40
:1017B00031912F01383661F4FB2DF860BF2E8B2D4F
:1017C0008460B82EF201D3FC3591D3FE31912F0104
:1017D000332309F48CC0632F70E088E793E03983EA
:1017E000E5D13981892B09F482C0B0FC07C0F7012B
:1017F000C080D180C70102967C0102C0C12CD12CCF
:101800003E3649F4F8014681578160E070E02B2DA7
:10181000C601EBDD72CF333699F4B1FC02C07724F8
:101820007394C801FBD197FD60C0C114D10429F0A5
:10183000F6018083C60101966C017A9491F751C03C
:101840003B3551F49201A601672DC80199DE2C01A8
:10185000009709F046C040C0C8013983F2DD3981E4
:1018600097FD43C03F3651F128F4343619F139362B
:1018700061F128C0333769F03537E1F023C0C11476
:10188000D10429F0F6018082C60101966C017A9498
:1018900059F0C801C3D14C0197FD06C07FD1892BF7
:1018A00071F3B801C4012AD2C114D104D1F0F601F8
:1018B000108217C0FB2DF062BF2E07C08B2D8061F8
:1018C000B82E03C09B2D9064B92E2B2DA601672D39
:1018D000C801CDDD811105C0F8018381807329F431
:1018E00006C0B0FC0ACFA39408CFAA2019F08A2D15
:1018F00090E002C08FEF9FEF0F90DF91CF911F918B
:101900000F91FF90EF90DF90CF90BF90AF909F909E
:101910008F907F905F904F9008950F931F93CF9378
:10192000DF93869F8001879F100D969F100D1124D5
:10193000C8010DD0EC01009721F0A80160E070E033
:101940004BD1CE01DF91CF911F910F910895CF938D
:10195000DF938230910510F482E090E0E09106047C
:10196000F091070420E030E0A0E0B0E0309739F1DA
:101970004081518148175907B8F04817590771F449
:1019800082819381109729F013969C938E931297DE
:101990002CC0909307048093060427C021153105BD
:1019A00031F04217530718F0A901DB0101C0EF0124
:1019B0009A01BD01DF010280F381E02DD7CF21150F
:1019C0003105F9F0281B390B2430310580F48A8168
:1019D0009B816115710521F0FB019383828304C013
:1019E0009093070480930604FE01329644C0FE01E2
:1019F000E20FF31F81939193225031093983288399
:101A00003AC02091040430910504232B41F4209125
:101A100002013091030130930504209304042091C6
:101A20000001309101012115310541F42DB73EB778
:101A30004091040150910501241B350BE0910404F1
:101A4000F0910504E217F307A0F42E1B3F0B2817B3
:101A5000390778F0AC014E5F5F4F2417350748F027
:101A60004E0F5F1F5093050440930404819391939C
:101A700002C0E0E0F0E0CF01DF91CF910895CF9375
:101A8000DF93009709F487C0FC013297138212821A
:101A9000C0910604D0910704209781F42081318100
:101AA000280F391F80910404909105048217930731
:101AB00079F5F0930504E09304046DC0DE0120E0A5
:101AC00030E0AE17BF0750F412964D915C9113971A
:101AD0009D014115510509F1DA01F3CFB383A283CA
:101AE00040815181840F951F8A179B0771F48D9156
:101AF0009C911197840F951F029691838083129673
:101B00008D919C911397938382832115310529F43C
:101B1000F0930704E09306043EC0D9011396FC93AA
:101B2000EE9312974D915D91A40FB51FEA17FB0735
:101B300079F480819181840F951F0296D9011196C5
:101B40009C938E938281938113969C938E9312978C
:101B5000E0E0F0E08A819B81009719F0FE01EC0142
:101B6000F9CFCE01029628813981820F931F2091EF
:101B70000404309105042817390769F4309729F4D3
:101B8000109207041092060402C013821282D093AE
:101B90000504C0930404DF91CF910895911125C1EC
:101BA000803219F089508550D0F70895FC010590D6
:101BB000061621F00020D9F7C00108953197CF0112
:101BC0000895FC010590615070400110D8F7809590
:101BD00090958E0F9F1F0895DC0101C06D934150B9
:101BE0005040E0F70895FC016150704001900110F1
:101BF000D8F7809590958E0F9F1F0895DC01FC010A
:101C0000672F71917723E1F7329704C07C916D9330
:101C100070836291AE17BF07C8F30895CF93DF9327
:101C2000EC012B8120FF33C026FF0AC02F7B2B83C2
:101C30008E819F8101969F838E838A8190E029C047
:101C400022FF0FC0E881F9818081992787FD909557
:101C5000009719F420622B831AC03196F983E88328
:101C60000EC0EA85FB85099597FF09C02B81019677
:101C700011F480E101C080E2822B8B8308C02E81A9
:101C80003F812F5F3F4F3F832E83992702C08FEF05
:101C90009FEFDF91CF9108950F931F93CF93DF9321
:101CA000182F092FEB018B8181FD03C08FEF9FEF70
:101CB00020C082FF10C04E815F812C813D81421780
:101CC00053077CF4E881F9819F012F5F3F4F3983EF
:101CD0002883108306C0E885F985812F0995892B13
:101CE00029F72E813F812F5F3F4F3F832E83812F26
:101CF000902FDF91CF911F910F910895FB012381C8
:101D000020FF12C026FD10C08F3F3FEF930761F008
:101D100082832F7D206423832681378121503109DE
:101D200037832683992708958FEF9FEF0895FA014F
:101D3000AA27283051F1203181F1E8946F936E7F0A
:101D40006E5F7F4F8F4F9F4FAF4FB1E03ED0B4E0FB
:101D50003CD0670F781F891F9A1FA11D680F791F3C
:101D60008A1F911DA11D6A0F711D811D911DA11D4D
:101D700020D009F468943F912AE0269F112430195D
:101D8000305D3193DEF6CF010895462F4770405DF8
:101D90004193B3E00FD0C9F7F6CF462F4F70405DA7
:101DA0004A3318F0495D31FD4052419302D0A9F702
:101DB000EACFB4E0A6959795879577956795BA95FC
:101DC000C9F700976105710508959B01AC010A2EC2
:101DD00006945795479537952795BA95C9F7620F99
:101DE000731F841F951FA01D0895992788270895A4
:101DF0002F923F924F925F926F927F928F929F921B
:101E0000AF92BF92CF92DF92EF92FF920F931F9308
:101E1000CF93DF93CDB7DEB7CA1BDB0B0FB6F894B9
:101E2000DEBF0FBECDBF09942A88398848885F84F9
:101E30006E847D848C849B84AA84B984C884DF806A
:101E4000EE80FD800C811B81AA81B981CE0FD11D4E
:101E50000FB6F894DEBF0FBECDBFED010895F89424
:021E6000FFCFB2
:101E6200000008042000EF0301EF0301EF0301EF7C
:101E72000301EF0301EF03014D43503235313520A9
:101E82006973204E4F5420696E20636F72726563CE
:101E920074206D6F6465206166746572207265736B
:101EA2006574212049747320636F6E6669672062CE
:101EB200697473206172652025780A002020204D04
:101EC20041494E204D454E552020202020202020E3
:101ED2002020202020202020202020203E506C6125
:101EE2007920706F6E6720202020202020506C61A6
:101EF2007920736E656B2020202020202054686199
:101F02006E6B7320746F2020202020200020202060
:101F1200504F4E47204D454E552020202020202056
:101F2200202020202020202020202020203E557309
:101F320065204A6F79737469636B20202020557382
:101F42006520736C69646572202020202020486916
:101F5200676873636F7265732020202020205265AA
:101F62007475726E20202020202020202000205313
:101F72004E454B5F4D454E552020202020202020ED
:101F820020202020202020202020202020203E5001
:101F92006C61792067616D6520202020202020520D
:101FA200657475726E2020202020202020200020C1
:101FB20020205448414E4B5320544F2020202020B3
:101FC200202020202020202020202020202020200F
:101FD200506572204B2E204F6D76696B2020202099
:101FE2004D61726975732045736B6564616C202065
:101FF200416E6465727320472E442E202020203EBD
:1020020052657475726E202020202020202020002E
:10201200596F75722053636F72653A2025640020F0
:102022002020504F4E474F004869676873636F72B4
:10203200653A004D6172697573202D203235350085
:10204200596F75722053636F72653A203000506F7A
:10205200736974696F6E3A204E2F41002D2D2D4801
:1020620049474853434F5245532D2D2D20202020C0
:10207200202020202020202020202020202020205E
:10208200202020202020202020202020202020204E
:10209200202020202020202020202020202020203E
:1020A200202020202020202020202020202020202E
:1020B200202020202020202020202020202020201E
:1020C2002020202020202020202020203E52657425
:1020D20075726E2020202020202020200053656E63
:1020E200657265206E61766E3A202573200A004E75
:1020F200414D453A20257309004E414D4520494E38
:10210200206C6973743A2025730A00202020204332
:102112004F4E47524154532120202020202020207E
:1021220020202020202020202020202055736520E0
:1021320074686520504320746F202020456E7465BA
:102142007220796F7572206E616D65002573004D86
:0A21520061726975732020202000DF
:00000001FF
