S00D00004E6F6465312E7372656360
S1130000BBC10000D5C10000D3C1000075C200000F
S1130010CFC10000CDC10000CBC10000C9C10000A8
S1130020C7C10000C5C10000C3C10000C1C10000B8
S1130030BFC10000BDC10000BBC10000B9C10000C8
S1130040B7C10000B5C10000B3C10000B1C10000D8
S1130050AFC10000ADC10000ABC10000A9C10000E8
S1130060A7C10000A5C10000A3C10000A1C10000F8
S1130070FFFFFFFFFFFFFFFF000000000000000084
S113008000065F5F06000000000707000707000086
S1130090147F7F147F7F1400242E6B6B3A120000B0
S11300A0466630180C666200307A4F5D377A480035
S11300B00407030000000000001C3E634100000030
S11300C00041633E1C000000082A3E1C1C3E2A0816
S11300D008083E3E0808000000A0E06000000000A0
S11300E0080808080808000000006060000000001C
S11300F06030180C060301003E7F594D7F3E00001E
S113010042427F7F40400000627359496F6600009D
S1130110226349497F360000181C16137F7F1000A4
S1130120276745457D3900003C7E4B497930000006
S1130130036371190F070000367F49497F360000B9
S1130140064F49693F1E000000006C6C000000006F
S113015000A0EC6C00000000081C366341000000A5
S113016014141414141400001818187E3C180000F9
S1130170020351590F0600003E7F415D5D1F1E00C2
S11301807C7E13137E7C0000417F7F49497F3600CB
S11301901C3E634141632200417F7F41637F1C0019
S11301A0417F7F495D416300417F7F491D01030019
S11301B01C3E6341517372007F7F08087F7F0000FB
S11301C000417F7F41000000307040417F3F0100CB
S11301D0417F7F081C776300417F7F41406070004E
S11301E07F7F060C067F7F007F7F060C187F7F00D1
S11301F01C3E6341633E1C00417F7F49090F06009A
S11302001E3F21717F5E0000417F7F19396F4600D8
S113021026674D597B32000003417F7F4103000074
S11302207F7F40407F7F00001F3F60603F1F0000D2
S11302307F7F3018307F7F0063771C081C77630052
S1130240074F78784F0700006773594D4763710073
S1130250007F7F41410000000103060C183060005C
S11302600041417F7F000000080C0603060C0800D3
S1130270808080808080808000000307040000006C
S1130280207454543C784000413F7F44447C3800FF
S1130290387C44446C280000307848493F7F400053
S11302A0387C54545C180000487E7F4903020000E7
S11302B098BCA4A4F87C0400417F7F08047C7800E7
S11302C000447D7D4000000040C484FD7D000000AA
S11302D0417F7F10386C440000417F7F4000000064
S11302E07C7C0C180C7C78007C7C04047C780000FA
S11302F0387C44447C38000084FCF8A4243C180076
S1130300183C24A4F8FC8400447C78441C180000A5
S1130310485C54547424000000043E7F44240000CC
S11303203C7C40403C7C40001C3C60603C1C000029
S11303303C7C6030607C3C00446C3810386C440079
S11303409CBCA0A0FC7C00004C64745C4C64000069
S113035008083E7741410000000000777700000064
S11303604141773E08080000020301030203010033
S11303701818187E3C18000011241FBECFEFD4E0DB
S1130380DEBFCDBF14E0A0E0B1E0E0E6F6E102C0DC
S113039005900D92A630B107D9F724E0A6E0B4E0A9
S11303A001C01D92A431B207E1F7B3D10C942E0B16
S11303B027CE823099F018F4813031F02DC083308B
S11303C0B9F08430F9F028C084E08093001482E608
S11303D08A95F1F7000080910014089585E08093D8
S11303E0001482E68A95F1F70000809100140895C4
S11303F086E08093001482E68A95F1F700008091EC
S11304000014089587E08093001482E68A95F1F73A
S1130410000080910014089580E00895EED1F894CE
S11304208BB780628BBF789408951F93CF93DF932B
S1130430EC016881798176956795769567957695CF
S1130440679581E3A2D168816295660F607E82E33D
S11304509CD16A8185E399D18A81882361F010E077
S1130460FE01E10FF11D638186E3810F8ED11F5FD1
S11304708A811817A8F381E89BD1DF91CF911F914E
S113048008951F93CF93DF93EC0180910604882392
S113049071F181E66FD1182F82E66CD1482F429515
S11304A046954770212F30E0C901880F991F880FA6
S11304B0991F880F991F842B9983888385E65AD1C5
S11304C08A83882361F010E086E6810F53D1FE0110
S11304D0E10FF11D83831F5F8A811817A8F340E0A1
S11304E061E08CE269D11092060481E001C080E0F1
S11304F0DF91CF911F9108951F920F920FB60F9223
S113050011248F9381E0809306048F910F900FBE86
S11305100F901F901895FF920F931F93CF93DF9323
S1130520CDB7DEB72B970FB6F894DEBF0FBECDBFA5
S1130530F82ECFD0082FEAD0182FC7D02F2D30E0B7
S11305403A83298393E09B830C831D838E83CE019E
S113055001966BDF2B960FB6F894DEBF0FBECDBFAE
S1130560DF91CF911F910F91FF900895FF920F9308
S11305701F93CF93DF93CDB7DEB72B970FB6F894C5
S1130580DEBF0FBECDBFF82EA4D0082FAAD0182FDF
S11305909CD02F2D30E03A83298393E09B830C83F6
S11305A01D838E83CE01019640DF2B960FB6F894FF
S11305B0DEBF0FBECDBFDF91CF911F910F91FF9092
S11305C00895809107040895B3D188E191E0CCD1D6
S11305D0F9D11092070408959CD339D184EA8A95FD
S11305E0F1F771D03BD180E019DFEECF0895A0D1AF
S11305F089E691E0B9D1E6D181E0809307040895BA
S113060097D18AEC91E0B0D1DDD182E080930704E8
S11306100895AF92BF92CF92DF92EF92FF920F9321
S11306201F93CF93DF93EE24E394F12C6894AA24D0
S1130630A1F800E010E0C82ED12C02C08E0179018F
S113064058D0B82EC82FDD27C7FDD095012BA9F4AB
S1130650209799F09E012A0D311D223031056CF04E
S1130660C216D30654F08A2D3ED180E29BD1AB0C46
S11306708A2D39D18EE396D1A5D127D0282F30E009
S1130680EF28E1F621303105C9F68A2DDF91CF91AB
S11306901F910F91FF90EF90DF90CF90BF90AF909C
S11306A00895CF93DF93C1E0D0E001C0CD2F0DD0EA
S11306B0882311F0CC2321F008D08823B9F3F7CF95
S11306C0DF91CF910895959A089581E0859980E00E
S11306D0089581E06EDE95E8980F973108F48FE76E
S11306E0089582E066DE95E8980F973108F48FE765
S11306F0089582E05EDE823338F091E0893C08F4AC
S113070090E0892F8195089581E0089584E051CE89
S1130710089562DF56DF813089F028F08230F1F0ED
S1130720833011F1F7CF84E074DF823019F0833025
S113073019F0F0CF5CDFEECF63DFECCF85E069DF4B
S1130740843041F0853041F0823021F780E090E040
S113075036D2E0CF3DD2DECF37DFDCCF83E059DFC6
S11307608330C1F631DFD6CF82E053DF823091F699
S11307702BDFD0CFCF93C82FC49883E0BED28C2F69
S1130780BCD2B5D2C49ACF910895CF93DF93D82F1A
S1130790C62FC49882E0B1D28D2FAFD28C2FADD2A8
S11307A0C49ADF91CF910895682F8FE0EECF08951A
S11307B0C498A3D2C49A08951F93CF93DF93182F9C
S11307C0D62FC42FC49885E098D2812F96D28D2F2E
S11307D094D28C2F92D2C49ADF91CF911F91089515
S11307E0C49880EC8AD240E860E88FE0E5DFC49AE0
S11307F080E18A95F1F700C00895CF93C82F70D295
S1130800EFDF8EE0B7DF807E8038F1F48C2FCCDF11
S11308108EE0B0DF807E282F30E04C2F50E042176E
S1130820530769F01F928F938CE692E09F938F9306
S1130830EDD20F900F900F900F9081E006C063E00F
S11308408BE2A3DF80E001C081E0CF91089585B7FA
S1130850806885BF86B7846086BF0895E0E0F0E1D4
S11308608EEA808381EA80838AED808382E18083BB
S113087088EC808388EA80838FE3808385ED80839E
S113088080E8808381E880838AE0808389ED8083A7
S113089081E2808380E2808382E080838BED8083A9
S11308A080E380838DEA8083108284EA808386EAF1
S11308B080838FEA8083E0E0F8E180E290E0918336
S11308C080833196E03828E1F207C9F70895E0E023
S11308D0F0E180EB808380E1808310821092090430
S11308E010920804089590EB980FE0E0F0E19083F3
S11308F090E19083108220E1829FC00111249093A3
S1130900090480930804089520E1829FC001112402
S1130910FC01F85E9C01205F374E40E24193E217F0
S1130920F307E1F74096909309048093080408952F
S1130930CF93C0E08C2FE8DFCF5FC830D9F7C7DF93
S1130940CF9108958F317CF098E08902F001112451
S1130950E858F04088E0A0E0B2E194919C93815083
S113096031968111FACF0895FC0140814423C9F0E6
S113097050910804252F30910904203831051CF4C6
S1130980F901F85E40832F5F3F4F422F451BFC0166
S1130990E40FF11D40814111F0CF309309042093FD
S11309A0080408958F316CF02091080430910904F3
S11309B0F901F85E80832F5F3F4F30930904209341
S11309C008040895EF92FF920F931F93CF93DF9340
S11309D07EDF01E010E0C0E0D0E0E12C03C021960E
S11309E00F5F1F4FFE01F85EF0809E012F703327CA
S11309F0232B29F4209751F0E3948E2D74DF8F2D4F
S1130A00A1DF003811055CF362DF03C08F2D9ADF8C
S1130A10E6CFDF91CF911F910F91FF90EF90089552
S1130A200F931F93CF93DF93CDB7DEB760970FB6C5
S1130A30F894DEBF0FBECDBF182F85E065DF85E0DB
S1130A4052DF1F921F9380EB92E09F938F938E014E
S1130A500F5F1F4F1F930F93EAD1C80185DFB2DFE9
S1130A600F900F900F900F900F900F9060960FB60D
S1130A70F894DEBF0FBECDBFDF91CF911F910F91D0
S1130A8008951F93CF93DF93CDB7DEB72B970FB69F
S1130A90F894DEBF0FBECDBF182F4ADF8FEB92E074
S1130AA063DF82E020DF88EC92E05EDF83E01BDF1F
S1130AB083ED92E059DF85E016DF80EE92E054DFAB
S1130AC086E011DF8EEE92E04FDF7CDF1A8219821E
S1130AD081E08B831C83CE010196A7DC2B960FB695
S1130AE0F894DEBF0FBECDBFDF91CF911F91089563
S1130AF00F931F93CF93DF93CDB7DEB72B970FB62A
S1130B00F894DEBF0FBECDBF80E090E0BADF00E016
S1130B1010E0CE010196B5DC882381F082E026DD69
S1130B208D81882341F00F5F802F7ADF8D818823A8
S1130B3011F0053128F4112361F302C0112349F3A4
S1130B402B960FB6F894DEBF0FBECDBFDF91CF91C9
S1130B501F910F9108950F931F93CF93DF93CDB7F8
S1130B60DEB72B970FB6F894DEBF0FBECDBF81E082
S1130B7090E087DF00E010E0CE01019682DC88235C
S1130B8081F082E0C8DC8D81882341F00F5F802FE3
S1130B9047DF8D81882311F0053128F4112361F397
S1130BA002C0112349F323DD2B960FB6F894DEBF60
S1130BB00FBECDBFDF91CF911F910F910895009784
S1130BC019F0019719F0089593CF0895C4CF0895AB
S1130BD0CF92DF92EF92FF920F931F93CF93DF9305
S1130BE000D01F92CDB7DEB78CEF92E0BDDE8091CE
S1130BF0080181113DC039C0F801EE0FFF1FE00F5D
S1130C00F11FEA5FFE4F8281882379F181E0800F32
S1130C106ADE7801EE0CFF1CC701800F911F9C0156
S1130C202A5F3E4F7901F901808191819F938F93CF
S1130C30DF92CF92EBD0F7018081918195DE80E243
S1130C40B1DEF70182814AE0BE016F5F7F4F90E021
S1130C5070D0CE01019688DE0F5F1F4F0F900F906A
S1130C600F900F900630110539F6ACDE1ADD2CC05A
S1130C7081E039DE06E011E0F801808191819F93E3
S1130C808F938DE793E09F938F93C0D0F801808179
S1130C9091816ADE80E286DE809108014AE0BE012D
S1130CA06F5F7F4F90E045D0CE0101965DDE0F90DF
S1130CB00F900F900F9001E010E00F2EFDE7CF2E64
S1130CC0F3E0DF2EF02D98CF0F900F900F90DF916F
S1130CD0CF911F910F91FF90EF90DF90CF900895E7
S1130CE087B3806B87BB81E18DB96E9A08958FEFCE
S1130CF08FB9779BFECF8FB108958FB9779BFECFC5
S1130D0008955D9BFECF8CB908955F9BFECF8CB197
S1130D10089510BC8FE189B988E18AB98EE880BD55
S1130D2080B58E7F80BD65E876E081E896E024C0DA
S1130D300895BB274A3031F4992322F4BDE29095FB
S1130D4081959F4F01C0BB27FB015527AA27880F18
S1130D50991FAA1FA41710F0A41B83955051B9F72B
S1130D60A05DAA3308F0A95DA193009779F7B111AA
S1130D70B1931192CB019BC30F931F93CF93DF9336
S1130D80EC018B01009731F46115710519F480E0D1
S1130D9090E037C06EE070E081E090E02AD2FC0180
S1130DA00097A9F380E883830115110571F0138777
S1130DB0028781E8838380910A0490910B04892B34
S1130DC021F4F0930B04E0930A042097C9F0D1872F
S1130DD0C08783818260838380910C0490910D0489
S1130DE0892B71F4F0930D04E0930C0480910E04AC
S1130DF090910F04892B21F4F0930F04E0930E04D7
S1130E00CF01DF91CF911F910F910895A0E0B0E041
S1130E10EBE0F7E0FCC3FE01359661917191AF01FF
S1130E2080910C0490910D0421D0E2E00CC4AEE05A
S1130E30B0E0ECE1F7E0E9C30D891E8986E08C831C
S1130E401A8309838FEF9FE79E838D83AE01475EEC
S1130E505F4F6F89788DCE01019608D0EF81F885B8
S1130E60E00FF11F10822E96E4E0EBC3ACE0B0E09B
S1130E70EBE3F7E0BCC37C016B018A01FC01178240
S1130E801682838181FFB0C1CE0101964C01F70126
S1130E909381F60193FD859193FF81916F018823DE
S1130EA009F49EC1853239F493FD859193FF8191B4
S1130EB06F01853221F4B70190E009D3E8CF512CBA
S1130EC0312C20E02032A0F48B3269F030F48032EF
S1130ED059F0833269F420612CC08D3239F08033AB
S1130EE039F4216026C02260246023C0286021C018
S1130EF027FD27C030ED380F3A3078F426FF06C0BE
S1130F00FAE05F9E300D1124532E13C08AE0389E00
S1130F10300D1124332E20620CC08E3221F426FDB4
S1130F205FC1206406C08C3611F4206802C0883684
S1130F3041F4F60193FD859193FF81916F01811135
S1130F40C1CF982F9F7D9554933028F40C5F1F4F89
S1130F50FFE3F9830DC0833631F0833771F08335B5
S1130F6009F057C021C0F801808189830E5F1F4FAB
S1130F7044244394512C540114C03801F2E06F0E00
S1130F80711CF801A080B18026FF03C0652D70E0BC
S1130F9002C06FEF7FEFC5012C877ED22C01830145
S1130FA02C852F77222E16C03801F2E06F0E711CAB
S1130FB0F801A080B18026FF03C0652D70E002C057
S1130FC06FEF7FEFC5012C8755D22C012C8520684B
S1130FD0222E830123FC19C0832D90E04816590664
S1130FE0A0F4B70180E290E072D23A94F5CFF50113
S1130FF027FC859127FE81915F01B70190E067D2BC
S113100031103A94F1E04F1A51084114510479F720
S1131010DEC0843611F0893631F5F80127FF07C0A8
S113102060817181828193810C5F1F4F08C0608150
S11310307181882777FD8095982F0E5F1F4F2F763B
S1131040B22E97FF09C090958095709561957F4F5A
S11310508F4F9F4F2068B22E2AE030E0A40169D25E
S1131060A82EA81843C0853729F42F7EB22E2AE073
S113107030E025C0F22FF97FBF2E8F36C1F018F46F
S1131080883579F0ADC0803719F0883721F0A8C0D1
S11310902F2F2061B22EB4FE0DC08B2D8460B82E8C
S11310A009C024FF0AC09F2F9660B92E06C028E00D
S11310B030E005C020E130E002C020E132E0F80178
S11310C0B7FE07C060817181828193810C5F1F4FDD
S11310D006C06081718180E090E00E5F1F4FA40123
S11310E028D2A82EA818FB2DFF77BF2EB6FE0BC062
S11310F02B2D2E7FA51450F4B4FE0AC0B2FC08C0F8
S11311002B2D2E7E05C07A2C2B2D03C07A2C01C0EA
S1131110752C24FF0DC0FE01EA0DF11D8081803382
S113112011F4297E09C022FF06C07394739404C08D
S1131130822F867809F0739423FD12C020FF06C025
S11311405A2C731418F4530C5718732C731460F43A
S1131150B70180E290E02C87BAD173942C85F6CF46
S1131160731410F4371801C0312C24FF11C0B701D7
S113117080E390E02C87ABD12C8522FF16C021FFA1
S113118003C088E590E002C088E790E0B7010CC096
S1131190822F867851F021FD02C080E201C08BE2EB
S11311A027FD8DE2B70190E092D1A51430F4B70188
S11311B080E390E08CD15A94F8CFAA94F401EA0D1C
S11311C0F11D8081B70190E082D1A110F6CF3320C8
S11311D009F45DCEB70180E290E079D13A94F7CF7B
S11311E0F7018681978102C08FEF9FEF2C96E2E191
S11311F01AC20F931F93CF93DF93869F8001879F1B
S1131200100D969F100D1124C8010DD0EC0100970C
S113121021F0A80160E070E038D1CE01DF91CF91D8
S11312201F910F910895CF93DF938230910510F4AD
S113123082E090E0E0911204F091130420E030E0A9
S1131240A0E0B0E0309739F1408151814817590747
S1131250B8F04817590771F482819381109729F0E7
S113126013969C938E9312972CC09093130480939F
S1131270120427C02115310531F04217530718F025
S1131280A901DB0101C0EF019A01BD01DF01028068
S1131290F381E02DD7CF21153105F9F0281B390B47
S11312A02430310580F48A819B816115710521F018
S11312B0FB019383828304C09093130480931204EC
S11312C0FE01329644C0FE01E20FF31F8193919315
S11312D022503109398328833AC020911004309177
S11312E01104232B41F42091020130910301309326
S11312F01104209310042091000130910101211563
S1131300310541F42DB73EB74091040150910501D8
S1131310241B350BE0911004F0911104E217F3073C
S1131320A0F42E1B3F0B2817390778F0AC014E5F51
S11313305F4F2417350748F04E0F5F1F5093110479
S1131340409310048193919302C0E0E0F0E0CF0158
S1131350DF91CF910895CF93DF93009709F487C06D
S1131360FC01329713821282C0911204D0911304AB
S1131370209781F420813181280F391F8091100436
S1131380909111048217930779F5F0931104E09377
S113139010046DC0DE0120E030E0AE17BF0750F44A
S11313A012964D915C9113979D014115510509F1D8
S11313B0DA01F3CFB383A28340815181840F951F57
S11313C08A179B0771F48D919C911197840F951F37
S11313D002969183808312968D919C9113979383A7
S11313E082832115310529F4F0931304E093120448
S11313F03EC0D9011396FC93EE9312974D915D91E3
S1131400A40FB51FEA17FB0779F480819181840F3B
S1131410951F0296D90111969C938E938281938194
S113142013969C938E931297E0E0F0E08A819B815F
S1131430009719F0FE01EC01F9CFCE010296288144
S11314403981820F931F20911004309111042817C1
S1131450390769F4309729F4109213041092120496
S113146002C013821282D0931104C0931004DF913E
S1131470CF910895FC010590615070400110D8F798
S1131480809590958E0F9F1F0895DC0101C06D9388
S113149041505040E0F70895FC01615070400190C4
S11314A00110D8F7809590958E0F9F1F0895DC0149
S11314B0FC01672F71917723E1F7329704C07C9187
S11314C06D9370836291AE17BF07C8F308950F93AD
S11314D01F93CF93DF93182F092FEB018B8181FD8D
S11314E003C08FEF9FEF20C082FF10C04E815F8149
S11314F02C813D81421753077CF4E881F9819F01D7
S11315002F5F3F4F39832883108306C0E885F98510
S1131510812F0995892B29F72E813F812F5F3F4F1A
S11315203F832E83812F902FDF91CF911F910F91B5
S11315300895FA01AA27283051F1203181F1E89465
S11315406F936E7F6E5F7F4F8F4F9F4FAF4FB1E0B2
S11315503ED0B4E03CD0670F781F891F9A1FA11DAD
S1131560680F791F8A1F911DA11D6A0F711D811DAE
S1131570911DA11D20D009F468943F912AE0269F73
S113158011243019305D3193DEF6CF010895462FD2
S11315904770405D4193B3E00FD0C9F7F6CF462FB3
S11315A04F70405D4A3318F0495D31FD405241931C
S11315B002D0A9F7EACFB4E0A695979587957795D9
S11315C06795BA95C9F700976105710508959B0160
S11315D0AC010A2E06945795479537952795BA95E9
S11315E0C9F7620F731F841F951FA01D08952F92C2
S11315F03F924F925F926F927F928F929F92AF929F
S1131600BF92CF92DF92EF92FF920F931F93CF93EB
S1131610DF93CDB7DEB7CA1BDB0B0FB6F894DEBF82
S11316200FBECDBF09942A88398848885F846E84A8
S11316307D848C849B84AA84B984C884DF80EE80F2
S1131640FD800C811B81AA81B981CE0FD11D0FB6FB
S1131650F894DEBF0FBECDBFED010895F894FFCF1F
S1131660000014042000FA0301FA0301FA0301FA4A
S11316700301FA0301FA03012020204D41494E20C1
S11316804D454E55202020202020202020202020A1
S113169020202020202020203E506C617920706F73
S11316A06E6720202020202020506C617920736EEA
S11316B0656B202020202020205468616E6B7320ED
S11316C0746F20202020202000202020504F4E47DF
S11316D0204D454E55202020202020202020202051
S11316E02020202020202020203E557365204A6F92
S11316F079737469636B2020202055736520736CA3
S1131700696465722020202020204869676873631B
S11317106F72657320202020202052657475726ECC
S11317202020202020202020200020534E454B5FE5
S11317304D454E55202020202020202020202020F0
S1131740202020202020202020203E506C61792061
S113175067616D65202020202020205265747572F9
S11317606E202020202020202020002020205448EB
S1131770414E4B5320544F20202020202020202055
S1131780202020202020202020202020506572208E
S11317904B2E204F6D76696B202020204D6172699D
S11317A075732045736B6564616C2020416E6465BC
S11317B0727320472E442E202020203E52657475DB
S11317C0726E202020202020202020004D43503203
S11317D0353135206973204E4F5420696E20636F74
S11317E07272656374206D6F6465206166746572DE
S11317F0207265736574212049747320636F6E666B
S113180069672062697473206172652025780A0013
S1131810596F75722053636F72653A2025640020F6
S11318202020504F4E474F004869676873636F72BA
S1131830653A004D6172697573202D20323535008B
S1131840596F75722053636F72653A203000506F80
S1131850736974696F6E3A204E2F41002D2D2D4807
S113186049474853434F5245532D2D2D20202020C6
S11318702020202020202020202020202020202064
S11318802020202020202020202020202020202054
S11318902020202020202020202020202020202044
S11318A02020202020202020202020202020202034
S11318B02020202020202020202020202020202024
S11318C02020202020202020202020203E5265742B
S11318D075726E2020202020202020200053656E69
S11318E0657265206E61766E3A202573200A004E7B
S11318F0414D453A20257309004E414D4520494E3E
S1131900206C6973743A2025730A00202020204338
S11319104F4E475241545321202020202020202084
S113192020202020202020202020202055736520E6
S113193074686520504320746F202020456E7465C0
S11319407220796F7572206E616D65002573006871
S1131950656565656565656569004D617269757381
S1091960202020200000FD
S9030000FC
