S00D00004E6F6465312E7372656360
S1130000BBC10000D5C10000D3C10000CAC20000BA
S1130010CFC10000CDC10000CBC10000C9C10000A8
S1130020C7C10000C5C10000C3C10000C1C10000B8
S1130030BFC10000BDC10000BBC10000B9C10000C8
S1130040B7C10000B5C10000B3C10000B1C10000D8
S1130050AFC10000ADC10000ABC10000A9C10000E8
S1130060A7C10000A5C10000A3C10000A1C10000F8
S1130070FFFFFFFFFFFFFFFF000000000000000084
S113008000065F5F06000000000707000707000086
S1130090147F7F147F7F1400242E6B6B3A120000B0
S11300A0466630180C666200307A4F5D377A480035
S11300B00407030000000000001C3E634100000030
S11300C00041633E1C000000082A3E1C1C3E2A0816
S11300D008083E3E0808000000A0E06000000000A0
S11300E0080808080808000000006060000000001C
S11300F06030180C060301003E7F594D7F3E00001E
S113010042427F7F40400000627359496F6600009D
S1130110226349497F360000181C16137F7F1000A4
S1130120276745457D3900003C7E4B497930000006
S1130130036371190F070000367F49497F360000B9
S1130140064F49693F1E000000006C6C000000006F
S113015000A0EC6C00000000081C366341000000A5
S113016014141414141400001818187E3C180000F9
S1130170020351590F0600003E7F415D5D1F1E00C2
S11301807C7E13137E7C0000417F7F49497F3600CB
S11301901C3E634141632200417F7F41637F1C0019
S11301A0417F7F495D416300417F7F491D01030019
S11301B01C3E6341517372007F7F08087F7F0000FB
S11301C000417F7F41000000307040417F3F0100CB
S11301D0417F7F081C776300417F7F41406070004E
S11301E07F7F060C067F7F007F7F060C187F7F00D1
S11301F01C3E6341633E1C00417F7F49090F06009A
S11302001E3F21717F5E0000417F7F19396F4600D8
S113021026674D597B32000003417F7F4103000074
S11302207F7F40407F7F00001F3F60603F1F0000D2
S11302307F7F3018307F7F0063771C081C77630052
S1130240074F78784F0700006773594D4763710073
S1130250007F7F41410000000103060C183060005C
S11302600041417F7F000000080C0603060C0800D3
S1130270808080808080808000000307040000006C
S1130280207454543C784000413F7F44447C3800FF
S1130290387C44446C280000307848493F7F400053
S11302A0387C54545C180000487E7F4903020000E7
S11302B098BCA4A4F87C0400417F7F08047C7800E7
S11302C000447D7D4000000040C484FD7D000000AA
S11302D0417F7F10386C440000417F7F4000000064
S11302E07C7C0C180C7C78007C7C04047C780000FA
S11302F0387C44447C38000084FCF8A4243C180076
S1130300183C24A4F8FC8400447C78441C180000A5
S1130310485C54547424000000043E7F44240000CC
S11303203C7C40403C7C40001C3C60603C1C000029
S11303303C7C6030607C3C00446C3810386C440079
S11303409CBCA0A0FC7C00004C64745C4C64000069
S113035008083E7741410000000000777700000064
S11303604141773E08080000020301030203010033
S11303701818187E3C18000011241FBECFEFD4E0DB
S1130380DEBFCDBF13E0A0E0B1E0EEEDF7E102C0C7
S113039005900D92A63CB107D9F723E0A6ECB3E093
S11303A001C01D92A43DB207E1F72AD20C94ED0BD3
S11303B027CE823099F018F4813031F02DC083308B
S11303C0B9F08430F9F028C084E08093001482E608
S11303D08A95F1F7000080910014089585E08093D8
S11303E0001482E68A95F1F70000809100140895C4
S11303F086E08093001482E68A95F1F700008091EC
S11304000014089587E08093001482E68A95F1F73A
S1130410000080910014089580E0089570D2F8944B
S11304208BB780628BBF789408951F93CF93DF932B
S1130430EC016881798176956795769567957695CF
S1130440679581E324D268816295660F607E82E3BA
S11304501ED26A8185E31BD28A81882361F010E071
S1130460FE01E10FF11D638186E3810F10D21F5F4E
S11304708A811817A8F381E81DD2DF91CF911F91CB
S113048008951F93CF93DF93EC018091C6038823D3
S113049071F181E6F1D1182F82E6EED1482F429511
S11304A046954770212F30E0C901880F991F880FA6
S11304B0991F880F991F842B9983888385E6DCD143
S11304C08A83882361F010E086E6810FD5D1FE018E
S11304D0E10FF11D83831F5F8A811817A8F340E0A1
S11304E061E08CE2EBD11092C60381E001C080E0B0
S11304F0DF91CF911F910895CF92DF92EF92FF92F7
S11305000F931F93CF93DF936C01FC0181818F9331
S113051080818F9388E191E09F938F9331D5F60189
S113052082811F928F9389E291E09F938F9328D5C4
S11305308EE391E09F938F9323D5F60182812DB7AB
S11305403EB7265F3F4F0FB6F8943EBF0FBE2DBF98
S11305508823D9F0760133E0E30EF11CC0E0D0E04B
S11305600DE411E0F70181917F011F928F931F9396
S11305700F9306D52196F601228130E00F900F905B
S11305800F900F90C217D3076CF38AE090E009D55F
S1130590DF91CF911F910F91FF90EF90DF90CF905B
S11305A008951F920F920FB60F9211248F9381E03A
S11305B08093C6038F910F900FBE0F901F901895D4
S11305C0FF920F931F93CF93DF93CDB7DEB72B9793
S11305D00FB6F894DEBF0FBECDBFF82EDFD0082FC4
S11305E00CD1182FD7D02F2D30E03A83298393E0F4
S11305F09B830C831D838E83CE01019616DF2B967D
S11306000FB6F894DEBF0FBECDBFDF91CF911F911F
S11306100F91FF900895FF920F931F93CF93DF9351
S1130620CDB7DEB72B970FB6F894DEBF0FBECDBFA4
S1130630F82EB4D0082FBAD0182FACD02F2D30E01C
S11306403A83298393E09B830C831D838E83CE019D
S11306500196EBDE2B960FB6F894DEBF0FBECDBF2E
S1130660DF91CF911F910F91FF9008958091C7035F
S11306700895E0D180E591E055D226D21092C703C7
S1130680089501D466D184EA8A95F1F781D068D1BE
S113069080E0C4DEEECF0895CDD182E991E042D26C
S11306A013D281E08093C7030895C4D184EE91E00E
S11306B039D20AD282E08093C7030895BBD186E180
S11306C092E030D201D283E08093C7030895AF92C1
S11306D0BF92CF92DF92EF92FF920F931F93CF932B
S11306E0DF9301E010E06894AA24A1F8E12CF12C36
S11306F0C82ED12C01C0890161D0B82EC82FDD27A6
S1130700C7FDD095E114F104C9F42097D1F0C230AB
S1130710D105C1F09E012A0D311D223031058CF026
S1130720C216D30674F08A2D60D180E2BDD1AB0C21
S11307308A2D5BD18EE3B8D1C7D103C0C230D105B5
S113074009F07E0127D0282F30E0012BA1F62130BB
S1130750310589F68A2DDF91CF911F910F91FF907A
S1130760EF90DF90CF90BF90AF900895CF93DF9339
S1130770C1E0D0E001C0CD2F0DD0882311F0CC23EF
S113078021F008D08823B9F3F7CFDF91CF910895F2
S1130790959A089581E0859980E0089581E009DEC5
S11307A095E8980F973108F48FE7089582E001DE09
S11307B095E8980F973108F48FE70895CF9382E076
S11307C0F8DDC82F1F928F9328E632E03F932F93D2
S11307D0D7D30F900F900F900F90C53038F0CB3FC8
S11307E038F4CD57C93030F480E005C081E003C04F
S11307F08FEF01C082E0CF91089584E0DACD0895AF
S113080040DF34DF8130A1F028F0823041F18330C1
S113081061F1F7CF84E05BDF833031F0843031F075
S1130820823079F739DFEDCF40DFEBCF47DFE9CF17
S113083085E04DDF833061F018F4823031F0E1CF90
S1130840843049F0853049F0DCCF80E071D2D9CFD3
S113085081E06ED2D6CF75D2D4CF0BDFD2CF83E076
S113086036DF833071F605DFCCCF82E030DF8230B3
S113087009F0C7CFFEDEC5CFCF93C82FC49883E05D
S1130880F6D28C2FF4D2EDD2C49ACF910895CF939F
S1130890DF93D82FC62FC49882E0E9D28D2FE7D2F8
S11308A08C2FE5D2C49ADF91CF910895682F8FE001
S11308B0EECF0895C498DBD2C49A08951F93CF93C2
S11308C0DF93182FD62FC42FC49885E0D0D2812F60
S11308D0CED28D2FCCD28C2FCAD2C49ADF91CF9195
S11308E01F910895C49880ECC2D240E860E88FE07C
S11308F0E5DFC49A80E18A95F1F700C00895CF93AB
S1130900C82FA8D2EFDF8EE0B7DF807E8038F1F405
S11309108C2FCCDF8EE0B0DF807E282F30E04C2F90
S113092050E04217530769F01F928F938FE692E0CD
S11309309F938F9325D30F900F900F900F9081E08A
S113094006C063E08BE2A3DF80E001C081E0CF91C9
S1130950089585B7806885BF86B7846086BF08958B
S1130960E0E0F0E18EEA808381EA80838AED80838F
S113097082E1808388EC808388EA80838FE38083AC
S113098085ED808380E8808381E880838AE08083AA
S113099089ED808381E2808380E2808382E08083AA
S11309A08BED808380E380838DEA8083108284EAE8
S11309B0808386EA80838FEA8083E0E0F8E180E246
S11309C090E0918380833196E03828E1F207C9F7FB
S11309D00895E0E0F0E180EB808380E18083108281
S11309E01092C9031092C803089590EB980FE0E0A9
S11309F0F0E1908390E19083108220E1829FC00116
S1130A0011249093C9038093C803089520E1829F21
S1130A10C0011124FC01F85E9C01205F374E40E2C6
S1130A204193E217F307E1F740969093C90380934B
S1130A30C8030895CF93C0E08C2FE8DFCF5FC830A0
S1130A40D9F7C7DFCF9108958F317CF098E0890200
S1130A50F0011124E858F04088E0A0E0B2E194915C
S1130A609C93815031968111FACF0895FC01408105
S1130A704423C9F05091C803252F3091C90320386D
S1130A8031051CF4F901F85E40832F5F3F4F422F7C
S1130A90451BFC01E40FF11D40814111F0CF30935F
S1130AA0C9032093C80308958F316CF02091C803C3
S1130AB03091C903F901F85E80832F5F3F4F309373
S1130AC0C9032093C8030895EF92FF920F931F93D5
S1130AD0CF93DF937EDF01E010E0C0E0D0E0E12CB3
S1130AE003C021960F5F1F4FFE01F85EF0809E0148
S1130AF02F703327232B29F4209751F0E3948E2D64
S1130B0074DF8F2DA1DF003811055CF362DF03C0B1
S1130B108F2D9ADFE6CFDF91CF911F910F91FF9038
S1130B20EF900895FF920F931F93CF93DF93EC01FF
S1130B301092C9031092C803FF24F39403EB12E04C
S1130B4035C020383105E4F5F901F85E843A31F511
S1130B50C90199230CF40F969595879595958795DA
S1130B6095958795959587959F938F931F930F934D
S1130B7007D28091C8039091C90399230CF40F966E
S1130B809595879595958795959587959595879549
S1130B903DDF0F900F900F900F9007C080832F5F61
S1130BA03F4F3093C9032093C803F3948FEF8F0D05
S1130BB0FE01E80FF11D80812091C8033091C90323
S1130BC08111BFCFDF91CF911F910F91FF900895B5
S1130BD00F931F93CF93DF93CDB7DEB760970FB614
S1130BE0F894DEBF0FBECDBF182F85E00FDF85E080
S1130BF0FCDE1F921F9383EC92E09F938F938E01F0
S1130C000F5F1F4F1F930F93D1D1C8012FDF5CDFFC
S1130C100F900F900F900F900F900F9060960FB65B
S1130C20F894DEBF0FBECDBFDF91CF911F910F911E
S1130C3008951F93CF93DF93CDB7DEB72B970FB6ED
S1130C40F894DEBF0FBECDBF182FF4DE83ED92E023
S1130C5069DF3ADF1A82198281E08B831C83CE011B
S1130C600196E3DB2B960FB6F894DEBF0FBECDBF23
S1130C70DF91CF911F9108951F93CF93DF93CDB749
S1130C80DEB72B970FB6F894DEBF0FBECDBF80E062
S1130C90D0DF10E00EC0CE0101962EDC9C819111B4
S1130CA00EC082E0B8DC9D81992319F01F5F812F6B
S1130CB08FDFCE010196E5DB8823D9F3ECCFECDCA2
S1130CC02B960FB6F894DEBF0FBECDBFDF91CF9148
S1130CD01F9108951F93CF93DF93CDB7DEB72B9762
S1130CE00FB6F894DEBF0FBECDBF81E0A2DF10E0E7
S1130CF00EC0CE01019600DC9C8191110EC082E0F1
S1130D005FDC9D81992319F01F5F812F61DFCE0184
S1130D100196B7DB8823D9F3ECCFBEDC2B960FB654
S1130D20F894DEBF0FBECDBFDF91CF911F91089520
S1130D30882319F0813019F008959ECF0895CACF01
S1130D400895CF92DF92EF92FF920F931F93CF9368
S1130D50DF9300D01F92CDB7DEB786E293E0E2DEE8
S1130D608091080181113EC039C0F801EE0FFF1FC8
S1130D70E00FF11FEA5FFE4F8281882379F181E061
S1130D80800F33DE7801EE0CFF1CC701800F911F2A
S1130D909C012A5F3E4F7901F901808191819F93E3
S1130DA08F93DF92CF92ECD0F701808191815EDE48
S1130DB080E27ADEF70182814AE0BE016F5F7F4FF5
S1130DC090E071D0CE01019651DE0F5F1F4F0F905E
S1130DD00F900F900F900630110539F675DEC6DCC2
S1130DE048DC2CC081E001DE06E011E0F8018081DE
S1130DF091819F938F938DE493E09F938F93C0D0C1
S1130E00F8018081918132DE80E24EDE809108011A
S1130E104AE0BE016F5F7F4F90E045D0CE0101965E
S1130E2025DE0F900F900F900F9001E010E00F2E31
S1130E30FDE4CF2EF3E0DF2EF02D97CF0F900F902F
S1130E400F90DF91CF911F910F91FF90EF90DF9062
S1130E50CF90089587B3806B87BB81E18DB96E9A7B
S1130E6008958FEF8FB9779BFECF8FB108958FB917
S1130E70779BFECF08955D9BFECF8CB908955F9B51
S1130E80FECF8CB1089510BC8FE189B988E18AB98D
S1130E908EE880BD80B58E7F80BD6FE377E08BE305
S1130EA097E024C00895BB274A3031F4992322F4F3
S1130EB0BDE2909581959F4F01C0BB27FB0155274B
S1130EC0AA27880F991FAA1FA41710F0A41B8395A3
S1130ED05051B9F7A05DAA3308F0A95DA19300971A
S1130EE079F7B111B1931192CB01A0C30F931F9362
S1130EF0CF93DF93EC018B01009731F461157105F9
S1130F0019F480E090E037C06EE070E081E090E09A
S1130F102FD2FC010097A9F380E883830115110502
S1130F2071F01387028781E883838091CA039091CB
S1130F30CB03892B21F4F093CB03E093CA032097CE
S1130F40C9F0D187C0878381826083838091CC0379
S1130F509091CD03892B71F4F093CD03E093CC03EE
S1130F608091CE039091CF03892B21F4F093CF038A
S1130F70E093CE03CF01DF91CF911F910F9108959C
S1130F80A0E0B0E0E5ECF7E001C4FE013596619124
S1130F907191AF018091CC039091CD0326D0E2E012
S1130FA011C46091CC037091CD0350C3AEE0B0E0A6
S1130FB0EBEDF7E0E9C30D891E8986E08C831A8383
S1130FC009838FEF9FE79E838D83AE01475E5F4F5A
S1130FD06F89788DCE01019608D0EF81F885E00FF6
S1130FE0F11F10822E96E4E0EBC3ACE0B0E0EAEF30
S1130FF0F7E0BCC37C016B018A01FC0117821682F5
S1131000838181FFB0C1CE0101964C01F701938128
S1131010F60193FD859193FF81916F01882309F473
S11310209EC1853239F493FD859193FF81916F01BF
S1131030853221F4B70190E009D3E8CF512C312C4B
S113104020E02032A0F48B3269F030F4803259F081
S1131050833269F420612CC08D3239F0803339F445
S1131060216026C02260246023C0286021C027FD9F
S113107027C030ED380F3A3078F426FF06C0FAE086
S11310805F9E300D1124532E13C08AE0389E300D1C
S11310901124332E20620CC08E3221F426FD5FC150
S11310A0206406C08C3611F4206802C0883641F4EE
S11310B0F60193FD859193FF81916F018111C1CF59
S11310C0982F9F7D9554933028F40C5F1F4FFFE3B6
S11310D0F9830DC0833631F0833771F0833509F01D
S11310E057C021C0F801808189830E5F1F4F4424BB
S11310F04394512C540114C03801F2E06F0E711C5A
S1131100F801A080B18026FF03C0652D70E002C005
S11311106FEF7FEFC5012C877ED22C0183012C85D4
S11311202F77222E16C03801F2E06F0E711CF801E1
S1131130A080B18026FF03C0652D70E002C06FEF70
S11311407FEFC5012C8755D22C012C852068222ED7
S1131150830123FC19C0832D90E048165906A0F49E
S1131160B70180E290E072D23A94F5CFF50127FC02
S1131170859127FE81915F01B70190E067D231101C
S11311803A94F1E04F1A51084114510479F7DEC042
S1131190843611F0893631F5F80127FF07C06081E4
S11311A07181828193810C5F1F4F08C060817181BE
S11311B0882777FD8095982F0E5F1F4F2F76B22ECC
S11311C097FF09C090958095709561957F4F8F4FDB
S11311D09F4F2068B22E2AE030E0A40169D2A82EE5
S11311E0A81843C0853729F42F7EB22E2AE030E0B8
S11311F025C0F22FF97FBF2E8F36C1F018F4883541
S113120079F0ADC0803719F0883721F0A8C02F2FAE
S11312102061B22EB4FE0DC08B2D8460B82E09C09F
S113122024FF0AC09F2F9660B92E06C028E030E044
S113123005C020E130E002C020E132E0F801B7FE51
S113124007C060817181828193810C5F1F4F06C04A
S11312506081718180E090E00E5F1F4FA40128D26D
S1131260A82EA818FB2DFF77BF2EB6FE0BC02B2D82
S11312702E7FA51450F4B4FE0AC0B2FC08C02B2D76
S11312802E7E05C07A2C2B2D03C07A2C01C0752C20
S113129024FF0DC0FE01EA0DF11D8081803311F49D
S11312A0297E09C022FF06C07394739404C0822F60
S11312B0867809F0739423FD12C020FF06C05A2CCF
S11312C0731418F4530C5718732C731460F4B70187
S11312D080E290E02C87BAD173942C85F6CF7314F6
S11312E010F4371801C0312C24FF11C0B70180E37A
S11312F090E02C87ABD12C8522FF16C021FF03C0C0
S113130088E590E002C088E790E0B7010CC0822F26
S1131310867851F021FD02C080E201C08BE227FDF6
S11313208DE2B70190E092D1A51430F4B70180E3C7
S113133090E08CD15A94F8CFAA94F401EA0DF11DEF
S11313408081B70190E082D1A110F6CF332009F457
S11313505DCEB70180E290E079D13A94F7CFF701FE
S11313608681978102C08FEF9FEF2C96E2E11AC22B
S11313700F931F93CF93DF93869F8001879F100D58
S1131380969F100D1124C8010DD0EC01009721F097
S1131390A80160E070E038D1CE01DF91CF911F91B8
S11313A00F910895CF93DF938230910510F482E07A
S11313B090E0E091D203F091D30320E030E0A0E08C
S11313C0B0E0309739F14081518148175907B8F09E
S11313D04817590771F482819381109729F0139665
S11313E09C938E9312972CC09093D3038093D20333
S11313F027C02115310531F04217530718F0A90110
S1131400DB0101C0EF019A01BD01DF010280F3811C
S1131410E02DD7CF21153105F9F0281B390B2430E5
S1131420310580F48A819B816115710521F0FB01EE
S11314309383828304C09093D3038093D203FE01E9
S1131440329644C0FE01E20FF31F81939193225020
S11314503109398328833AC02091D0033091D103D4
S1131460232B41F420910201309103013093D103E5
S11314702093D00320910001309101012115310501
S113148041F42DB73EB74091040150910501241B4E
S1131490350BE091D003F091D103E217F307A0F4E8
S11314A02E1B3F0B2817390778F0AC014E5F5F4FB6
S11314B02417350748F04E0F5F1F5093D103409314
S11314C0D0038193919302C0E0E0F0E0CF01DF917B
S11314D0CF910895CF93DF93009709F487C0FC015F
S11314E0329713821282C091D203D091D3032097F2
S11314F081F420813181280F391F8091D00390918C
S1131500D1038217930779F5F093D103E093D003C5
S11315106DC0DE0120E030E0AE17BF0750F4129634
S11315204D915C9113979D014115510509F1DA0123
S1131530F3CFB383A28340815181840F951F8A170F
S11315409B0771F48D919C911197840F951F0296BE
S11315509183808312968D919C91139793838283B8
S11315602115310529F4F093D303E093D2033EC04F
S1131570D9011396FC93EE9312974D915D91A40FAC
S1131580B51FEA17FB0779F480819181840F951FB9
S11315900296D90111969C938E938281938113961E
S11315A09C938E931297E0E0F0E08A819B810097F0
S11315B019F0FE01EC01F9CFCE01029628813981A0
S11315C0820F931F2091D0033091D103281739073C
S11315D069F4309729F41092D3031092D20302C015
S11315E013821282D093D103C093D003DF91CF91A1
S11315F00895FC010590615070400110D8F7809562
S113160090958E0F9F1F0895DC0101C06D9341508A
S11316105040E0F70895FC016150704001900110C2
S1131620D8F7809590958E0F9F1F0895DC01FC01DB
S1131630672F71917723E1F7329704C07C916D9302
S113164070836291AE17BF07C8F308950F931F9379
S1131650CF93DF93182F092FEB018B8181FD03C0FA
S11316608FEF9FEF20C082FF10C04E815F812C81DD
S11316703D81421753077CF4E881F9819F012F5F74
S11316803F4F39832883108306C0E885F985812F6D
S11316900995892B29F72E813F812F5F3F4F3F8387
S11316A02E83812F902FDF91CF911F910F91089559
S11316B0FA01AA27283051F1203181F1E8946F937F
S11316C06E7F6E5F7F4F8F4F9F4FAF4FB1E03ED025
S11316D0B4E03CD0670F781F891F9A1FA11D680FC3
S11316E0791F8A1F911DA11D6A0F711D811D911DF6
S11316F0A11D20D009F468943F912AE0269F11246B
S11317003019305D3193DEF6CF010895462F4770CE
S1131710405D4193B3E00FD0C9F7F6CF462F4F7029
S1131720405D4A3318F0495D31FD4052419302D087
S1131730A9F7EACFB4E0A69597958795779567952D
S1131740BA95C9F700976105710508959B01AC012D
S11317500A2E06945795479537952795BA95C9F754
S1131760620F731F841F951FA01D08952F923F922F
S11317704F925F926F927F928F929F92AF92BF929D
S1131780CF92DF92EF92FF920F931F93CF93DF9349
S1131790CDB7DEB7CA1BDB0B0FB6F894DEBF0FBEA6
S11317A0CDBF09942A88398848885F846E847D84F3
S11317B08C849B84AA84B984C884DF80EE80FD80F5
S11317C00C811B81AA81B981CE0FD11D0FB6F8946B
S11117D0DEBF0FBECDBFED010895F894FFCF2C
S11317DE0000D4032000BB0301BB0301BB0301BB08
S11317EE0301BB0301BB030143414E206D7367200C
S11317FE49443A202564200A0043414E206D736704
S113180E206C656E6774683A202564200A00434193
S113181E4E206D736720646174613A200025780050
S113182E2020204D41494E204D454E55202020204C
S113183EA43E506C617920706F6E672020202020AA
S113184E2020506C617920736E656B20202020203F
S113185E20205468616E6B7320746F20202020202A
S113186E2000202020504F4E47204D454E5520201D
S113187E2020A43E557365204A6F79737469636B97
S113188E2020202055736520736C696465722020B6
S113189E202020204869676873636F726573202067
S11318AE2020202052657475726E20202020202066
S11318BE202020002020534E454B204D454E5520D0
S11318CE20202020A43E506C617920736E656B201D
S11318DE20202020202052657475726E2020202036
S11318EE2020202020002020205448414E4B5320FD
S11318FE544F20202020A420506572204B2E204FC0
S113190E6D76696B202020204D61726975732045B8
S113191E736B6564616C2020416E6465727320473D
S113192E2E442E202020203E52657475726E202087
S113193E2020202020202000593A2025640A004D22
S113194E435032353135206973204E4F5420696E21
S113195E20636F7272656374206D6F6465206166B7
S113196E74657220726573657421204974732063E3
S113197E6F6E6669672062697473206172652025D3
S113198E780A00636C656172206C696E653A202575
S113199E640A0020596F75722073636F72653A2062
S11319AE25640020504C4159494E4720504F4E4714
S11319BE202020A4204869676873636F72653A20FB
S11319CE20202020204D6172697573202D20323520
S11319DE35202020A420596F75722073636F7265B1
S11319EE3A2030202020506F736974696F6E3A204C
S11319FE4E2F412020002D2D2D4849474853434F4B
S1131A0E5245532D2D2DA4A4A4A4A4A43E52657412
S1131A1E75726E2020202020202020200053656E19
S1131A2E657265206E61766E3A202573200A004E2B
S1131A3E414D453A20257309004E414D4520494EEE
S1131A4E206C6973743A2025730A002020202043E9
S1131A5E4F4E475241545321202020A420557365E4
S1131A6E2074686520504320746F202020456E74C6
S1131A7E657220796F7572206E616D650025730035
S1131A8E68656565656565656569004D617269754D
S1091A9E7320202020004B
S9030000FC
