S00D00004E6F6465312E7372656360
S1130000C1C10000DBC10000D9C100007FC20000F3
S1130010D5C10000D3C10000D1C10000CFC1000090
S1130020CDC10000CBC10000C9C10000C7C10000A0
S1130030C5C10000C3C10000C1C10000BFC10000B0
S1130040BDC10000BBC10000B9C10000B7C10000C0
S1130050B5C10000B3C10000B1C10000AFC10000D0
S1130060ADC10000ABC10000A9C10000A7C10000E0
S11300706364696E6F70737578585B00FFFFFFFFF0
S1130080FFFFFFFF000000000000000000065F5FAC
S1130090060000000007070007070000147F7F1414
S11300A07F7F1400242E6B6B3A12000046663018D2
S11300B00C666200307A4F5D377A4800040703000B
S11300C000000000001C3E63410000000041633E4C
S11300D01C000000082A3E1C1C3E2A0808083E3E5C
S11300E00808000000A0E0600000000008080808FC
S11300F00808000000006060000000006030180C78
S1130100060301003E7F594D7F3E000042427F7F3F
S113011040400000627359496F66000022634949F8
S11301207F360000181C16137F7F10002767454593
S11301307D3900003C7E4B4979300000036371191E
S11301400F070000367F49497F360000064F496992
S11301503F1E000000006C6C0000000000A0EC6C6E
S113016000000000081C366341000000141414143D
S1130170141400001818187E3C180000020351598A
S11301800F0600003E7F415D5D1F1E007C7E131341
S11301907E7C0000417F7F49497F36001C3E6341DD
S11301A041632200417F7F41637F1C00417F7F497F
S11301B05D416300417F7F491D0103001C3E634193
S11301C0517372007F7F08087F7F000000417F7FAA
S11301D041000000307040417F3F0100417F7F08B3
S11301E01C776300417F7F41406070007F7F060C75
S11301F0067F7F007F7F060C187F7F001C3E6341D3
S1130200633E1C00417F7F49090F06001E3F217198
S11302107F5E0000417F7F19396F460026674D5984
S11302207B32000003417F7F410300007F7F404019
S11302307F7F00001F3F60603F1F00007F7F3018FA
S1130240307F7F0063771C081C776300074F787842
S11302504F0700006773594D47637100007F7F416A
S1130260410000000103060C183060000041417F8A
S11302707F000000080C0603060C080080808080C4
S11302808080808000000307040000002074545420
S11302903C784000413F7F44447C3800387C4444EF
S11302A06C280000307848493F7F4000387C545423
S11302B05C180000487E7F490302000098BCA4A497
S11302C0F87C0400417F7F08047C780000447D7D35
S11302D04000000040C484FD7D000000417F7F1089
S11302E0386C440000417F7F400000007C7C0C1887
S11302F00C7C78007C7C04047C780000387C4444CA
S11303007C38000084FCF8A4243C1800183C24A485
S1130310F8FC8400447C78441C180000485C545465
S11303207424000000043E7F442400003C7C4040D0
S11303303C7C40001C3C60603C1C00003C7C603009
S1130340607C3C00446C3810386C44009CBCA0A019
S1130350FC7C00004C64745C4C64000008083E772C
S11303604141000000000077770000004141773EE2
S11303700808000002030103020301001818187E94
S11303803C18000011241FBECFEFD4E0DEBFCDBF68
S113039013E0A0E0B1E0E2E5F2E202C005900D92C4
S11303A0AE3CB107D9F723E0AEECB3E001C01D9237
S11303B0AC3DB207E1F7CBD10C94271121CE8230AA
S11303C099F018F4813031F02DC08330B9F08430C5
S11303D0F9F028C0E0E0F4E184E0808382E68A95C5
S11303E0F1F7000080810895E0E0F4E185E0808386
S11303F082E68A95F1F7000080810895E0E0F4E157
S113040086E0808382E68A95F1F700008081089572
S1130410E0E0F4E187E0808382E68A95F1F700006A
S11304208081089580E008951BD2F8948BB7806290
S11304308BBF789408950F931F93CF938C01FC0185
S113044060817181769567957695679576956795C0
S113045081E3CED1F80160816295660F607E82E30C
S1130460C7D1F801628185E3C3D1F8018281882371
S113047069F0C0E0F801EC0FF11D638186E38C0F95
S1130480B7D1CF5FF8018281C817A0F381E8C3D147
S1130490CF911F910F9108950F931F93CF938C01C8
S11304A08091CE03882371F181E697D1C82F82E62B
S11304B094D12C2F30E0220F331F220F331F220F31
S11304C0331F829586958770282BF801318320830A
S11304D085E683D1F8018283882369F0C0E086E64B
S11304E08C0F7BD1F801EC0FF11D8383CF5FF801F2
S11304F08281C817A0F340E061E08CE290D11092B1
S1130500CE0381E0CF911F910F9108951F920F9216
S11305100FB60F9211248F9381E08093CE038F91B5
S11305200F900FBE0F901F901895FF920F931F937B
S1130530CF93DF93CDB7DEB72B970FB6F894DEBF1A
S11305400FBECDBF182FDFD0F82EFED0082FD7D086
S1130550212F30E03A83298393E09B83FC820D832F
S11305608E83CE01019667DF2B960FB6F894DEBF1B
S11305700FBECDBFDF91CF911F910F91FF900895D2
S1130580FF920F931F93CF93DF93CDB7DEB72B97D3
S11305900FB6F894DEBF0FBECDBF182FB4D0F82E1F
S11305A0BAD0082FACD0212F30E03A83298393E0CE
S11305B09B83FC820D838E83CE0101963CDF2B96B8
S11305C00FB6F894DEBF0FBECDBFDF91CF911F9160
S11305D00F91FF900895E199FECF9FBB8EBB6DBB39
S11305E0E29AE19A0895E199FECF9FBB8EBBE09A0F
S11305F08DB308958091CF030895C3D183E291E030
S11306003FD210D21092CF03089559D653D184EA21
S11306108A95F1F772D055D180E006DF35D6EDCF5B
S11306200895AFD185E691E02BD2FCD181E080938F
S1130630CF030895A6D187EB91E022D2F3D182E0D3
S11306408093CF0308959DD189EE91E019D2EAD128
S113065083E08093CF030895EF92FF920F931F934B
S1130660CF93DF9302E0D1E012E0E82EF12C03C037
S1130670D82F01C0D82F57D0C82F11111AC08823E2
S113068009F18230C9F0282F880F330B200F311D58
S113069022303105BCF0E216F306A4F0802F4BD1D2
S11306A080E2B0D10C0F802F46D18EE3ABD1BAD10A
S11306B009C0823009F0182F22D0D111D9CF81304E
S11306C0C9F602C01C2FF8CF802FDF91CF911F9164
S11306D00F91FF90EF900895CF93DF93C1E0D0E0A6
S11306E00ED0882311F0CC2329F009D08111F8CF42
S11306F0CD2FF6CFDF91CF910895959A089581E09B
S1130700859980E0089581E05ADE95E8980F973145
S113071008F48FE7089582E052DE9DE8980F9F3138
S113072008F48FE7089582E04ADE853038F08B3F85
S113073038F484578D3130F082E0089581E00895D3
S11307408FEF089580E0089584E039CE08955DDF49
S113075051DF8130B1F038F0823009F430C0833099
S113076009F434C0F5CF84E077DF833031F084308E
S113077031F0823069F755DFEBCF5CDFE9CF63DF1F
S1130780E7CF85E069DF833079F018F4823031F007
S1130790DFCF843071F0853081F0DACF80E008D586
S11307A0DDD29ADF3EDFD4CF81E002D595DF39DF99
S11307B0CFCFD4D291DF35DFCBCF1FDFC9CF83E0DA
S11307C04BDF833009F0C4CF18DFC2CF82E044DFAF
S11307D0823009F0BDCF11DFBBCFCF93C82FC498AF
S11307E083E061D58C2F5FD558D5C49ACF910895F5
S11307F0CF93DF93D82FC62FC49882E054D58D2F82
S113080052D58C2F50D5C49ADF91CF910895682F7B
S11308108FE0EECF0895C49846D5C49A08951F93E7
S1130820CF93DF93182FD62FC42FC49885E03BD5E0
S1130830812F39D58D2F37D58C2F35D5C49ADF919B
S1130840CF911F910895C49880EC2DD540E860E8BD
S11308508FE0E5DFC49A80E18A95F1F700C008953E
S1130860CF93C82F13D5EFDF8EE0B7DF807E8038BB
S1130870F1F48C2FCCDF8EE0B0DF807E482F50E087
S11308802C2F30E04217530769F01F928F938BE3AC
S113089092E09F938F9390D50F900F900F900F90AD
S11308A081E006C063E08BE2A3DF80E001C081E069
S11308B0CF91089585B7806885BF86B7846086BF69
S11308C00895E0E0F0E18EEA808381EA80838AED96
S11308D0808382E1808388EC808388EA80838FE34D
S11308E0808385ED808380E8808381E880838AE04B
S11308F0808389ED808381E2808380E2808382E04B
S113090080838BED808380E380838DEA80831082F3
S113091084EA808386EA80838FEA80830895E0E016
S1130920F0E180EB808380E1808310821092D10318
S11309301092D003089590EB980FE0E0F0E19083DB
S113094090E19083108220E1829FC0011124909352
S1130950D1038093D003089590E1899FA0011124CD
S1130960FA01F85E9A01205F374E90E29193E21704
S1130970F307E1F7405F5F4F5093D1034093D003F7
S11309800895CF93C0E08C2FE7DFCF5FC830D9F74D
S1130990C6DFCF9108958F31BCF0082E000C990B5F
S11309A04F97880F991F880F991F880F991FFC0173
S11309B0E458FF4F8C579F4FA0E0B2E124912C9351
S11309C03196E817F907D1F70895DC014C914423D7
S11309D0C1F02091D0033091D10390E0203831054B
S11309E01CF4F901F85E40832F5F3F4F9F5FFD01C8
S11309F0E90FF11D40814111F1CF3093D1032093D0
S1130A00D00308958F316CF02091D0033091D1033D
S1130A10F901F85E80832F5F3F4F3093D103209319
S1130A20D0030895EF92FF920F931F93CF93DF9318
S1130A3076DF01E010E0C0E0D0E0E12C03C02196B5
S1130A400F5F1F4FFE01F85EF080CE018F70992773
S1130A50892B29F4209751F0E3948E2D6CDF8F2D90
S1130A609ADF003811055CF35ADF03C08F2D93DF42
S1130A70E6CFDF91CF911F910F91FF90EF900895F2
S1130A800F931F93CF938C014ADFC1E01DC0203820
S1130A90310524F5843A71F4C90199230CF40F96B5
S1130AA0959587959595879595958795959587952A
S1130AB053DF09C0F901F85E80832F5F3F4F309305
S1130AC0D1032093D003CF5F8FEF8C0FF801E80F91
S1130AD0F11D80812091D0033091D1038111D7CFB2
S1130AE0CF911F910F9108951F93CF93DF9349DF07
S1130AF083E021DF8FE792E068DF11E0CBE3D0E011
S1130B0002C021961F5FD093D103C093D00311304C
S1130B1069F48EE277DF86DF2FEF8FEF98E02150C4
S1130B2080409040E1F700C00000EBCF8EE26ADF26
S1130B30D093D103C093D00375DF2FEF8FEF98E0EC
S1130B40215080409040E1F700C000001330C8F20B
S1130B50DF91CF911F9108951F93CF93DF9311DFFE
S1130B6083E0E9DE8FE792E030DF11E0CBE3D0E011
S1130B7002C021961F5FD093D103C093D0031130DC
S1130B8069F48EE23FDF4EDF2FEF8FEF91E12150CA
S1130B9080409040E1F700C00000EBCF8EE232DFEE
S1130BA0D093D103C093D0033DDF2FEF8FEF91E1BA
S1130BB0215080409040E1F700C000001330C8F29B
S1130BC0DF91CF911F910895DCDE83E0B4DE80E9EC
S1130BD092E0FBDE27DF2FEF8FEF9DE12150804075
S1130BE09040E1F700C000000895FF920F931F9317
S1130BF0CF93DF93CDB7DEB760970FB6F894DEBF1F
S1130C000FBECDBFF82E85E0A7DE85E094DE1F92EF
S1130C10FF9281EA92E09F938F938E010F5F1F4FA3
S1130C201F930F93EFD3C801D0DE809108010F907A
S1130C300F900F900F900F900F908F15C8F081E0D8
S1130C4090E020E12A95F1F700C0382F8C01FC01D7
S1130C50EE0FFF1FE80FF91FEA5FFE4F22812F15E9
S1130C6020F001968730910561F7363019F41CC0E5
S1130C7000E010E086E070DE86E05DDE0F5F1F4F6F
S1130C801F930F9381EB92E09F938F938E010F5FDD
S1130C901F4F1F930F93B6D3C80197DE0F900F9089
S1130CA00F900F900F900F90BDDE60960FB6F894E2
S1130CB0DEBF0FBECDBFDF91CF911F910F91FF908B
S1130CC008950F931F93CF93DF93CDB7DEB76B9740
S1130CD00FB6F894DEBF0FBECDBF182F1A8219824B
S1130CE081E08B831C83CE010196A5DB112319F0CF
S1130CF0113019F003C0F8DE01C02EDF42DE8FEBA5
S1130D0092E0BEDE809108018823E1F083E013DEE7
S1130D10E6E0F1E02281808191811F922F939F93DD
S1130D208F9383E093E09F938F938E01045F1F4F13
S1130D301F930F9367D3C80148DE0FB6F894DEBF44
S1130D400FBECDBF6FDE6B960FB6F894DEBF0FBE3D
S1130D50CDBFDF91CF911F910F910895DF92EF9254
S1130D60FF920F931F93CF93DF9300D01F92CDB7C1
S1130D70DEB78BE093E084DE8091080181112FC0FF
S1130D802CC0F701EE0FFF1FEE0DFF1DEA5FFE4FB3
S1130D908281882311F1D3948D2DCDDD8701000F3D
S1130DA0111F0E0D1F1D0A5F1E4FF80180819181D6
S1130DB00CDE85EE91E009DEF80182814AE0BE0195
S1130DC06F5F7F4F90E08BD2CE010196FEDDFFEF87
S1130DD0EF1AFF0A86E0D812D4CF24DE1CC081E0CB
S1130DE0AADD06E011E0F80180819181EEDD85EE57
S1130DF091E0EBDDF80182814AE0BE016F5F7F4F35
S1130E0090E06DD2CE010196E0DDEE24E394F12C66
S1130E10DD24D394B6CF0F900F900F90DF91CF9134
S1130E201F910F91FF90EF90DF9008952F923F92C2
S1130E304F925F926F927F928F929F92AF92BF92E6
S1130E40CF92DF92EF92FF920F931F93CF93DF9392
S1130E50CDB7DEB72A970FB6F894DEBF0FBECDBF6D
S1130E602C01662E453088F150C0272D382DD8012D
S1130E70ED91FC91692D752FD101AD90BC90A80E18
S1130E80B91ED501BC90E80FF91FB08201968A30D3
S1130E90910559F7FB01EE0FFF1F6E0F7F1FFB013A
S1130EA0EA5FFE4F8281F901EE0FFF1F2E0F3F1FF5
S1130EB0F901EA5FFE4F8283B1E0CB1AD108E1E089
S1130EC0EE1AF1084E1550F020C00F2EF5E0EF2E6B
S1130ED0F12CF02D6894CC24C2F8D12C80E090E061
S1130EE07E2C8F2C8701000F111F0E0D1F1D0A5F12
S1130EF01E4F9C2C5D2DD601AA0FBB1FAC0DBD1D32
S1130F009D012A5F3E4F1901B0CF8AE0E8E1F1E08C
S1130F10DE01119601900D928A95E1F7D2019C9120
S1130F20992301F1DE011196F20131969D9391917D
S1130F309111FCCF17C0BA01F801E080F1802D9126
S1130F40F701E80FF91F208301968A30910599F77C
S1130F50FA01EE0FFF1F6E0F7F1FFB01EA5FFE4FCA
S1130F6062820DC0DE01119680E090E050E08A01BB
S1130F70000F111F040F151F0A5F1E4FDCCF2A96A6
S1130F800FB6F894DEBF0FBECDBFDF91CF911F9196
S1130F900F91FF90EF90DF90CF90BF90AF909F9014
S1130FA08F907F906F905F904F903F902F90089517
S1130FB0EF92FF920F931F93CF93DF93CDB7DEB7DA
S1130FC02A970FB6F894DEBF0FBECDBFF82EE62EDB
S1130FD082E393E055DD26DD8E010F5F1F4F1F93E3
S1130FE00F9385E893E09F938F93F9D14E2D6F2D46
S1130FF0C8011CDF0F900F900F900F902A960FB628
S1131000F894DEBF0FBECDBFDF91CF911F910F913A
S1131010FF90EF9008956F927F928F929F92AF927C
S1131020BF92CF92DF92EF92FF920F931F93CF93D1
S1131030DF930AE010E0A12CB12C25C0C62DD72DDA
S1131040D701ED91FC91C4018C199D09E80FF91F9A
S11310506081C401C0DABFEF8B1A9B0A8016910627
S113106069F7CE01880F991FC80FD91FCA5FDE4FD9
S11310706A81C801B0DA2FEFA21AB20A055F1F4FC6
S11310800C34110591F068013AE0C31AD108460105
S11310906A2C7B2C7501EE0CFF1CC7018A0D9B1D6D
S11310A0DC01AA5FBE4F7D01C9CFDF91CF911F91B3
S11310B00F91FF90EF90DF90CF90BF90AF909F90F3
S11310C08F907F906F90089590910801981770F019
S11310D021E030E0622FF901EE0FFF1FE20FF31F52
S11310E0EA5FFE4F9281981728F401C060E060DF48
S11310F092CF08952F5F3F4F2630310559F7089559
S11311001F93CF93DF93CDB7DEB72B970FB6F89429
S1131110DEBF0FBECDBF80E0D4DD10E0CE0101966E
S1131120BBD98823D9F38C81811109C082E028DAE4
S11311308D81882399F31F5F812F57DDEFCF44DD25
S1131140812FC2DF2B960FB6F894DEBF0FBECDBF42
S1131150DF91CF911F9108951F93CF93DF93CDB764
S1131160DEB72B970FB6F894DEBF0FBECDBF81E07C
S1131170A8DD10E0CE0101968FD98823D9F38C81A4
S1131180811109C082E0D1D98D81882399F31F5F31
S1131190812F2BDDEFCF18DD812F96DF2B960FB635
S11311A0F894DEBF0FBECDBFDF91CF911F9108959C
S11311B0882319F0813019F00895A2CF0895CCCF77
S11311C008954F925F926F927F928F929F92AF9207
S11311D0BF92CF92DF92EF92FF920F931F93CF9320
S11311E0DF930F2EFAE0EF2EF12CF02D812C912CB1
S11311F028C0042D152DF601C081D181C3018A199F
S11312009B09C80FD91FC301EED98883FFEF6F1A5A
S11312107F0A6E147F0469F7C701E5D9F801EE0F60
S1131220FF1F0E0F1F1FF801EA5FFE4F82832FEF8F
S1131230821A920A3BE0E30EF11C8CE4E816F104F6
S113124091F05701EAE0AE1AB1083501482C592C47
S11312506401CC0CDD1CC601880D991D9C012A5F1C
S11312603E4F6901C6CFDF91CF911F910F91FF903F
S1131270EF90DF90CF90BF90AF909F908F907F9032
S11312806F905F904F9008959CCF089587B3806BC3
S113129087BB8DB181658DB908958FEF8FB9779B29
S11312A0FECF8FB108958FB9779BFECF08955D9BD4
S11312B0FECF8CB908955F9BFECF8CB1089510BC0E
S11312C08FE189B988E18AB98EE880BD80B58E7FC7
S11312D080BD6BE579E087E599E024C00895BB27DC
S11312E04A3031F4992322F4BDE2909581959F4FC1
S11312F001C0BB27FB015527AA27880F991FAA1FE6
S1131300A41710F0A41B83955051B9F7A05DAA331C
S113131008F0A95DA193009779F7B111B1931192E7
S1131320CB015AC60F931F93CF93DF93009731F4E9
S11313306115710519F480E090E039C08B01EC016E
S11313406EE070E081E090E0DCD4FC01892B99F33D
S113135080E883830115110571F01387028781E802
S113136083838091D2039091D303892B21F4F0934A
S1131370D303E093D2032097C9F0D187C087838138
S1131380826083838091D4039091D503892B71F477
S1131390F093D503E093D4038091D6039091D703BF
S11313A0892B21F4F093D703E093D603CF01DF9187
S11313B0CF911F910F910895A0E0B0E0E1EEF9E024
S11313C01FC7AE014B5F5F4FFA0161917191AF018D
S11313D08091D4039091D50334D0E2E02DC7A0E0EE
S11313E0B0E0E4EFF9E00CC7AE014B5F5F4FFA01E8
S11313F061917191AF018091D2039091D30380D315
S1131400E2E01AC7AEE0B0E0E7E0FAE0F7C60D8923
S11314101E8986E08C831A8309838FEF9FE79E835E
S11314208D83AE01475E5F4F6F89788DCE01019643
S113143008D0EF81F885E00FF11F10822E96E4E0CA
S1131440F9C6ABE0B0E0E6E2FAE0CAC66C017B01A3
S11314508A01FC0117821682838181FFBFC1CE01FC
S113146001963C01F6019381F70193FD859193FF69
S113147081917F01882309F4ADC1853239F493FD4C
S1131480859193FF81917F01853221F4B60190E02B
S1131490F1D5E8CF912C212C312CFFE1F315D8F0B4
S11314A08B3279F038F4803279F08332A1F4232D31
S11314B020611DC08D3261F0803369F4232D2160D9
S11314C016C0832D8260382EE32DE4603E2E2AC0A0
S11314D0F32DF8601DC037FC2DC020ED280F2A30F5
S11314E040F08E32B9F436FC75C1232D2064322EBF
S11314F019C036FE06C08AE0989E200D1124922E53
S113150011C0EAE02E9E200D1124222EF32DF0624C
S11315103F2E08C08C3621F4832D8068382E02C0FB
S1131520883641F4F70193FD859193FF81917F0102
S11315308111B3CF982F9F7D9554933028F40C5F7D
S11315401F4F9FE399830DC0833631F0833771F0C9
S1131550833509F055C020C0F801808189830E5F6E
S11315601F4F88248394912C530112C02801F2E068
S11315704F0E511CF801A080B18036FE03C0692DC6
S113158070E002C06FEF7FEFC5011BD54C018201F3
S1131590F32DFF773F2E15C0280122E0420E511C87
S11315A0F801A080B18036FE03C0692D70E002C04E
S11315B06FEF7FEFC501F3D44C01F32DF0683F2E9C
S11315C0820133FC19C0822D90E088169906A0F49C
S11315D0B60180E290E04ED52A94F5CFF50137FCB0
S11315E0859137FE81915F01B60190E043D52110CA
S11315F02A9421E0821A91088114910479F7E1C0B8
S1131600843611F0893639F5F80137FE07C0608158
S11316107181828193810C5F1F4F08C06081718149
S1131620072E000C880B990B0E5F1F4FF32DFF76CE
S11316303F2E97FF09C090958095709561957F4FD7
S11316408F4F9F4FF0683F2E2AE030E0A30167D50B
S1131650882E861844C0853731F4232D2F7EB22E70
S11316602AE030E025C0932D997FB92E8F36C1F042
S113167018F4883579F0AEC0803719F0883721F036
S1131680A9C0E92FE061BE2EB4FE0DC0FB2DF460AD
S1131690BF2E09C034FE0AC0292F2660B22E06C010
S11316A028E030E005C020E130E002C020E132E073
S11316B0F801B7FE07C060817181828193810C5F5C
S11316C01F4F06C06081718180E090E00E5F1F4F64
S11316D0A30125D5882E8618FB2DFF773F2E36FED5
S11316E00DC0232D2E7FA22E891458F434FE0BC076
S11316F032FC09C0832D8E7EA82E05C0B82CA32CE5
S113170003C0B82C01C0B92CA4FE0FC0FE01E80D23
S1131710F11D8081803321F49A2D997EA92E09C070
S1131720A2FE06C0B394B39404C08A2D867809F04F
S1131730B394A3FC10C0A0FE06C0B21480F4280C1D
S1131740922C9B180DC0B21458F4B60180E290E0BC
S113175091D4B394F8CFB21418F42B1802C0982C77
S1131760212CA4FE0FC0B60180E390E083D4A2FE36
S113177016C0A1FC03C088E790E002C088E590E0B1
S1131780B6010CC08A2D867851F0A1FE02C08BE20E
S113179001C080E2A7FC8DE2B60190E06BD489140D
S11317A030F4B60180E390E065D49A94F8CF8A943B
S11317B0F301E80DF11D8081B60190E05BD4811046
S11317C0F6CF222009F44ECEB60180E290E052D446
S11317D02A94F7CFF6018681978102C08FEF9FEF9D
S11317E02B96E2E119C520FD09C0FC0123FD05C0CB
S11317F022FF02C07383628351834083089544FDB2
S113180017C046FD17C0AB01BC01DA01FB01AA0FEA
S1131810BB1FEE1FFF1F1094D1F74A0F5B1F6E1FF3
S11318207F1FCB01BA01660F771F881F991F09C05C
S113183033E001C034E0660F771F881F991F3150D1
S1131840D1F7620F711D811D911D08950F931F9390
S1131850CF93DF938C01C801CFD3EC0197FD06C071
S11318608BD3892BC1F7B801CE0140D4CE01DF91CF
S1131870CF911F910F9108958F929F92AF92BF9233
S1131880EF92FF920F931F93CF93DF938C01D62F88
S11318907A01B22EB1D39C0133272B32310531F0BA
S11318A02D32310559F48B2D8068B82ED15011F4A6
S11318B080E061C0C801A0D397FDFACFCB2DCD7FC6
S11318C02B2D2073F9F48033E9F4AA24AA94AD0EE5
S11318D009F43EC0C80190D397FD3AC09C012F7D06
S11318E033272835310541F4C264D25089F1C80147
S11318F083D397FF07C02CC0B6FE02C0C26001C0EC
S1131900C261DA2D812C912C540120ED280F28304E
S113191078F0C4FF03C0B801E9D317C02A3040F0FF
S1131920C6FFF9CF2F7D3FEE320F3630A0F7275098
S11319304C2FC501B40163DF4B015C01C260D1507F
S113194051F0C80159D397FFE0CFC1FD04C0B0CF17
S1131950812C912C5401C7FF08C0B094A09490949A
S11319608094811C911CA11CB11C2C2FB501A401D5
S1131970C70139DF81E0DF91CF911F910F91FF9073
S1131980EF90BF90AF909F908F900895A0E2B0E049
S1131990EBECFCE028C45C01962E7A01F9018E017F
S11319A00F5F1F4F680180E2D8011D928A95E9F705
S11319B0D50113968C9080E090E0612C712C30E07E
S11319C061E070E083FC259183FE21918F01522E0A
S11319D0211103C080E090E090C02E3511F40097EF
S11319E051F1432F50E0481759073CF42D3559F174
S11319F02D3219F4772009F103C0772009F468C067
S1131A00452D469546954695D601A40FB11D452D05
S1131A1047708B0102C0000F111F4A95E2F7A8011D
S1131A205C91452B4C93651459F0561410F453945F
S1131A30E7CF5A94E5CF31E004C07724739401C012
S1131A40712C0196BFCF772019F08E8180628E832E
S1131A50311103C08824839417C0F6019E012F5DC1
S1131A603F4F8081809581932E173F07D1F7F2CFA6
S1131A70E114F10429F0D7018C93F70131967F0129
S1131A809A94812C9920E9F0C501B6D297FD17C02C
S1131A90FC01FF2723E0F595E7952A95E1F7EC0D86
S1131AA0FD1D208130E0AC014770552702C03595FB
S1131AB027954A95E2F720FDDBCFB50117D38110B6
S1131AC089CFE114F10411F0D7011C92C80115C0AB
S1131AD0422F469546954695D601A40FB11D422F37
S1131AE047708B0102C0000F111F4A95E2F7A8014D
S1131AF05C91452B4C93622EA4CFA096EFE08FC34C
S1131B00A0E0B0E0E5E8FDE06EC36C01EB015A0132
S1131B10FC0117821682512CF601E380FE01E3FCDE
S1131B208591E3FE8191182FEF01882309F4E0C029
S1131B3090E022D2892B19F0C60188DEEDCF153250
S1131B4041F4FE01E3FC1591E3FE1191EF0115321E
S1131B5071F4C60151D297FDC9C0412F50E09C01D8
S1131B60332724173507C1F2B601C0D2C1C01A32D7
S1131B7039F4E3FC1591E3FE1191EF0101E001C09A
S1131B8000E0F12C20ED210F2A3078F402606F2D53
S1131B9070E080E090E040E232DEF62EFE01E3FCED
S1131BA01591E3FE1191EF01EDCF01FF03C0F11098
S1131BB003C09EC0FF24FA94183619F01C3651F065
S1131BC010C0FE01E3FC1591E3FE1191EF011836FC
S1131BD041F408600460FE01E3FC1591E3FE1191F9
S1131BE0EF01112309F484C0612F70E080E790E0D5
S1131BF0CBD1892B09F47CC000FD07C0F50180809E
S1131C009180C50102965C0102C0812C912C1E3684
S1131C1049F4F6014681578160E070E0202FC40149
S1131C20E2DD7ACF1336A1F401FD02C0FF24F39460
S1131C30C601E2D197FD5AC08114910429F0F40140
S1131C408083C40101964C01FA94F110F1CF4AC08B
S1131C501B3551F49E01A4016F2DC60197DEEC01E2
S1131C60892B09F03FC039C0C601F0DD97FD3EC0A5
S1131C701F3649F128F4143621F1193639F125C0FB
S1131C80133771F01537E9F020C08114910429F05D
S1131C90F4016082C40101964C01FA94FF2059F0CA
S1131CA0C601AAD13C0197FD06C066D1892B69F310
S1131CB0B601C3011BD281149104A1F0F401108276
S1131CC011C0006203C0006101C00064202FA401A0
S1131CD06F2DC601D1DD811105C0F60183818073AA
S1131CE029F406C000FD18CF539416CF552019F0DF
S1131CF0852D90E002C08FEF9FEFCDB7DEB7EFE008
S1131D008EC20F931F93CF93DF93869F8001879F8B
S1131D10100D969F100D1124C8010DD0EC010097F1
S1131D2021F0A80160E070E045D1CE01DF91CF91B0
S1131D301F910F9108950F931F93CF93DF938230D8
S1131D40910510F482E090E0E091DA03F091DB0376
S1131D5020E030E0A0E0B0E0309719F140815181FB
S1131D600281138148175907C8F08417950769F44D
S1131D70109731F012960C93129713961C9327C068
S1131D800093DA031093DB0322C02115310519F007
S1131D904217530718F49A01BD01EF01DF01F8015E
S1131DA0DBCF21153105F9F0281B390B243031051F
S1131DB080F48A819B816115710521F0FB01938375
S1131DC0828304C09093DB038093DA03FE0132968E
S1131DD044C0FE01E20FF31F819391932250310915
S1131DE0398328833AC02091D8033091D903232B17
S1131DF041F420910201309103013093D9032093DF
S1131E00D80320910001309101012115310541F4DD
S1131E102DB73EB74091040150910501241B350BA9
S1131E20E091D803F091D903E217F307A0F42E1B35
S1131E303F0B2817390778F0AC014E5F5F4F24172A
S1131E40350748F04E0F5F1F5093D9034093D803D2
S1131E508193919302C0E0E0F0E0CF01DF91CF9154
S1131E601F910F910895CF93DF93009709F481C0D8
S1131E70FC01329713821282A091DA03B091DB0342
S1131E80109781F420813181820F931F2091D80310
S1131E903091D9032817390751F5F093D903E0930A
S1131EA0D80367C0ED0120E030E0CE17DF0740F42F
S1131EB04A815B819E0141155105F1F0EA01F5CF9C
S1131EC0D383C28340815181840F951FC817D907DA
S1131ED059F488819981840F951F02969183808398
S1131EE08A819B81938382832115310529F4F093A0
S1131EF0DB03E093DA033DC0E901FB83EA83499104
S1131F005991C40FD51FEC17FD0761F480819181AD
S1131F10840F951F0296E9019983888382819381B6
S1131F209B838A83E0E0F0E012968D919C91139755
S1131F30009719F0FD01DC01F7CF8D919C91119769
S1131F409D012E5F3F4F820F931F2091D803309144
S1131F50D9032817390769F4309729F41092DB0361
S1131F601092DA0302C013821282B093D903A093B1
S1131F70D803DF91CF91089591112FC1803219F0C8
S1131F8089508550D0F70895FC010590061621F07C
S1131F900020D9F7C00108953197CF010895FC01BD
S1131FA00590615070400110D8F7809590958E0F80
S1131FB09F1F0895DC0101C06D9341505040E0F72C
S1131FC00895FC016150704001900110D8F780958C
S1131FD090958E0F9F1F0895DC01FC01672F71916E
S1131FE07723E1F7329704C07C916D9370836291FB
S1131FF0AE17BF07C8F30895CF93DF93EC012B818D
S113200020FF33C026FF0AC02F7B2B838E819F8144
S113201001969F838E838A8190E029C022FF0FC09E
S1132020E881F9818081082E000C990B009719F43E
S113203020622B831AC03196F983E8830EC0EA85A7
S1132040FB85099597FF09C02B81019611F080E269
S113205001C080E1822B8B8308C02E813F812F5FDA
S11320603F4F3F832E83992702C08FEF9FEFDF916D
S1132070CF9108950F931F93CF93DF93FB01238197
S113208021FD03C08FEF9FEF2CC022FF16C04681B5
S11320905781248135814217530744F4A081B181CB
S11320A09D012F5F3F4F318320838C93268137819D
S11320B02F5F3F4F3783268314C08B01EC01FB0154
S11320C00084F185E02D0995892BE1F6D801169657
S11320D08D919C911797019617969C938E931697C2
S11320E0CE01DF91CF911F910F910895FB012381C0
S11320F020FF12C026FD10C08F3F3FEF930761F011
S113210082832F7D206423832681378121503109E6
S113211037832683992708958FEF9FEF0895FA0157
S1132120AA27283051F1203181F1E8946F936E7F12
S11321306E5F7F4F8F4F9F4FAF4FB1E03ED0B4E003
S11321403CD0670F781F891F9A1FA11D680F791F44
S11321508A1F911DA11D6A0F711D811D911DA11D55
S113216020D009F468943F912AE0269F1124301965
S1132170305D3193DEF6CF010895462F4770405D00
S11321804193B3E00FD0C9F7F6CF462F4F70405DAF
S11321904A3318F0495D31FD4052419302D0A9F70A
S11321A0EACFB4E0A6959795879577956795BA9504
S11321B0C9F700976105710508959B01AC010A2ECA
S11321C006945795479537952795BA95C9F7620FA1
S11321D0731F841F951FA01D0895992788270895AC
S11321E02F923F924F925F926F927F928F929F9223
S11321F0AF92BF92CF92DF92EF92FF920F931F9311
S1132200CF93DF93CDB7DEB7CA1BDB0B0FB6F894C1
S1132210DEBF0FBECDBF09942A88398848885F8401
S11322206E847D848C849B84AA84B984C884DF8072
S1132230EE80FD800C811B81AA81B981CE0FD11D56
S11322400FB6F894DEBF0FBECDBFED010895F8942C
S1052250FFCFBA
S11322520000DC0320008C0306970305A20304ADEF
S11322620303B80302C303012020202020202020DE
S11322722020002020204D41494E204D454E55201E
S1132282202020A43E506C617920706F6E6720205C
S11322922020202020506C617920736E656B2020F1
S11322A220202020205468616E6B7320746F2020DC
S11322B22020202000202020504F4E47204D454E04
S11322C25520202020A43E506C617920772F6A6F1C
S11322D279737469636B20506C617920772F736C06
S11322E2696465722020204869676873636F726548
S11322F27320202020202052657475726E202020C5
S1132302202020202020002020534E454B204D45E4
S11323124E552020202020A43E506C617920736EFB
S1132322656B2020202020202052657475726E2057
S11323322020202020202020002020205448414E0C
S11323424B5320544F20202020A420506572204B50
S11323522E204F6D76696B202020204D61726975A5
S1132362732045736B6564616C2020416E646572F1
S11323727320472E442E202020203E52657475720D
S11323826E202020202020202020004D4350323572
S11323923135206973204E4F5420696E20636F7269
S11323A272656374206D6F64652061667465722062
S11323B27265736574212049747320636F6E666954
S11323C2672062697473206172652025780A00208F
S11323D22020204C4F4144494E47202020202000F9
S11323E22020202047414D45204F56455220202091
S11323F20020596F75722073636F72653A202564E9
S11324020020506F736974696F6E3A20256400204E
S1132412504C4159494E4720504F4E47202020A44A
S1132422204869676873636F72653A202020202010
S1132432A4A420596F75722073636F72653A2030B9
S1132442202020506F736974696F6E3A204E2F41B9
S113245220200020257320202564002D2D2D48499D
S1132462474853434F5245532D2D2DA4A4A4A4A44D
S1132472A43E52657475726E2020202020202020F4
S1132482200020202020434F4E4752415453212004
S11324922020A42020596F75206D61646520746822
S11324A2652020204869676873636F7265206C69D0
S11324B2737420A4205573652074686520504320EA
S11324C2746F202020456E74657220796F757220B6
S11324D26E616D6500257300257309004141414118
S11324E2414141414141004242424242424242420E
S11324F2420043434343434343434343004444442A
S113250244444444444444004545454545454545C1
S1112512454500464646464646464646460071
S9030000FC
