S00D00004E6F6465312E7372656360
S1130000C1C10000DBC10000D9C100007BC20000F7
S1130010D5C10000D3C10000D1C10000CFC1000090
S1130020CDC10000CBC10000C9C10000C7C10000A0
S1130030C5C10000C3C10000C1C10000BFC10000B0
S1130040BDC10000BBC10000B9C10000B7C10000C0
S1130050B5C10000B3C10000B1C10000AFC10000D0
S1130060ADC10000ABC10000A9C10000A7C10000E0
S1130070FFFFFFFFFFFFFFFF000000000000000084
S113008000065F5F06000000000707000707000086
S1130090147F7F147F7F1400242E6B6B3A120000B0
S11300A0466630180C666200307A4F5D377A480035
S11300B00407030000000000001C3E634100000030
S11300C00041633E1C000000082A3E1C1C3E2A0816
S11300D008083E3E0808000000A0E06000000000A0
S11300E0080808080808000000006060000000001C
S11300F06030180C060301003E7F594D7F3E00001E
S113010042427F7F40400000627359496F6600009D
S1130110226349497F360000181C16137F7F1000A4
S1130120276745457D3900003C7E4B497930000006
S1130130036371190F070000367F49497F360000B9
S1130140064F49693F1E000000006C6C000000006F
S113015000A0EC6C00000000081C366341000000A5
S113016014141414141400001818187E3C180000F9
S1130170020351590F0600003E7F415D5D1F1E00C2
S11301807C7E13137E7C0000417F7F49497F3600CB
S11301901C3E634141632200417F7F41637F1C0019
S11301A0417F7F495D416300417F7F491D01030019
S11301B01C3E6341517372007F7F08087F7F0000FB
S11301C000417F7F41000000307040417F3F0100CB
S11301D0417F7F081C776300417F7F41406070004E
S11301E07F7F060C067F7F007F7F060C187F7F00D1
S11301F01C3E6341633E1C00417F7F49090F06009A
S11302001E3F21717F5E0000417F7F19396F4600D8
S113021026674D597B32000003417F7F4103000074
S11302207F7F40407F7F00001F3F60603F1F0000D2
S11302307F7F3018307F7F0063771C081C77630052
S1130240074F78784F0700006773594D4763710073
S1130250007F7F41410000000103060C183060005C
S11302600041417F7F000000080C0603060C0800D3
S1130270808080808080808000000307040000006C
S1130280207454543C784000413F7F44447C3800FF
S1130290387C44446C280000307848493F7F400053
S11302A0387C54545C180000487E7F4903020000E7
S11302B098BCA4A4F87C0400417F7F08047C7800E7
S11302C000447D7D4000000040C484FD7D000000AA
S11302D0417F7F10386C440000417F7F4000000064
S11302E07C7C0C180C7C78007C7C04047C780000FA
S11302F0387C44447C38000084FCF8A4243C180076
S1130300183C24A4F8FC8400447C78441C180000A5
S1130310485C54547424000000043E7F44240000CC
S11303203C7C40403C7C40001C3C60603C1C000029
S11303303C7C6030607C3C00446C3810386C440079
S11303409CBCA0A0FC7C00004C64745C4C64000069
S113035008083E7741410000000000777700000064
S11303604141773E08080000020301030203010033
S11303701818187E3C1800006364696E6F707375FA
S113038078585B0011241FBECFEFD4E0DEBFCDBF91
S113039013E0A0E0B1E0E6EDF2E202C005900D92B8
S11303A0AA3EB107D9F723E0AAEEB3E001C01D923B
S11303B0A83FB207E1F7C9D10C94691121CE82306C
S11303C099F018F4813031F02DC08330B9F08430C5
S11303D0F9F028C084E08093001482E68A95F1F74E
S11303E0000080910014089585E08093001482E653
S11303F08A95F1F7000080910014089586E08093B7
S1130400001482E68A95F1F70000809100140895A3
S113041087E08093001482E68A95F1F700008091CA
S11304200014089580E008950FD2F8948BB7806289
S11304308BBF789408951F93CF93DF93EC01688169
S1130440798176956795769567957695679581E335
S1130450C3D168816295660F607E82E3BDD16A81F3
S113046085E3BAD18A81882361F010E0FE01E10FAF
S1130470F11D638186E3810FAFD11F5F8A81181755
S1130480A8F381E8BCD1DF91CF911F9108951F9308
S1130490CF93DF93EC018091EA03882371F181E625
S11304A090D1182F82E68DD1482F429546954770FA
S11304B0212F30E0C901880F991F880F991F880FD9
S11304C0991F842B9983888385E67BD18A8388232B
S11304D061F010E086E6810F74D1FE01E10FF11D99
S11304E083831F5F8A811817A8F340E061E08CE2E0
S11304F08AD11092EA0381E001C080E0DF91CF91BC
S11305001F9108951F920F920FB60F9211248F938B
S113051081E08093EA038F910F900FBE0F901F909C
S11305201895FF920F931F93CF93DF93CDB7DEB748
S11305302B970FB6F894DEBF0FBECDBFF82EE1D0D7
S1130540082F00D1182FD9D02F2D30E03A832983DA
S113055093E09B830C831D838E83CE0101966BDF16
S11305602B960FB6F894DEBF0FBECDBFDF91CF91AF
S11305701F910F91FF900895FF920F931F93CF93B4
S1130580DF93CDB7DEB72B970FB6F894DEBF0FBE5F
S1130590CDBFF82EB6D0082FBCD0182FAED02F2D3B
S11305A030E03A83298393E09B830C831D838E83FD
S11305B0CE01019640DF2B960FB6F894DEBF0FBE36
S11305C0CDBFDF91CF911F910F91FF900895E199D5
S11305D0FECF9FBB8EBB6DBBE29AE19A0895E19971
S11305E0FECF9FBB8EBBE09A8DB308958091EB0341
S11305F00895C5D183E291E03AD20BD21092EB0375
S11306000895A7D64BD184EA8A95F1F774D04DD1D9
S113061080E00ADFC9D4EDCF0895B1D185E691E039
S113062026D2F7D181E08093EB030895A8D187EB1C
S113063091E01DD271D6EDD182E08093EB03089551
S11306409ED189EE91E013D2E4D183E08093EB0351
S11306500895EF92FF920F931F93CF93DF936894C3
S1130660EE24E1F801E06894FF24F1F8C82FD0E00B
S113067001C0082F56D0182FF1101BC08823D9F0C1
S11306808230D1F0282F332727FD30952E0D311DD0
S11306902230310584F0C217D3076CF08E2D4AD175
S11306A080E2A7D1E10E8E2D45D18EE3A2D1B1D146
S11306B002C0823009F0F12E20D00111DACF81304E
S11306C0C1F68E2DDF91CF911F910F91FF90EF9086
S11306D00895CF93DF93C1E0D0E001C0CD2F0DD0BA
S11306E0882311F0CC2321F008D08823B9F3F7CF65
S11306F0DF91CF910895959A089581E0859980E0DE
S1130700089581E05CDE95E8980F973108F48FE74F
S1130710089582E054DE95E8980F973108F48FE746
S1130720089582E04CDE853038F08B3F38F48D57E5
S1130730893030F480E0089581E008958FEF0895C2
S113074082E0089584E03BCE08955BDF4FDF813083
S1130750A1F028F0823041F1833061F1F7CF84E0D9
S113076078DF833031F0843031F0823079F755DF2F
S1130770EDCF5CDFEBCF64DFE9CF85E06ADF833068
S113078061F018F4823031F0E1CF843049F08530E3
S113079049F0DCCF80E0B7D5D9CF81E0B4D5D6CF4E
S11307A0E1D2D4CF26DFD2CF83E053DF833071F69A
S11307B020DFCCCF82E04DDF823009F0C7CF19DFD4
S11307C0C5CFCF93C82FC49883E0B7D58C2FB5D5A8
S11307D0AED5C49ACF910895CF93DF93D82FC62F67
S11307E0C49882E0AAD58D2FA8D58C2FA6D5C49AFB
S11307F0DF91CF910895682F8FE0EECF0895C498CC
S11308009CD5C49A08951F93CF93DF93182FD62FA6
S1130810C42FC49885E091D5812F8FD58D2F8DD588
S11308208C2F8BD5C49ADF91CF911F910895C498D2
S113083080EC83D540E860E88FE0E5DFC49A80E18E
S11308408A95F1F700C00895CF93C82F69D5EFDFDB
S11308508EE0B7DF807E8038F1F48C2FCCDF8EE021
S1130860B0DF807E282F30E04C2F50E04217530732
S113087069F01F928F938BE392E09F938F93E6D559
S11308800F900F900F900F9081E006C063E08BE211
S1130890A3DF80E001C081E0CF91089585B780682F
S11308A085BF86B7846086BF0895E0E0F0E18EEAF4
S11308B0808381EA80838AED808382E1808388EC6F
S11308C0808388EA80838FE3808385ED808380E85A
S11308D0808381E880838AE0808389ED808381E25C
S11308E0808380E2808382E080838BED808380E359
S11308F080838DEA8083108284EA808386EA808301
S11309008FEA8083E0E0F8E180E290E091838083E5
S11309103196E03828E1F207C9F70895E0E0F0E104
S113092080EB808380E1808310821092ED0310922B
S1130930EC03089590EB980FE0E0F0E1908390E1F0
S11309409083108220E1829FC00111249093ED03D3
S11309508093EC03089520E1829FC0011124FC01DF
S1130960F85E9C01205F374E40E24193E217F307A3
S1130970E1F740969093ED038093EC030895CF93B1
S1130980C0E08C2FE8DFCF5FC830D9F7C7DFCF9145
S113099008958F317CF098E08902F0011124E85821
S11309A0F04088E0A0E0B2E194919C9381503196AC
S11309B08111FACF0895FC0140814423C9F050917C
S11309C0EC03252F3091ED03203831051CF4F90197
S11309D0F85E40832F5F3F4F422F451BFC01E40F1D
S11309E0F11D40814111F0CF3093ED032093EC03CE
S11309F008958F316CF02091EC033091ED03F901EF
S1130A00F85E80832F5F3F4F3093ED032093EC0318
S1130A100895EF92FF920F931F93CF93DF937EDF9E
S1130A2001E010E0C0E0D0E0E12C03C021960F5FAC
S1130A301F4FFE01F85EF0809E012F703327232B99
S1130A4029F4209751F0E3948E2D74DF8F2DA1DFCC
S1130A50003811055CF362DF03C08F2D9ADFE6CF07
S1130A60DF91CF911F910F91FF90EF9008951F9305
S1130A70CF93DF93EC011092ED031092EC0311E09D
S1130A801DC02038310524F5F901F85E843A71F46B
S1130A90C90199230CF40F9695958795959587959B
S1130AA0959587959595879556DF07C080832F5F29
S1130AB03F4F3093ED032093EC031F5F8FEF810FC3
S1130AC0FE01E80FF11D80812091EC033091ED03CC
S1130AD08111D7CFDF91CF911F9108950F931F9369
S1130AE0CF93DF934CDF83E025DF8FE792E063DF72
S1130AF011E00BE002C00F5F1F5FC02FD0E0E09653
S1130B00D093ED03C093EC03113069F48EE271DFEE
S1130B1080DF2FEF8FEF98E0215080409040E1F785
S1130B2000C00000E8CF8EE264DFD093ED03C093F1
S1130B30EC036FDF2FEF8FEF98E02150804090405F
S1130B40E1F700C000001330B0F2DF91CF911F91A4
S1130B500F9108950F931F93CF93DF9310DF83E0DA
S1130B60E9DE8FE792E027DF11E00BE002C00F5FC0
S1130B701F5FC02FD0E0E096D093ED03C093EC0349
S1130B80113069F48EE235DF44DF2FEF8FEF91E10E
S1130B90215080409040E1F700C00000E8CF8EE291
S1130BA028DFD093ED03C093EC0333DF2FEF8FEFF7
S1130BB091E1215080409040E1F700C000001330E3
S1130BC0B0F2DF91CF911F910F910895D8DE83E0A9
S1130BD0B1DE80E992E0EFDE1CDF2FEF8FEF9DE1C5
S1130BE0215080409040E1F700C000000895FF923A
S1130BF00F931F93CF93DF93CDB7DEB760970FB6F4
S1130C00F894DEBF0FBECDBFF82E85E0A4DE85E0EC
S1130C1091DE1F92FF9221EA32E03F932F938E01DF
S1130C200F5F1F4F1F930F9338D4C801C4DE809108
S1130C3008010F900F900F900F900F900F908F1549
S1130C40D0F021E030E080E18A95F1F700C0822FF6
S1130C508901F901EE0FFF1FE20FF31FEA5FFE4F58
S1130C6092819F1528F02F5F3F4F2730310559F7A8
S1130C70863019F41CC000E010E086E06CDE86E0EB
S1130C8059DE0F5F1F4F1F930F9381EB92E09F93E9
S1130C908F938E010F5F1F4F1F930F93FED3C801D5
S1130CA08ADE0F900F900F900F900F900F90B1DE8F
S1130CB060960FB6F894DEBF0FBECDBFDF91CF9123
S1130CC01F910F91FF9008950F931F93CF93DF937C
S1130CD0CDB7DEB76B970FB6F894DEBF0FBECDBFAE
S1130CE0182F1A82198281E08B831C83CE0101960E
S1130CF0A2DB112319F0113019F003C0EFDE01C09B
S1130D0029DF3DDE8FEB92E0B2DE8091080188237B
S1130D10E9F083E00FDE20910801809106019091B3
S1130D2007011F922F939F938F9383E093E09F93E8
S1130D308F938E01045F1F4F1F930F93AED3C8018F
S1130D403ADE0FB6F894DEBF0FBECDBF62DE6B96FF
S1130D500FB6F894DEBF0FBECDBFDF91CF911F91C8
S1130D600F910895EF92FF920F931F93CF93DF9308
S1130D7000D01F92CDB7DEB78BE093E078DE809190
S1130D800801811132C02EC0F801EE0FFF1FE00FE1
S1130D90F11FEA5FFE4F8281882321F181E0800FF9
S1130DA0C9DD7801EE0CFF1CC701800F911F9C0167
S1130DB02A5F3E4F7901F90180819181FCDD85EE46
S1130DC091E0F9DDF70182814AE0BE016F5F7F4F58
S1130DD090E0CFD2CE010196EEDD0F5F1F4F0630BB
S1130DE0110591F616DE75DC18C081E0A3DD809153
S1130DF0060190910701DFDD85EE91E0DCDD809155
S1130E0008014AE0BE016F5F7F4F90E0B2D2CE018D
S1130E100196D1DD01E010E0B7CF0F900F900F9055
S1130E20DF91CF911F910F91FF90EF9008956F92F2
S1130E307F928F929F92AF92BF92CF92DF92EF9266
S1130E40FF920F931F93CF93DF930AE010E0A12C3E
S1130E50B12C26C0C62DD72DD601ED91FC91C4012D
S1130E608E199F09E80FF91F6081C401B0DBBFEF41
S1130E708B1A9B0A8016910669F7CE01880F991F79
S1130E80C80FD91FCA5FDE4F6A81C801A0DB2FEFEC
S1130E90A21AB20A055F1F4F36E0A316B10491F0FF
S1130EA078018AE0E81AF10847016A2C7B2C650175
S1130EB0CC0CDD1CC6018A0D9B1DDC01AA5FBE4F54
S1130EC06D01C8CFDF91CF911F910F91FF90EF90EB
S1130ED0DF90CF90BF90AF909F908F907F906F9056
S1130EE008954F925F926F927F928F929F92AF92EA
S1130EF0BF92CF92DF92EF92FF920F931F93CF9303
S1130F00DF930F2EFAE0EF2EF12CF02D812C912C93
S1130F1028C0C42DD52DF50100811181C3018C1980
S1130F209D09080F191FC3015ADBF8018083FFEFE5
S1130F306F1A7F0A6E147F0461F7C70150DB9E01AC
S1130F40220F331FC20FD31FCA5FDE4F8A832FEFD6
S1130F50821A920A3BE0E30EF11C86E088169104A3
S1130F6091F06701EAE0CE1AD1083601482C592CD9
S1130F705401AA0CBB1CC501880D991D9C012A5F54
S1130F803E4F5901C6CFDF91CF911F910F91FF9032
S1130F90EF90DF90CF90BF90AF909F908F907F9015
S1130FA06F905F904F9008959CCF08950F931F9377
S1130FB0CF93DF93C0E0D0E002E313E0FE01EE0F35
S1130FC0FF1FEC0FFD1FEA5FFE4F808191819F930D
S1130FD08F931F930F933AD221960F900F900F90F7
S1130FE00F90C630D10551F78AE090E040D2DF91EE
S1130FF0CF911F910F9108952F923F924F925F923C
S11310006F927F928F929F92AF92BF92CF92DF9214
S1131010EF92FF920F931F93CF93DF93CDB7DEB779
S11310202C970FB6F894DEBF0FBECDBF2C01262E31
S1131030453008F054C00F2EF5E0EF2EF12CF02DC2
S11310406894CC24C2F8D12C612C312C30C0272DCB
S1131050382DD801ED91FC91692D752FAB85BC8598
S1131060AD90BC90A80EB91ED501BC90E80FF91F35
S1131070B08201968A30910551F7FB01EE0FFF1FF4
S11310806E0F7F1FFB01EA5FFE4F8281F901EE0FB5
S1131090FF1F2E0F3F1FF901EA5FFE4F8283B1E06D
S11310A0CB1AD108E1E0EE1AF1084E15C0F4862DF2
S11310B0932D7E2C8F2C8701000F111F0E0D1F1DE9
S11310C00A5F1E4F9C2C5D2DD601AA0FBB1FAC0DD1
S11310D0BD1D9D012A5F3E4F3C872B87B8CF042F4F
S11310E010E0F801EE0FFF1FE00FF11FEA5FFE4F63
S11310F0808191819F938F9386E393E09F938F9355
S1131100A5D18AE0E8E1F1E0DE01119601900D92AB
S11311108A95E1F7D2018C910F900F900F900F9068
S1131120882301F1DE011196F20131968D938191AC
S11311308111FCCF17C0D9016D917C914191DB01E4
S1131140A80FB91F4C9301968A309105A1F7F801B5
S1131150EE0FFF1F0E0F1F1FF801EA5FFE4F2282E2
S113116025DF0CC0FE01319680E090E09801220F4B
S1131170331F200F311F2A5F3E4FDDCF2C960FB651
S1131180F894DEBF0FBECDBFDF91CF911F910F91B9
S1131190FF90EF90DF90CF90BF90AF909F908F9093
S11311A07F906F905F904F903F902F900895EF92B3
S11311B0FF920F931F93CF93DF93CDB7DEB72A9798
S11311C00FB6F894DEBF0FBECDBFF82EE62E81E534
S11311D093E04DDC1EDCEADE8E010F5F1F4F1F9390
S11311E00F9324EA33E03F932F9346D14E2D6F2D76
S11311F0C80102DF0F900F900F900F902A960FB640
S1131200F894DEBF0FBECDBFDF91CF911F910F9138
S1131210FF90EF90089590910801981770F021E0E5
S113122030E0622FF901EE0FFF1FE20FF31FEA5FB8
S1131230FE4F9281981728F401C060E0B8DFF7CD23
S113124008952F5F3F4F2630310559F708951F93B6
S1131250CF93DF93CDB7DEB72B970FB6F894DEBFED
S11312600FBECDBF80E030DD10E0CE0101960FD976
S11312708823D9F39C81911109C082E07DD99D8195
S1131280992399F31F5F812FB2DCEFCF9FDC812F6D
S1131290C2DF68DDC2D92B960FB6F894DEBF0FBE4D
S11312A0CDBFDF91CF911F9108951F93CF93DF930B
S11312B0CDB7DEB72B970FB6F894DEBF0FBECDBF08
S11312C081E002DD10E0CE010196E1D88823D9F354
S11312D09C81911109C082E024D99D81992399F3BD
S11312E01F5F812F84DCEFCF71DC812F94DF3ADD27
S11312F094D92B960FB6F894DEBF0FBECDBFDF9105
S1131300CF911F910895882319F0813019F0089521
S11313109ECF0895CACF089532DB8EE36ACB089539
S113132087B3806B87BB8DB181658DB908958FEFCD
S11313308FB9779BFECF8FB108958FB9779BFECF7E
S113134008955D9BFECF8CB908955F9BFECF8CB151
S1131350089510BC8FE189B988E18AB98EE880BD0F
S113136080B58E7F80BD65EA79E081EA99E024C08A
S11313700895BB274A3031F4992322F4BDE29095B5
S113138081959F4F01C0BB27FB015527AA27880FD2
S1131390991FAA1FA41710F0A41B83955051B9F7E5
S11313A0A05DAA3308F0A95DA193009779F7B11164
S11313B0B1931192CB015CC60F931F93CF93DF932C
S11313C0EC018B01009731F46115710519F480E08B
S11313D090E037C06EE070E081E090E0D8D4FC018A
S11313E00097A9F380E883830115110571F0138731
S11313F0028781E883838091EE039091EF03892B28
S113140021F4F093EF03E093EE032097C9F0D18722
S1131410C0878381826083838091F0039091F1037C
S1131420892B71F4F093F103E093F0038091F203BC
S11314309091F303892B21F4F093F303E093F203E7
S1131440CF01DF91CF911F910F910895A0E0B0E0FB
S1131450EBE2FAE017C7FE01359661917191AF0195
S11314608091F0039091F10337D0E2E027C76091B7
S1131470F0037091F1034AC6A0E0B0E0E1E4FAE0C1
S113148001C7FE01359661917191AF018091EE0320
S11314909091EF0353D3E2E011C7AEE0B0E0E2E590
S11314A0FAE0EEC60D891E8986E08C831A830983CF
S11314B08FEF9FE79E838D83AE01475E5F4F6F89F9
S11314C0788DCE01019608D0EF81F885E00FF11FE9
S11314D010822E96E4E0F0C6ACE0B0E0E1E7FAE07A
S11314E0C1C67C016B018A01FC01178216828381CB
S11314F081FFB0C1CE0101964C01F7019381F60141
S113150093FD859193FF81916F01882309F49EC116
S1131510853239F493FD859193FF81916F01853272
S113152021F4B70190E0F2D5E8CF512C312C20E022
S11315302032A0F48B3269F030F4803259F08332D7
S113154069F420612CC08D3239F0803339F4216084
S113155026C02260246023C0286021C027FD27C044
S113156030ED380F3A3078F426FF06C0FAE05F9E7B
S1131570300D1124532E13C08AE0389E300D1124EF
S1131580332E20620CC08E3221F426FD5FC120640C
S113159006C08C3611F4206802C0883641F4F60186
S11315A093FD859193FF81916F018111C1CF982F94
S11315B09F7D9554933028F40C5F1F4FFFE3F9830C
S11315C00DC0833631F0833771F0833509F057C08D
S11315D021C0F801808189830E5F1F4F4424439406
S11315E0512C540114C03801F2E06F0E711CF80143
S11315F0A080B18026FF03C0652D70E002C06FEFAC
S11316007FEFC5012C8729D52C0183012C852F77E9
S1131610222E16C03801F2E06F0E711CF801A08072
S1131620B18026FF03C0652D70E002C06FEF7FEF2D
S1131630C5012C8700D52C012C852068222E83011E
S113164023FC19C0832D90E048165906A0F4B70175
S113165080E290E05BD53A94F5CFF50127FC8591C3
S113166027FE81915F01B70190E050D531103A9483
S1131670F1E04F1A51084114510479F7DEC0843661
S113168011F0893631F5F80127FF07C060817181B7
S1131690828193810C5F1F4F08C06081718188270C
S11316A077FD8095982F0E5F1F4F2F76B22E97FFF0
S11316B009C090958095709561957F4F8F4F9F4F8E
S11316C02068B22E2AE030E0A4016BD5A82EA81819
S11316D043C0853729F42F7EB22E2AE030E025C09E
S11316E0F22FF97FBF2E8F36C1F018F4883579F0C8
S11316F0ADC0803719F0883721F0A8C02F2F2061A2
S1131700B22EB4FE0DC08B2D8460B82E09C024FF08
S11317100AC09F2F9660B92E06C028E030E005C0AD
S113172020E130E002C020E132E0F801B7FE07C05A
S113173060817181828193810C5F1F4F06C060813B
S1131740718180E090E00E5F1F4FA4012AD5A82E7E
S1131750A818FB2DFF77BF2EB6FE0BC02B2D2E7FB6
S1131760A51450F4B4FE0AC0B2FC08C02B2D2E7E82
S113177005C07A2C2B2D03C07A2C01C0752C24FFB4
S11317800DC0FE01EA0DF11D8081803311F4297E24
S113179009C022FF06C07394739404C0822F867814
S11317A009F0739423FD12C020FF06C05A2C731451
S11317B018F4530C5718732C731460F4B70180E2B7
S11317C090E02C87A3D473942C85F6CF731410F473
S11317D0371801C0312C24FF11C0B70180E390E019
S11317E02C8794D42C8522FF16C021FF03C088E5E2
S11317F090E002C088E790E0B7010CC0822F8678A1
S113180051F021FD02C080E201C08BE227FD8DE290
S1131810B70190E07BD4A51430F4B70180E390E0E5
S113182075D45A94F8CFAA94F401EA0DF11D80817D
S1131830B70190E06BD4A110F6CF332009F45DCE4C
S1131840B70180E290E062D43A94F7CFF701868141
S1131850978102C08FEF9FEF2C96E2E11FC520FD18
S113186009C0FC0123FD05C022FF02C0738362830B
S113187051834083089544FD10C046FD10C0DB0130
S1131880FC01AA0FBB1FEE1FFF1F1094D1F76A0FB4
S11318907B1F8E1F9F1F31E003C033E001C034E083
S11318A0660F771F881F991F3150D1F7620F711D82
S11318B0811D911D08950F931F93CF93DF938C0186
S11318C0C801E6D3EC0197FD06C0A2D3892BC1F76A
S11318D0B801CE014DD4CE01DF91CF911F910F916C
S11318E008958F929F92AF92CF92DF92EF92FF92E0
S11318F00F931F93CF93DF93EC01A62E4A01022F7F
S1131900C7D3AC0155274B32510521F04D32510557
S113191049F40068AA9411F480E060C0CE01B8D301
S113192097FDFACF102F1D7F302F3073F1F48033E1
S1131930E1F4FF24FA94FA0C09F43DC0CE01A8D3D3
S113194097FD39C0382F3F7D383549F41264AA9485
S1131950AA9489F1CE019CD397FF07C02CC006FF3F
S113196002C0126001C01261AF2CC12CD12C7601CF
S113197020ED280F283078F014FF03C0BE01F8D3FF
S113198017C02A3040F016FFF9CF2F7D3FEE320FFB
S11319903630A0F72750412FC701B6016CDF6B0129
S11319A07C011260AA9451F0CE0172D397FFE0CF6C
S11319B011FD04C0B1CFC12CD12C760117FF08C092
S11319C0F094E094D094C094C11CD11CE11CF11C8F
S11319D0212FB701A601C40142DF81E0DF91CF913D
S11319E01F910F91FF90EF90DF90CF90AF909F9059
S11319F08F900895A1E2B0E0EFEFFCE038C45C0101
S1131A007A018E010F5F1F4F680180E2D8011D9299
S1131A108A95E9F7F501738040E050E0812CB0E04D
S1131A20912C81E090E0F90173FCA59173FEA191E2
S1131A308F017A2F9F01A11103C080E090E07BC049
S1131A40AE3519F44115510559F1E92DF0E0E417CB
S1131A50F5073CF4AD3569F1AD3219F4BB2319F146
S1131A6003C0B11101C08A2EE72FE695E695E695ED
S1131A7086010E0F111DF801A72FA7708C0102C05B
S1131A80000F111FAA95E2F7D801B081BA2BB083D9
S1131A90781559F0781510F47F5FE6CF7150E4CFD4
S1131AA09924939403C0B1E001C0B0E04F5F5F4F4D
S1131AB0BACFBB2319F08E8180628E83911003C04C
S1131AC09924939415C0F601CE0181962081209526
S1131AD02193E817F907D1F7F3CFE114F10429F0C2
S1131AE0D7018C93F70131967F016150F1F0912C6D
S1131AF0C50169A3CDD269A197FD15C0282F2695EC
S1131B0026952695F601E20FF11D208130E0AC0107
S1131B104770552702C0359527954A95E2F720FD71
S1131B20DCCFB50125D3911088CFE114F10411F075
S1131B30D7011C92C801A196EDE0B5C34F925F9204
S1131B407F928F929F92AF92BF92CF92DF92EF9249
S1131B50FF920F931F93CF93DF931F92CDB7DEB7FE
S1131B608C012B017A01FC0117821682A12CF80149
S1131B70D380F201D3FC8591D3FE8191382F2F01BC
S1131B80882309F4EEC090E0398342D23981892B4D
S1131B9019F0C80190DEEBCF353241F4F201D3FCE9
S1131BA03591D3FE31912F01353259F4C80139836F
S1131BB06FD2398197FDD3C03817C9F2B801D8D292
S1131BC0D0C03A3241F4D3FC3591D3FE31912F0188
S1131BD0BB24B39401C0B12C712C20ED230F2A3007
S1131BE088F4FB2DF260BF2E672D70E080E090E05A
S1131BF040E241DE762EF201D3FC3591D3FE3191E1
S1131C002F01EBCFB1FE03C0711003C0AAC077242B
S1131C107A94383619F03C3661F014C0F201D3FCE2
S1131C203591D3FE31912F01383661F4FB2DF860E4
S1131C30BF2E8B2D8460B82EF201D3FC3591D3FED8
S1131C4031912F01332309F48CC0632F70E088E7AE
S1131C5093E03983E5D13981892B09F482C0B0FC42
S1131C6007C0F701C080D180C70102967C0102C081
S1131C70C12CD12C3E3649F4F8014681578160E0ED
S1131C8070E02B2DC601EBDD72CF333699F4B1FC35
S1131C9002C077247394C801FBD197FD60C0C114BE
S1131CA0D10429F0F6018083C60101966C017A946F
S1131CB091F751C03B3551F49201A601672DC8013B
S1131CC099DE2C01009709F046C040C0C801398351
S1131CD0F2DD398197FD43C03F3651F128F43436A3
S1131CE019F1393661F128C0333769F03537E1F03D
S1131CF023C0C114D10429F0F6018082C6010196E3
S1131D006C017A9459F0C801C3D14C0197FD06C007
S1131D107FD1892B71F3B801C4012AD2C114D10433
S1131D20D1F0F601108217C0FB2DF062BF2E07C060
S1131D308B2D8061B82E03C09B2D9064B92E2B2D62
S1131D40A601672DC801CDDD811105C0F80183818D
S1131D50807329F406C0B0FC0ACFA39408CFAA204C
S1131D6019F08A2D90E002C08FEF9FEF0F90DF9162
S1131D70CF911F910F91FF90EF90DF90CF90BF9084
S1131D80AF909F908F907F905F904F9008950F93A6
S1131D901F93CF93DF93869F8001879F100D969F9B
S1131DA0100D1124C8010DD0EC01009721F0A801F9
S1131DB060E070E04BD1CE01DF91CF911F910F9184
S1131DC00895CF93DF938230910510F482E090E080
S1131DD0E091F603F091F70320E030E0A0E0B0E0FA
S1131DE0309739F14081518148175907B8F04817A5
S1131DF0590771F482819381109729F013969C936B
S1131E008E9312972CC09093F7038093F60327C008
S1131E102115310531F04217530718F0A901DB01F0
S1131E2001C0EF019A01BD01DF010280F381E02DC1
S1131E30D7CF21153105F9F0281B390B2430310592
S1131E4080F48A819B816115710521F0FB019383E4
S1131E50828304C09093F7038093F603FE013296C5
S1131E6044C0FE01E20FF31F819391932250310984
S1131E70398328833AC02091F4033091F503232B4E
S1131E8041F420910201309103013093F503209332
S1131E90F40320910001309101012115310541F431
S1131EA02DB73EB74091040150910501241B350B19
S1131EB0E091F403F091F503E217F307A0F42E1B6D
S1131EC03F0B2817390778F0AC014E5F5F4F24179A
S1131ED0350748F04E0F5F1F5093F5034093F4030A
S1131EE08193919302C0E0E0F0E0CF01DF91CF91C4
S1131EF00895CF93DF93009709F487C0FC013297CC
S1131F0013821282C091F603D091F703209781F4D3
S1131F1020813181280F391F8091F4039091F503BA
S1131F208217930779F5F093F503E093F4036DC0FA
S1131F30DE0120E030E0AE17BF0750F412964D9159
S1131F405C9113979D014115510509F1DA01F3CF15
S1131F50B383A28340815181840F951F8A179B0705
S1131F6071F48D919C911197840F951F0296918322
S1131F70808312968D919C9113979383828321156C
S1131F80310529F4F093F703E093F6033EC0D90139
S1131F901396FC93EE9312974D915D91A40FB51F88
S1131FA0EA17FB0779F480819181840F951F0296CB
S1131FB0D90111969C938E938281938113969C935D
S1131FC08E931297E0E0F0E08A819B81009719F0EC
S1131FD0FE01EC01F9CFCE01029628813981820FEE
S1131FE0931F2091F4033091F5032817390769F4FE
S1131FF0309729F41092F7031092F60302C013826B
S11320001282D093F503C093F403DF91CF91089526
S1132010911125C1803219F089508550D0F7089567
S1132020FC010590061621F00020D9F7C00108959F
S11320303197CF010895FC01059061507040011063
S1132040D8F7809590958E0F9F1F0895DC0101C0ED
S11320506D9341505040E0F70895FC016150704089
S113206001900110D8F7809590958E0F9F1F0895C9
S1132070DC01FC01672F71917723E1F7329704C0EB
S11320807C916D9370836291AE17BF07C8F3089576
S1132090CF93DF93EC012B8120FF33C026FF0AC0CE
S11320A02F7B2B838E819F8101969F838E838A81D0
S11320B090E029C022FF0FC0E881F981808199272F
S11320C087FD9095009719F420622B831AC03196EE
S11320D0F983E8830EC0EA85FB85099597FF09C05B
S11320E02B81019611F480E101C080E2822B8B8365
S11320F008C02E813F812F5F3F4F3F832E83992756
S113210002C08FEF9FEFDF91CF9108950F931F933C
S1132110CF93DF93182F092FEB018B8181FD03C02F
S11321208FEF9FEF20C082FF10C04E815F812C8112
S11321303D81421753077CF4E881F9819F012F5FA9
S11321403F4F39832883108306C0E885F985812FA2
S11321500995892B29F72E813F812F5F3F4F3F83BC
S11321602E83812F902FDF91CF911F910F9108958E
S1132170FB01238120FF12C026FD10C08F3F3FEFDB
S1132180930761F082832F7D206423832681378126
S11321902150310937832683992708958FEF9FEFC4
S11321A00895FA01AA27283051F1203181F1E894E9
S11321B06F936E7F6E5F7F4F8F4F9F4FAF4FB1E036
S11321C03ED0B4E03CD0670F781F891F9A1FA11D31
S11321D0680F791F8A1F911DA11D6A0F711D811D32
S11321E0911DA11D20D009F468943F912AE0269FF7
S11321F011243019305D3193DEF6CF010895462F56
S11322004770405D4193B3E00FD0C9F7F6CF462F36
S11322104F70405D4A3318F0495D31FD405241939F
S113222002D0A9F7EACFB4E0A6959795879577955C
S11322306795BA95C9F700976105710508959B01E3
S1132240AC010A2E06945795479537952795BA956C
S1132250C9F7620F731F841F951FA01D0895992746
S1132260882708952F923F924F925F926F927F92A8
S11322708F929F92AF92BF92CF92DF92EF92FF9292
S11322800F931F93CF93DF93CDB7DEB7CA1BDB0B3E
S11322900FB6F894DEBF0FBECDBF09942A883988E3
S11322A048885F846E847D848C849B84AA84B984EA
S11322B0C884DF80EE80FD800C811B81AA81B981F6
S11322C0CE0FD11D0FB6F894DEBF0FBECDBFED010A
S10922D00895F894FFCF0D
S11322D60000F8032000A70306B20305BD0304C8E3
S11322E60303D30302DE0301202020202020202024
S11322F62020002020204D41494E204D454E55209A
S1132306202020A43E506C617920706F6E672020D7
S11323162020202020506C617920736E656B20206C
S113232620202020205468616E6B7320746F202057
S11323362020202000202020504F4E47204D454E7F
S11323465520202020A43E506C617920772F6A6F97
S113235679737469636B20506C617920772F736C81
S1132366696465722020204869676873636F7265C3
S11323767320202020202052657475726E20202040
S1132386202020202020002020534E454B204D4560
S11323964E552020202020A43E506C617920736E77
S11323A6656B2020202020202052657475726E20D3
S11323B62020202020202020002020205448414E88
S11323C64B5320544F20202020A420506572204BCC
S11323D62E204F6D76696B202020204D6172697521
S11323E6732045736B6564616C2020416E6465726D
S11323F67320472E442E202020203E526574757289
S11324066E202020202020202020004D43503235ED
S11324163135206973204E4F5420696E20636F72E4
S113242672656374206D6F646520616674657220DD
S11324367265736574212049747320636F6E6669CF
S1132446672062697473206172652025780A00200A
S11324562020204C4F4144494E4720202020200074
S11324662020202047414D45204F5645522020200C
S11324760020596F75722073636F72653A20256464
S11324860020506F736974696F6E3A2025640020CA
S1132496504C4159494E4720504F4E47202020A4C6
S11324A6204869676873636F72653A20202020208C
S11324B6A4A420596F75722073636F72653A203035
S11324C6202020506F736974696F6E3A204E2F4135
S11324D620200020257320202564002D2D2D484919
S11324E6474853434F5245532D2D2DA4A4A4A4A4C9
S11324F6A43E52657475726E202020202020202070
S1132506200025730900492077696C6C206F766575
S113251672777269746520746869733A2025730A40
S11325260020202020434F4E47524154532120205F
S113253620A42020596F75206D6164652074686538
S11325462020204869676873636F7265206C69731D
S11325567420A42055736520746865205043207444
S11325666F202020456E74657220796F7572206E17
S1132576616D65002573004141414141414141413D
S113258641004242424242424242424200434343A3
S1132596434343434343430044444444444444443C
S11325A6444400454545454545454545450046465B
S10D25B646464646464646460000E7
S9030000FC
